:100000009DC10000CCC10000CAC10000C8C10000F1
:10001000C6C10000C4C10000C2C10000C0C10000D0
:10002000BEC10000BCC10000BAC10000B8C10000E0
:10003000B6C10000B4C10000B2C10000B0C10000F0
:10004000AEC100000C94DC46AAC10000A8C10000AB
:100050000C940A47A4C10000A2C100000C940846F9
:100060009EC100000C94D2450C94A84598C1000094
:1000700096C1000094C1000092C1000090C1000030
:100080000C94AE468CC100008AC1000088C10000FB
:1000900086C1000084C1000082C1000080C1000050
:1000A0007EC100007CC100000C94804678C1000035
:1000B00076C1000074C1000072C100000C94524669
:1000C0006EC100006CC100006AC1000068C1000080
:1000D00066C1000064C1000062C1000060C1000090
:1000E0005EC100004E414E494E495459494E46CDDD
:1000F000CCCC3D0AD7233C17B7D13877CC2B3295DF
:1001000095E6241FB14F0A000020410000C84200BC
:10011000401C4620BCBE4CCA1B0E5AAEC59D740086
:10012000407A10F35A00A0724E18090010A5D4E8C6
:100130000000E87648170000E40B54020000CA9A59
:100140003B000000E1F505000080969800000040AB
:10015000420F000000A086010000001027000000F0
:1001600000E803000000006400000000000A000036
:100170000000000100000000002C76D888DC674FEA
:100180000823DFC1DFAE59E1B1B796E5E3E453C61A
:100190003AE651997696E8E6C28426EB898C9B6212
:1001A000ED407C6FFCEFBC9C9F40F2BAA56FA5F4BC
:1001B00090055A2AF75C936B6CF9676DC11BFCE0E4
:1001C000E40D47FEF520E6B500D0ED902E03009437
:1001D0003577050080841E080000204E0A000000CC
:1001E000C80C333333330F986E12831141EF8D21D6
:1001F00014893BE65516CFFEE6DB18D1844B381B3D
:10020000F77C1D901DA4BBE424203284725E228101
:1002100000C9F124ECA1E53D2700002100240027BE
:10022000002A002D00300033000101000004010706
:10023000010A0100002200250028002B002E0031B9
:1002400000340002010000050108010B010000203C
:10025000002300260029002C002F0032000001009E
:100260000003010601090105050505070508080841
:1002700008020202020A0A08080404040401010137
:10028000010101010103030303030303030407073F
:10029000070C0C0C0C0C0C0C0C02020202060606DD
:1002A00006060606060B0B0B0B0B0B0B0B010210C5
:1002B0002020080810204010204080020102010880
:1002C0000402010102040810204080804020100830
:1002D0000402018004020180402010080402010889
:1002E00004020101020408102040800102040810E9
:1002F00020408000000A0B02090C0D0E08070304C1
:1003000001000000000000000000000000000000EC
:1003100000000000000000000000000000000012CB
:1003200011100000000000000000000000000000AC
:1003300000000000000000000000354711241FBE2F
:10034000CFEFD1E2DEBFCDBF00E00CBF19E0A0E0EF
:10035000B2E0E6E0F9EB00E00BBF02C007900D92BF
:10036000A230B107D9F72EE0A2E0B9E001C01D929A
:10037000AC3EB207E1F711E0CEE9D1E000E006C003
:1003800021970109802FFE010E946C5BCD39D107B6
:1003900080E00807A9F70E94A6470C94815C30CE44
:1003A0009C01803E910508F0B1C5FC018827E4520C
:1003B000FE4F8F4F0C946C5BBC02C902D202DB0271
:1003C000E802F10286078607860786078607FE028F
:1003D0000B031803860725032E03370344034D033D
:1003E00056035F036803710386077A0383038C0354
:1003F00086078607860795039E03A7038607860759
:10040000B003BD03860786078607CA03D703E40344
:10041000F103FE0307041004860786078607190404
:1004200022042B04860738044504520486078607F5
:1004300086075F046C04790486049304A004AD0469
:10044000860786078607BA04C704D404E104EE04CD
:10045000F70400058607860786078D059A05A70518
:100460008607B405C105CE05860786078607DB0526
:10047000E405ED0586078607860786078607860753
:100480008607F605FF050806860711061A062306E5
:100490008607860786072C06390646068607530612
:1004A00060066D068607860786077A068706940625
:1004B0008607A106AA06B306860786078607BC0636
:1004C000C506CE068607860786078607860786073F
:1004D00086078607860786078607090512051B0516
:1004E00086078607860786078607860786078607A4
:1004F00086078607860786078607240531053E0599
:10050000860772057B0584058607860786074B05E7
:1005100058056505860786078607860786078607C6
:100520008607860786078607860786078607860763
:100530008607860786078607860786078607860753
:1005400086078607860786078607D706E006ED0634
:100550008607FA06030710078607860786071D0722
:100560002607330786074007490756078607860789
:10057000860763076C07790781E090E0A0E0B0E0B0
:100580008093240A9093250AA093260AB093270A01
:1005900008951092280A1092290A10922A0A10929D
:1005A0002B0A089510922C0A10922D0A10922E0AEE
:1005B00010922F0A089581E090E0A0E0B0E08093CF
:1005C000300A9093310AA093320AB093330A089507
:1005D0001092340A1092350A1092360A1092370A95
:1005E000089583E090E0A0E0B0E08093380A909313
:1005F000390AA0933A0AB0933B0A089588E790E03D
:10060000A0E0B0E08093500A9093510AA093520A60
:10061000B093530A089588E790E0A0E0B0E080939B
:10062000540A9093550AA093560AB093570A089516
:1006300088E790E0A0E0B0E08093580A9093590AD0
:10064000A0935A0AB0935B0A08951092600A109220
:10065000610A1092620A1092630A08951092640A65
:100660001092650A1092660A1092670A089581E056
:1006700090E0A0E0B0E08093680A9093690AA093AC
:100680006A0AB0936B0A089510926C0A10926D0A70
:1006900010926E0A10926F0A08951092700A1092CA
:1006A000710A1092720A1092730A08951092740AD5
:1006B0001092750A1092760A1092770A0895109295
:1006C000780A1092790A10927A0A10927B0A089599
:1006D00010927C0A10927D0A10927E0A10927F0A74
:1006E00008951092800A1092810A1092820A109244
:1006F000830A08951092880A1092890A10928A0A31
:1007000010928B0A089510928C0A10928D0A109202
:100710008E0A10928F0A08951092900A1092910AF0
:100720001092920A1092930A08951092A00A1092C1
:10073000A10A1092A20A1092A30A08951092A40A84
:100740001092A50A1092A60A1092A70A0895109274
:10075000A80A1092A90A1092AA0A1092AB0A089548
:1007600081E090E0A0E0B0E08093B40A9093B50AF5
:10077000A093B60AB093B70A089581E090E0A0E094
:10078000B0E08093B80A9093B90AA093BA0AB093E4
:10079000BB0A08958CE291E0A0E0B0E08093C80A23
:1007A0009093C90AA093CA0AB093CB0A08958CE229
:1007B00091E0A0E0B0E08093CC0A9093CD0AA093A2
:1007C000CE0AB093CF0A08958CE291E0A0E0B0E0A9
:1007D0008093D00A9093D10AA093D20AB093D30AFF
:1007E00008958CE291E0A0E0B0E08093D40A909369
:1007F000D50AA093D60AB093D70A08951092D80AC2
:100800001092D90A1092DA0A1092DB0A0895109217
:10081000DC0A1092DD0A1092DE0A1092DF0A0895B7
:100820001092E00A1092E10A1092E20A1092E30A92
:1008300008951092F00A1092F10A1092F20A1092A2
:10084000F30A08951092F40A1092F50A1092F60A2B
:100850001092F70A089581E090E0A0E0B0E0809364
:10086000F80A9093F90AA093FA0AB093FB0A089544
:1008700085E090E0A0E0B0E08093000B9093010B46
:10088000A093020BB093030B089585E090E0A0E0E5
:10089000B0E08093040B9093050BA093060BB093EC
:1008A000070B089589E190E0A0E0B0E08093080B89
:1008B0009093090BA0930A0BB0930B0B089582E35E
:1008C00090E0A0E0B0E08093180B9093190BA093F8
:1008D0001A0BB0931B0B089582E390E0A0E0B0E008
:1008E00080931C0B90931D0BA0931E0BB0931F0BBA
:1008F000089582E390E0A0E0B0E08093200B909315
:10090000210BA093220BB093230B089582E390E078
:10091000A0E0B0E08093240B9093250BA093260BCE
:10092000B093270B089582E390E0A0E0B0E08093BD
:10093000280B9093290BA0932A0BB0932B0B0895AF
:1009400082E390E0A0E0B0E080932C0B90932D0B1D
:10095000A0932E0BB0932F0B089582E390E0A0E0BC
:10096000B0E08093300B9093310BA093320BB09397
:10097000330B089580E991E0A0E0B0E08093400B54
:100980009093410BA093420BB093430B089580E9E1
:1009900091E0A0E0B0E08093440B9093450BA093CE
:1009A000460BB093470B089580E991E0A0E0B0E0DA
:1009B0008093480B9093490BA0934A0BB0934B0B39
:1009C000089580E991E0A0E0B0E080934C0B909313
:1009D0004D0BA0934E0BB0934F0B08951092500BFC
:1009E0001092510B1092520B1092530B08951092CB
:1009F000540B1092550B1092560B1092570B0895F2
:100A00001092580B1092590B10925A0B10925B0BCC
:100A100008951092680C1092690C10926A0C109252
:100A20006B0C089510926C0C10926D0C10926E0C61
:100A300010926F0C08951092700C1092710C10921D
:100A4000720C1092730C089583E090E0A0E0B0E087
:100A50008093A80C9093A90CA093AA0CB093AB0C14
:100A6000089583E090E0A0E0B0E08093AC0C909318
:100A7000AD0CA093AE0CB093AF0C089583E090E062
:100A8000A0E0B0E08093B00C9093B10CA093B20CB6
:100A9000B093B30C08958AE090E0A0E0B0E08093BA
:100AA000D00C9093D10CA093D20CB093D30C08959A
:100AB0008AE090E0A0E0B0E08093D40C9093D50C55
:100AC000A093D60CB093D70C08958AE090E0A0E0F4
:100AD000B0E08093D80C9093D90CA093DA0CB0932B
:100AE000DB0C08951092B80C1092B90C1092BA0C4D
:100AF0001092BB0C08951092BC0C1092BD0C109279
:100B0000BE0C1092BF0C08951092C00C1092C10C34
:100B10001092C20C1092C30C089588E592E0A0E0F8
:100B2000B0E08093680B9093690BA0936A0BB0932D
:100B30006B0B089588E592E0A0E0B0E080936C0B29
:100B400090936D0BA0936E0BB0936F0B089588E597
:100B500092E0A0E0B0E08093700B9093710BA093B3
:100B6000720BB093730B08958EE190E0A0E0B0E0BB
:100B70008093780B9093790BA0937A0BB0937B0BB7
:100B800008958EE190E0A0E0B0E080937C0B90931C
:100B90007D0BA0937E0BB0937F0B08958EE190E0C8
:100BA000A0E0B0E08093800B9093810BA093820B28
:100BB000B093830B08951092900B1092910B1092AA
:100BC000920B1092930B08951092940B1092950B28
:100BD0001092960B1092970B08951092980B10920A
:100BE000990B10929A0B10929B0B08951092B80BD0
:100BF0001092B90B1092BA0B1092BB0B0895109281
:100C0000BC0B1092BD0B1092BE0B1092BF0B08953F
:100C10001092C00B1092C10B1092C20B1092C30B1A
:100C200008951092C80B1092C90B1092CA0B109223
:100C3000CB0B08951092CC0B1092CD0B1092CE0BD3
:100C40001092CF0B08951092D00B1092D10B1092EE
:100C5000D20B1092D30B089585E090E0A0E0B0E0B5
:100C60008093E00B9093E10BA093E20BB093E30B26
:100C7000089585E090E0A0E0B0E08093E40B9093CD
:100C8000E50BA093E60BB093E70B089585E090E0A9
:100C9000A0E0B0E08093E80B9093E90BA093EA0BFF
:100CA000B093EB0B089584EB95E1A0E0B0E0809366
:100CB000F00B9093F10BA093F20BB093F30B08950C
:100CC00084EB95E1A0E0B0E08093F40B9093F50BFA
:100CD000A093F60BB093F70B089584EB95E1A0E099
:100CE000B0E08093F80B9093F90BA093FA0BB093BC
:100CF000FB0B089585E090E0A0E0B0E08093080C45
:100D00009093090CA0930A0CB0930B0C089585E006
:100D100090E0A0E0B0E080930C0C90930D0CA093B9
:100D20000E0CB0930F0C089585E090E0A0E0B0E0C9
:100D30008093100C9093110CA093120CB093130C91
:100D400008951092180C1092190C10921A0C10920F
:100D50001B0C089510921C0C10921D0C10921E0C6E
:100D600010921F0C08951092200C1092210C1092DA
:100D7000220C1092230C08951092300C1092310C1A
:100D80001092320C1092330C08951092340C109281
:100D9000350C1092360C1092370C08951092380CC6
:100DA0001092390C10923A0C10923B0C089510924C
:100DB000480D1092490D10924A0D10924B0D089556
:100DC0008CE390E0A0E0B0E080934C0D90934D0D4B
:100DD000A0934E0DB0934F0D089581E090E0A0E0F8
:100DE000B0E08093500D9093510DA093520DB093AD
:100DF000530D08951092580D1092590D10925A0DDE
:100E000010925B0D08958CE390E0A0E0B0E0809339
:100E10005C0D90935D0DA0935E0DB0935F0D0895F2
:100E200081E090E0A0E0B0E08093600D9093610DD0
:100E3000A093620DB093630D08951092700D1092FF
:100E4000710D1092720D1092730D08958CE390E065
:100E5000A0E0B0E08093740D9093750DA093760D93
:100E6000B093770D089581E090E0A0E0B0E080932A
:100E7000780D9093790DA0937A0DB0937B0D089522
:100E80001092800D1092810D1092820D1092830DA0
:100E900008958CE390E0A0E0B0E08093840D9093FF
:100EA000850DA093860DB093870D089581E090E0A5
:100EB000A0E0B0E08093880D9093890DA0938A0DF7
:100EC000B0938B0D08951092980D1092990D109279
:100ED0009A0D10929B0D08958CE390E0A0E0B0E095
:100EE00080939C0D90939D0DA0939E0DB0939F0DAC
:100EF000089581E090E0A0E0B0E08093A00D909391
:100F0000A10DA093A20DB093A30D0895220F331F3E
:100F1000220F331FF901EC5DF54F1082118212820E
:100F2000138208958C3691050CF04EC089369105D8
:100F3000CCF4863391055CF5833391059CF48C31B8
:100F40009105BCF4893191056CF48E30910564F4FF
:100F50008B3091053CF4009729F097FD08C002976B
:100F6000049728F481E008950F970997D8F380E05B
:100F70000895863291053CF4843291059CF74F9791
:100F80000397A8F7EFCF8997079788F7EBCF8435BA
:100F9000910574F4813591052CF7843491052CF476
:100FA0008D339105FCF6C797EBCF87549109ECCFB1
:100FB0008E35910534F48B359105A4F6855591094C
:100FC000DFCF85569109DCCF843A91051CF5813A33
:100FD000910544F68038910584F48D37910514F617
:100FE000863791053CF4833791050CF0BBCF8F56C3
:100FF0009109C6CF89579109C3CF803991053CF437
:101000008D3891050CF0AECF83589109B9CF815935
:101010009109B6CF803D91058CF48D3C91050CF083
:10102000A1CF8E3A91053CF48B3A91050CF09ACF02
:10103000855A9109A5CF895C9109A2CF8A3D910576
:101040003CF4873D91050CF08DCF835D910998CFDD
:101050008D5D910995CFAF92BF92CF92DF92EF92C3
:10106000FF920F931F93CF93DF936C017B018B0152
:10107000040F151FEB015E01AE18BF08C017D107A2
:1010800059F06991D601ED91FC910190F081E02D2C
:10109000C6011995892B79F7C501DF91CF911F9171
:1010A0000F91FF90EF90DF90CF90BF90AF90089599
:1010B000FC01538D448D252F30E0842F90E0821B5E
:1010C000930B541710F0CF96089501970895FC01E3
:1010D000918D828D981761F0A28DAE0FBF2FB11D3B
:1010E0005D968C91928D9F5F9F73928F90E0089593
:1010F0008FEF9FEF0895FC01918D828D981731F04D
:10110000828DE80FF11D858D90E008958FEF9FEFA0
:101110000895FC01918D228D892F90E0805C9F4F76
:10112000821B91098F739927089588EA9DE0F1DF6A
:1011300021E0892B09F420E0822F0895FC01A48D81
:10114000A80FB92FB11DA35ABF4F2C91848D90E0E9
:1011500001968F739927848FA689B7892C93A089CC
:10116000B1898C91837080648C93938D848D981356
:1011700006C00288F389E02D80818F7D80830895E9
:10118000EF92FF920F931F93CF93DF93EC0181E0D7
:10119000888F9B8D8C8D98131AC0E889F98980817E
:1011A00085FF15C09FB7F894EE89FF896083E889B1
:1011B000F98980818370806480839FBF81E090E0A3
:1011C000DF91CF911F910F91FF90EF900895F62E30
:1011D0000B8D10E00F5F1F4F0F731127E02E8C8DCA
:1011E0008E110BC00FB607FCFACFE889F989808110
:1011F00085FFF5CFCE01A2DFF2CFEB8DEC0FFD2FF7
:10120000F11DE35AFF4FF0829FB7F8940B8FEA89E4
:10121000FB8980818062D0CF682F88EA9DE0B0CFC3
:10122000CF93DF93EC01888D8823B1F0AA89BB8925
:10123000E889F9898C9185FD03C0808186FD0CC009
:101240000FB607FCF7CF8C9185FFF2CF808185FF29
:10125000EDCFCE0173DFEACFDF91CF91089580E02B
:1012600090E0892B21F061DF81110E94000080E075
:1012700090E0892B49F080E090E0892B29F00E94D2
:10128000000081110E94000080E090E0892B49F06D
:1012900080E090E0892B29F00E94000081110E94DB
:1012A000000080E090E0892B49F080E090E0892BFD
:1012B00029F00E94000081110C94000008958150D3
:1012C000823108F05AC0E82FF0E08827E559F64F40
:1012D0008F4F0C946C5B8B098F097D0983098709FB
:1012E000BD09920998099C09A209A609AA09B00991
:1012F000B409BD09B809BE09C209809180008F7781
:10130000809380000895809180008F7DF9CF809137
:101310008000877FF5CF84B58F7784BD089584B52D
:101320008F7DFBCF8091B0008F778093B0000895C0
:101330008091B0008F7DF9CF809190008F7780935E
:1013400090000895809190008F7DF9CF809190005A
:10135000877FF5CF8091A0008F778093A0000895BC
:101360008091A0008F7DF9CF8091A000877FF5CF7D
:10137000809120018F778093200108958091200132
:101380008F7DF9CF80912001877FF5CFCF93DF93B9
:10139000282F30E0F901ED50FD4F8491F901E3551C
:1013A000FD4FD491F901E959FD4FC491CC2399F037
:1013B000811185DFEC2FF0E0EE0FFF1FE35BFD4FA7
:1013C000A591B491EC91ED2381E090E009F480E0E7
:1013D000DF91CF91089580E090E0FACF1F93CF93F3
:1013E000DF93282F30E0F901ED50FD4F8491F90192
:1013F000E355FD4FD491F901E959FD4FC491CC2338
:10140000A1F0162F81115BDFEC2FF0E0EE0FFF1F34
:10141000ED5CFD4FA591B4918FB7F894EC9111114B
:1014200008C0D095DE23DC938FBFDF91CF911F9151
:101430000895DE2BF8CFCF93DF9390E0FC01E355C6
:10144000FD4F249189599D4FFC0184918823C9F057
:1014500090E0880F991FFC01E75EFD4FA591B491C4
:10146000FC01ED5CFD4FC591D49161110DC09FB79A
:10147000F8948C91209582238C938881282328834B
:101480009FBFDF91CF910895623051F49FB7F894D8
:101490003C91822F809583238C93E8812E2BEFCF74
:1014A0008FB7F894EC912E2B2C938FBFEACF82301C
:1014B000910538F0880F991F880F991F059701979C
:1014C000F1F708953FB7F8948091180990911909A0
:1014D000A0911A09B0911B0926B5A89B05C02F3F02
:1014E00019F00196A11DB11D3FBFBA2FA92F982F4A
:1014F0008827BC01CD01620F711D811D911D42E045
:10150000660F771F881F991F4A95D1F708958F920C
:101510009F92AF92BF92CF92DF92EF92FF926B01B8
:101520007C01D0DF4B015C01C114D104E104F10462
:10153000B1F0C8DF681979098A099B09683E7340D0
:101540008105910588F321E0C21AD108E108F1086C
:1015500088EE880E83E0981EA11CB11CE5CFFF9099
:10156000EF90DF90CF90BF90AF909F908F900895B5
:101570002FB7F8946091140970911509809116099C
:10158000909117092FBF0895CF92DF92EF92FF92AB
:10159000CF93DF93EC01603282E07807CCF5653BB6
:1015A000710514F064EB70E0898128E830E0281BB5
:1015B000310987FD3395220F331F220F331F690135
:1015C000330FEE08FF088A8128E532E0281B310935
:1015D00087FD3395220F331F220F331F032E000C7C
:1015E000440B550B2C193D094E095F09DB0177FFB0
:1015F00002C0B0E0A0E00E94015A24EB30E040E0DD
:1016000050E00E94DB59C20ED31EE41EF51EB60147
:10161000E881E03370F5298188E890E0821B910928
:1016200027FD9395880F991F880F991F68177907D1
:101630007CF02A8188E592E0821B910927FD939531
:10164000880F991F880F991F681779070CF4CB0131
:101650000297880F991F4FB7F8942E2F30E0F901A9
:10166000EE0FFF1FE20FF31FEB5BF14F92838183BD
:101670004FBFDF91CF91FF90EF90DF90CF90089513
:101680001F93CF93DF93EC01162F8881803308F0EE
:101690004DC061E0812FCFDE8881282F30E0F90135
:1016A000EE0FFF1FE20FF31FEB5BF14F1F73608123
:1016B000607C612B608319821A822CE0622F0E9469
:1016C0004D5B829FB001112430E020E0AB01420F5E
:1016D000531FFA01EE0FFF1FE40FF51FEB5BF14FF5
:1016E000908196FD16C02F5F3F4F2C30310571F76A
:1016F000813009F51092800082E080938100109281
:10170000850010928400B19A80916F00826080936E
:101710006F00E8818E2F90E0FC01EE0FFF1FE80FB5
:10172000F91FEB5BF14F8081806480838881DF91BA
:10173000CF911F910895823061F4109290008093B0
:101740009100109295001092940088BB80937100D4
:10175000E0CF833069F41092A00082E08093A10072
:101760001092A5001092A40089BB80937200D1CF83
:101770008111CFCF1092200182E08093210110923D
:101780002501109224018ABB80937300C2CFAF92CF
:10179000BF92CF92DF92EF92FF920F931F93CF935E
:1017A000DF936B017A01EC01C15FD64F28813CE0E9
:1017B000389F8001399F100D1124A090D50EB12CB7
:1017C00027FF1FC0FB011182108288818F5F8883F1
:1017D00088819801280F311D87FD3A95F6012A1559
:1017E0003B051CF488818C30BCF18081918104968A
:1017F00080349C4908F471C0F6018081918104967F
:101800006EC088819801280F311D87FD3A952A15F1
:101810003B05DCF68881A801480F511D87FD5A95CC
:10182000FA01EE0FFF1FE40FF51FEB5BF14F808114
:1018300086FFCBCF8881F801E80FF11D87FDFA956F
:10184000CF01EE0FFF1FE80FF91FEB5BF14F808117
:1018500060E08F73C3DDB9CF808191812881A801B9
:10186000420F511D27FD5A959A01FA01EE0FFF1FF5
:10187000E20FF31FEB5BF14F21813281820F931F47
:10188000F7019183808388819801280F311D87FD9E
:101890003A95F901EE0FFF1FE20FF31FEB5BF14FDB
:1018A000808186FF21C08881080F111D87FD1A9550
:1018B000F801EE0FFF1FE00FF11FEB5BF14F80818E
:1018C00061E08F73DF91CF911F910F91FF90EF90A7
:1018D000DF90CF90BF90AF9081CD80E49CE9F7017D
:1018E000918380838FEF8883DF91CF911F910F9138
:1018F000FF90EF90DF90CF90BF90AF9008950F933F
:101900001F93CF93DF938B01EA01AB014150510943
:101910004433510508F0E9C02230310508F0E5C034
:1019200048E3429FF001439FF00D1124E80FF91F97
:10193000E60FF71F81E080836C2F232B09F4D2C0C0
:1019400061E0802F78DD209749F460E0802F46DD4C
:10195000CE01DF91CF911F910F910895CF3FD10517
:1019600011F461E0BFC0F801ED50FD4FE491E1508A
:10197000E23108F0B2C0F0E08827EE53F34F8F4F0A
:101980000C946C5BD40CDB0CE00CEA0CF40C6D0DCD
:10199000FE0C060D0E0D180D220D2C0D3B0D450DE8
:1019A0006D0D4F0D590D630D84B5806884BDC7BDA5
:1019B000D0E0C0E0CDCF84B5806284BDC8BDF8CF93
:1019C00080918000806880938000D0938900C093CC
:1019D0008800EECF80918000806280938000D09359
:1019E0008B00C0938A00E4CF809180008860809350
:1019F0008000D0938D00C0938C00DACF8091B0002E
:101A000080688093B000C093B300D2CF8091B000C3
:101A100080628093B000C093B400CACF80919000E0
:101A2000806880939000D0939900C0939800C0CFB5
:101A300080919000806280939000D0939B00C0932F
:101A40009A00B6CF80919000886080939000D093E8
:101A50009D00C0939C00ACCF8091A00080688093D3
:101A6000A0008091A0008F7B8093A000D093A9005C
:101A7000C093A8009DCF8091A00080628093A000B9
:101A8000D093AB00C093AA0093CF8091A000886050
:101A90008093A000D093AD00C093AC0089CF80911B
:101AA0002001806880932001D0932901C0932801F0
:101AB0007FCF80912001806280932001D0932B0101
:101AC000C0932A0175CF8091200188608093200106
:101AD000D0932D01C0932C016BCF60E0C038D105AD
:101AE0000CF03FCF802F7ADC63CFC1E0D0E030CF65
:101AF000CF93DF93D0E0C0E0CE0114DA882319F051
:101B0000CE010E94D0012196C13ED105A9F7DF91F7
:101B1000CF910895CF93DF93EC01888137DC21E0EA
:101B2000892B09F420E02C878C8130DC21E0892B83
:101B300009F420E02E878C8D9D8D0197D1F48A8148
:101B400025DC21E0892B09F420E02D878E811EDC25
:101B500021E0892B09F420E02F879C858D8598173B
:101B600029F08E85281711F09A878B87DF91CF9106
:101B700008958C858A872B87F9CF0F93FC01928576
:101B8000908783858187A48DB58D119721F4621785
:101B900021F0401711F0628743878385882381F005
:101BA000828591110FC0882359F080899189A2897B
:101BB000B3890197A109B109808B918BA28BB38B5B
:101BC0000F9108958111FCCF80899189A289B389F1
:101BD0000196A11DB11DF0CF4F925F926F927F923F
:101BE0008F929F92AF92BF92CF92DF92EF92FF922D
:101BF000CF93DF93EC016C897D898E899F898888DA
:101C00009988AA88BB88CE8CDF8C0D2C000CEE083E
:101C1000FF08603127E272078105910529F0161649
:101C2000170618061906ACF0A7019601C501B40104
:101C30000E943E5BDF91CF91FF90EF90DF90CF90BD
:101C4000BF90AF909F908F907F906F905F904F90DC
:101C500008950E94AF5820E030E44CE156E40E9421
:101C60009D5A2B013C01488E598E6A8E7B8EC50190
:101C7000B4010E94AF58A30192010E940E594B017A
:101C80005C01C701B6010E94AF589B01AC01C501C0
:101C9000B4010E940E590E94055BCCCFFC01118259
:101CA0001082138212821582148217821682108685
:101CB0001186128613861486158616861786108A54
:101CC000118A128A138A108E118E128E138E158E1F
:101CD000148E178E168E10A211A212A213A214A295
:101CE00015A216A217A210A611A612A613A614A634
:101CF00015A681E090E097A786A780E197E2A0E093
:101D0000B0E0848B958BA68BB78B08952F923F9272
:101D10004F925F926F927F928F929F92AF92BF92FB
:101D2000CF92DF92EF92FF920F931F93CF93DF93A7
:101D300000D01F92CDB7DEB79C838B834B015A0135
:101D40001901FA82E982FA01408051806280738031
:101D500020E030E0A901C301B2010E94365B1816F1
:101D600074F4F6012081318142815381C301B201B3
:101D70000E94385AF5016083718382839383F8014E
:101D80004080518062807380F401A68DB78D2089D8
:101D90003189428953890E94015A6B017C01EB8190
:101DA000FC81EC58FF4F8081882309F440C0C414A3
:101DB000D504E604F7040CF440C0F801C082D182D7
:101DC000E282F3828B819C81865B9F4F9C838B8315
:101DD000FC0180819181A281B381F1018083918393
:101DE000A283B383E981FA8180819181892B41F0BB
:101DF000C401F2DEEB81FC81608371838283938373
:101E00000F900F900F900F90DF91CF911F910F9136
:101E1000FF90EF90DF90CF90BF90AF909F908F900A
:101E20007F906F905F904F903F902F9008954C144B
:101E30005D046E047F040CF0C0CFF501408051803A
:101E40006280738020E030E04AEF56E4C301B201C3
:101E50000E94A95887FFB1CF20E030E040E85FE35F
:101E6000C301B2010E94395AF501608371838283F4
:101E70009383A3CF889A0895889808958E9A089599
:101E80008E980895EBE0F1E080818860808308956A
:101E9000EBE0F1E08081877F80830895149A0895B4
:101EA0001498089560E0FC01838598CA60E0FC0105
:101EB000858194CA61E0FC01838590CA61E0FC01E0
:101EC00085818CCACF93DF93EC01FC01E358FF4F6F
:101ED0001082379781E0808360E08D817FDA8F8583
:101EE0009889892B29F060E08B85DF91CF9176CAA4
:101EF000DF91CF910895CF93DF93EC018B8946DA80
:101F00002E892817190621F48F89DF91CF91089522
:101F100080E0FBCFCF93DF93EC01898937DA2E89FC
:101F20002817190621F48F89DF91CF91089580E059
:101F3000FBCFCF93DF93EC018F8199AD61E09111DD
:101F400001C060E04BDA8D859AAD992321F09BADFD
:101F500061E0911101C060E0DF91CF913FCACF9362
:101F6000DF93EC018F8199AD60E0911101C061E0D8
:101F700035DA8D859AAD992321F09BAD60E0911102
:101F800001C061E0DF91CF9129CACF93DF93EC01CB
:101F900061E0898523DA8AAD882319F061E08F85B5
:101FA0001DDAC558DF4F1882DF91CF910895CF9386
:101FB000DF93EC01FC01E058FC4F1082EE58F10970
:101FC0008081811103C0CE014096DFDFFE01ED501C
:101FD000FD4F8081811104C0CE0182569F4FD5DF15
:101FE000FE01EC50FD4F8081811104C0CE01845D63
:101FF0009E4FCBDF64E670E080E090E0DF91CF9110
:1020000086CACF93DF93EC0160E08985E7D98AAD7A
:10201000882319F060E08F85E1D9C558DF4F81E052
:102020008883DF91CF910895CF92DF92EF92FF9254
:102030000F931F93CF93DF93FC01DC01AA5BBF4F8B
:102040004D935D936D937C93139714964D935D938D
:102050006D937C93139714960D931D932D933C933E
:102060001397EC01CE5ADF4FE8826297888188236C
:1020700051F090AD911150C037FF54C01D921D9288
:102080001D921C921397EF01CF5BDF4F488159815E
:102090006A817B81141615061606170644F52496E8
:1020A0009881992321F10D911D912D913C911397C8
:1020B0006801790137FF07C0CC24DD247601C01AFE
:1020C000D10AE20AF30A4C155D056E057F057CF422
:1020D00037FF07C070956095509541955F4F6F4FE2
:1020E0007F4F4D935D936D937C931397892FDF0101
:1020F000A15ABF4F1D921D921D921C921397ED582D
:10210000FF4F91E09083DF91CF911F910F91FF904E
:10211000EF90DF90CF900895101611061206130667
:102120000CF4ACCF80E0AFCF0F931F93CF93DF932E
:10213000EC01062F8D8981110DC0CE01EBDE182F29
:10214000CE01D9DE0111182F812FDF91CF911F9180
:102150000F910895CE01CFDE182FCE01DBDEF2CF36
:10216000CF93DF93EC01FC01E159FF4F8081918116
:10217000A281B3810196A11DB11D80839183A283A9
:10218000B3833E9681E08083AE01465B5F4FFA01E8
:1021900080819181A281B3819E012C583F4FF9012A
:1021A0002081222309F440C00196A11DB11DFA012E
:1021B00080839183A283B383FE01E058FF4F208187
:1021C0003181C901959587958C0F9D1F329701909C
:1021D000F081E02D20FF08C0DC012D913C91E20F41
:1021E000F31F0190F081E02D19958F859889892B37
:1021F000F9F0FE01EC57FF4F20813181C90195951F
:1022000087958C0F9D1FCE57DF4FE881F98120FF06
:1022100008C0DC012D913C91E20FF31F0190F08189
:10222000E02DDF91CF9119940197A109B109BFCF9A
:10223000DF91CF9108958F929F92AF92BF92CF92EC
:10224000DF92EF92FF920F931F93CF93DF93EC01F6
:10225000FC01E15AFF4F60817181828193810E946C
:10226000AD586B017C016CAD7DAD8EAD9FAD0E9414
:10227000AF589B01AC0160E074E284E799E40E94EE
:102280009D5A4B015C01FE01E559FF4F6081718150
:10229000828193810E94AD589B01AC01C501B401BC
:1022A0000E949D5A4B015C018E010D591F4F20E089
:1022B00030E040E05FE30E940E59A70196010E94C2
:1022C000395A0E940A5BF801608371838283938389
:1022D000C959DF4FA5019401C701B6010E94395ABF
:1022E0000E940A5B688379838A839B83DF91CF9105
:1022F0001F910F91FF90EF90DF90CF90BF90AF9024
:102300009F908F9008950F931F93CF93DF93FC01BD
:10231000E358FF4F20812223B9F07E97008111817D
:102320002281338138964081518162817381041703
:1023300015072607370710F1EC01C4DDCE01DF9148
:10234000CF911F910F9177CFFC01ED58FF4F208166
:102350002223A1F074970081118122813381349668
:102360004081518162817381041715072607370761
:1023700028F0DF91CF911F910F91F2CEDF91CF9195
:102380001F910F910895FC01ED58FF4F20812223EA
:1023900061F0749780819181A281B3810196A11D22
:1023A000B11D80839183A283B38308950F931F93FC
:1023B000FC01EE5AFF4F2081211112C03897008195
:1023C00011812281338134964081518162817381F0
:1023D00004171507260737073CF41F910F91BFCD4F
:1023E000FC0120AD2111F9CF1F910F91A2CDFC016D
:1023F0001382128214828CE291E0A0E0B0E0808F20
:10240000918FA28FB38F848F958FA68FB78F42E362
:1024100050E060E070E040A351A362A373A344A323
:1024200055A366A377A340A751A762A773A784A764
:1024300095A7A6A7B7A780AB91ABA2ABB3AB88E734
:1024400090E0A0E0B0E084AB95ABA6ABB7AB10AE2C
:1024500011AE12AE13AE84E690E0A0E0B0E084AF1F
:1024600095AFA6AFB7AFDF01A05CBF4F1C9211962E
:102470001D921D921D921C92139714961C921196F8
:102480001D921D921D921C92139714961D921D92DF
:102490001D921C92139714961D921D921D921C92D0
:1024A000139714961C9211961D921D921D921C92C8
:1024B000139714961D921D921D921C9213971496B9
:1024C0001D921D921D921C92139714961D921D929F
:1024D0001D921C92139714961D921D921D921C9290
:1024E000139714961D921D921D921C921397149689
:1024F0001D921D921D921C92139714961D921D926F
:102500001D921C92139714961C9211961C92119670
:102510001C9211961C9211961C9211961C92119667
:102520001C9211961C9211961C9211961C92119657
:102530001C921682158210861782128611861486C6
:10254000138616861586108A1786128A118A148AAF
:10255000138A11968EE59FE011969C938E931296A6
:1025600011961C921E9212968AE59FE011969C93FA
:102570008E93129611961C921E92129686E59FE0FB
:1025800011969C938E93129611961C921E921296FF
:1025900082E59FE08D939C93E457FF4F1182108258
:1025A000089508958FEF9FEF089508950895089571
:1025B0000895089508950895089508950895089533
:1025C0000895089508950895089508950895089523
:1025D0000895089580910D0990910E09892B41F479
:1025E00081E090E00E94305390930E0980930D0992
:1025F00080910D0990910E0908950F931F93CF9329
:10260000DF938B01E7DFF801C2A1D3A1868D978DFF
:102610008530910519F14CF40497A9F090E080E021
:10262000DF91CF911F910F91089586309105F9F0B8
:102630000B97A1F76BE070E08FED9EE021D8BE0113
:102640008FED9EE008C064E070E086ED9EE018D853
:10265000BE0186ED9EE00E94C40AE0CF65E070E016
:1026600089ED9EE00DD8BE0189ED9EE0F4CF66E0D5
:1026700070E08CED9EE004D8BE018CED9EE0EBCFC7
:102680008091090990910A09892B91F480E790E0E3
:102690000E943053FC0131969C012B5C3F4F1192FC
:1026A00017AAE217F307D9F790930A09809309094B
:1026B0008091090990910A0908954F925F926F9253
:1026C0007F92AF92BF92CF92DF92EF92FF920F93E1
:1026D0001F93CF93DF93EB01D3DF8C01CAA8DBA854
:1026E0004EA45FA468A879A8AEA0BFA0EE8CFF8C12
:1026F0004AA15BA19601B70102D9C301B2010E94B0
:10270000870A9601A501B701C801F9D890E080E0D9
:10271000DF91CF911F910F91FF90EF90DF90CF90BD
:10272000BF90AF907F906F905F904F900895CF9340
:10273000DF93EB01A5DF6AA98E8D0E941B0A90E052
:1027400080E0DF91CF910895CF93DF93EB0198DF85
:102750002AA93BA94AA15BA16E8D7F8DD0D890E0BC
:1027600080E0DF91CF910895809102099091030953
:10277000892BE1F585E390E00E943053FC0181E074
:1027800090E0A0E0B0E080839183A283B383848350
:102790009583A683B78380879187A287B3871586A1
:1027A000148616861786108A118A128A138A148A4A
:1027B000158A168A178A108E118E138E128E12A207
:1027C00013A214A215A217A216A210A611A612A651
:1027D00013A614A615A616A617A610AA11AA12AA21
:1027E00013AA14AAF0930309E09302098091020945
:1027F000909103090895CF93DF93B6DFEC0183E056
:102800000E94C60921E0892B09F420E02C8FACDF5F
:10281000EC0182E00E94C60921E0892B09F420E046
:102820002D8FA2DFEC018EE00E94C60921E0892BEA
:1028300009F420E02E8F98DFEC018FE00E94C6099A
:1028400021E0892B09F420E02F8F8EDFEC0182E15B
:102850000E94C60921E0892B09F420E028A384DF27
:10286000EC0183E10E94C60921E0892B09F420E0F4
:1028700029A3DF91CF91089577DFBDCF75DFFC01EC
:1028800014AA90E080E00895FC0101900020E9F78F
:102890003197AF01481B590BBC0188EA9DE00C94AD
:1028A0002B088F929F92AF92BF920F931F93CF935B
:1028B000DF93CDB7DEB7A1970FB6F894DEBF0FBE9A
:1028C000CDBF19A2423008F44AE08E010F5D1F4FC0
:1028D000842E912CB12CA12CA50194010E94075AA1
:1028E000E62FB901CA01EA30ECF4E05DD801EE93BD
:1028F0008D01232B242B252B79F790E080E0109776
:1029000011F0CD01C1DFA1960FB6F894DEBF0FBE66
:10291000CDBFDF91CF911F910F91BF90AF909F904E
:102920008F900895E95CE2CFAFCF882319F08AE554
:1029300098E0FACF83E598E0FCCFFC01808191819B
:10294000009711F00C94CC5308950C94CC530C9434
:10295000CC530C94CC530C94CC530C94CC530C947B
:10296000CC530C94CC530C94CC530C94CC530C946B
:10297000CC530C94CC530C94CC530C94CC530C945B
:10298000CC530C94CC530C94CC530C94CC530C944B
:10299000CC530C94CC530C94CC530C94CC530C943B
:1029A000CC530C94CC53CF92DF92EF92FF92CF9303
:1029B000DF9397FF18C06B017C018DE20E940C0928
:1029C000EC0166277727CB016C197D098E099F09D9
:1029D0004AE067DF8C0F9D1FDF91CF91FF90EF9052
:1029E000DF90CF9008954AE0DF91CF91FF90EF9074
:1029F000DF90CF9056CFBC01990F880B990BD3CFA6
:102A0000CF93DF93EC018EEA93E08EDF6AA17BA186
:102A10008CA19DA1C8DF84EA94E0DF91CF9184CF9F
:102A20000F931F93CF93DF938C01EB0180E993E029
:102A30007BDF80E497E078DFF80180810E940C0959
:102A4000CE01D9DF91DEDF91CF911F910F91D8CFC9
:102A5000EF92FF920F931F93CF93DF93182F092FBD
:102A60007B016115710569F50E94C60931E020E01E
:102A7000019709F030E0C32FD22F82E0E816F1046D
:102A800008F045C081EB93E04FDF80E497E04CDF36
:102A900085EB93E049DF812F902FADDF80E497E055
:102AA00043DF8FEF98E040DFCE01A5DF5DDEA8DFDA
:102AB00090E080E0DF91CF911F910F91FF90EF9018
:102AC0000895D0E0C0E061307105B9F6812F16336A
:102AD00010F08AEC810F20917B00982F9870277F4F
:102AE000922B90937B008770806480937C00809110
:102AF0007A00806480937A0080917A0086FDFCCF12
:102B000080917800C0917900DC2FC82FB6CF81E08A
:102B100090E0D0CF0F931F93CF93DF93FC012081E0
:102B2000318121153105C1F1EC01822F0E94C609C6
:102B300021E0892B09F420E02B876A85261701F113
:102B40001E821F82188619860E811F81288539856D
:102B50008A819B81AC81BD81081719072A073B0731
:102B6000DCF081E0682788810E94EE0989DD70E051
:102B700060E088819981DF91CF911F910F9168CF9B
:102B80008E819F81A885B9850196A11DB11D8E8377
:102B90009F83A887B987D8CFDF91CF911F910F91DD
:102BA0000895CF93DF93EB016BDD6AA97BA98E8D2E
:102BB0009F8D4EDF90E080E0DF91CF910895CF921E
:102BC000DF92EF92FF92CF93DF93EB01CB010E9454
:102BD0009207882351F1FE01EE0FFF1FEE0FFF1F3A
:102BE000EC5DF54FC080D180E280F38087EB93E00D
:102BF0009BDE80E497E098DE85EB93E095DECE01E6
:102C0000FADE80E497E090DE8FEF98E08DDEC7017A
:102C1000B601C9DEA9DDF4DE90E080E0DF91CF915E
:102C2000FF90EF90DF90CF9008958BEB93E07CDEE8
:102C3000F3CF0F931F93CF93DF938C01D0E0C0E0CD
:102C4000CE010E949207882319F0BE01C801B7DFA8
:102C50002196C13ED105A1F7DF91CF911F910F9130
:102C600008958DED93E060DE80E492E05DDE88E023
:102C700092E05ADE82EE93E057DE76DDC1DE90E030
:102C800080E00895CF93DF93EC018DEE93E04CDE6E
:102C900081EF93E049DE8C8D48DE85EF93E044DEE2
:102CA0008D8D43DE89EF93E03FDE8E8D3EDE8DEF2E
:102CB00093E03ADE8F8D39DE81E094E035DE88A145
:102CC00034DE85E094E030DE89A12FDECE01DF9195
:102CD000CF9196CE49DDD6CF89E094E025DE44DD64
:102CE0008ADD42DDCFDFCCDC70E060E088E090E0A0
:102CF000AFDEC6DC70E060E089E090E0A9DEC0DC19
:102D000070E060E08AE090E0A3DEBADC70E060E0B2
:102D10008DE090E09DDE90E080E008952F923F925C
:102D20004F925F926F927F928F929F92AF92BF92DB
:102D3000CF92DF92EF92FF920F931F93CF93DF9387
:102D400000D000D01F921F92CDB7DEB71C01FC014E
:102D5000E958FF4F10823196108287589F4FFC012F
:102D60001082D101A658BF4F1C92339610822601C3
:102D70003701441A550A660A770A49825A826B82D9
:102D80007C8277FE0CC07094609450944094411CF7
:102D9000511C611C711C49825A826B827C824C15C9
:102DA0005D056E057F0534F568017901C41AD50A01
:102DB000E60AF70A49805A806B807C807594679494
:102DC000579447944D825E826F82788681010458C1
:102DD0001F4F49805A806B807C804C145D046E04C8
:102DE0007F0488F4F10160A471A481E08C93F80160
:102DF000808327C0B901A8014C195D096E097F09BC
:102E00006A017B01D7CF4D805E806F8078844C143F
:102E10005D046E047F0408F4C6C04AA05BA06CA0E9
:102E20007DA04C145D046E047F040CF083C06E8C96
:102E30007F8C2FEF621A720A21E0FC012083F801D7
:102E40002083F1018481882309F45AC00E94B80AC2
:102E5000F10102811381012E000C220B330B601B48
:102E6000710B820B930B693E73408105910508F449
:102E700047C00E94B80AF1017383628380E194E045
:102E800053DD84E194E050DD60E070E0CB018BDD48
:102E90008AE194E049DDC701B60185DD80E294E076
:102EA00043DD69817A818B819C817DDD86E294E0BE
:102EB0003BDD4AE06D817E818F819885F2DC8DE279
:102EC00094E032DD6AA17BA18CA19DA16CDD83E33E
:102ED00094E02ADDC501B40166DD89E394E024DDD8
:102EE0006E8D7F8D88A199A15EDD8FE394E01CDD5E
:102EF00080E497E019DDC3017EDD84EA94E014DD0F
:102F0000C30128960FB6F894DEBF0FBECDBFDF9188
:102F1000CF911F910F91FF90EF90DF90CF90BF90D6
:102F2000AF909F908F907F906F905F904F903F9069
:102F30002F900895C701B6010E94AF582B013C01A4
:102F40006AA17BA18CA19DA10E94AF589B01AC01FD
:102F5000C301B2010E949D5A2B013C016E8D7F8DF1
:102F600088A199A1681979098A099B090E94AF581B
:102F70009B01AC01C301B2010E940E592B013C011F
:102F8000C501B4010E94AF589B01AC01C301B2015D
:102F90000E94395A0E94055B3B0181E0F101E9582A
:102FA000FF4F808324CF89819A81AB81BC814AA065
:102FB0005BA06CA07DA084199509A609B709C81665
:102FC000D906EA06FB0654F46E8C7F8C22E0620E72
:102FD000711C81E0F101E758FF4FE3CF69817A81ED
:102FE0008B819C816C197D098E099F090E94AF58C5
:102FF0002B013C016AA17BA18CA19DA10E94AF582D
:103000009B01AC01C301B2010E949D5A2B013C01FE
:103010006E8D7F8D88A199A1681979098A099B090C
:103020000E94AF589B01AC01C301B2010E940E592E
:103030002B013C01C501B4010E94AF589B01AC01BA
:10304000C301B2010E94395A0E94055B3B0181E035
:10305000F101E858FF4FA5CF2F923F924F925F9218
:103060006F927F928F929F92AF92BF92CF92DF9298
:10307000EF92FF920F931F93CF93DF9300D01F9295
:10308000CDB7DEB79C838B83865B9F4F9A83898302
:10309000DC014D915D916D917C910B811C81025BF6
:1030A0001F4FF80180819181A281B381CB80DC80A8
:1030B000F2E5CF0ED11CF601F0802B813C812C581B
:1030C0003F4F5901EB81FC81EB58FF4F3F01FF203F
:1030D00009F441C0EB81FC8120ADF501208321E0A2
:1030E000F30120834115510561057105A1F420818B
:1030F000EB81FC81E559FF4F7F01EB81FC812223AD
:1031000009F451C084A095A0A6A0B7A0F7018082C1
:103110009182A282B3828B809C80F6E48F0E911CF8
:10312000F40120803180428053802B813C812D58D6
:103130003F4F5901281639064A065B06CCF5481759
:1031400059076A077B07F4F1D6018C9181113AC0C7
:10315000D5011C92C9C021E0481759076A077B07AF
:103160000CF020E0F50120831A012B0177FF07C046
:10317000222433242101241A350A460A570A4C0115
:103180005D01B7FF07C0882499245401881A990A61
:10319000AA0ABB0A21E0281439044A045B040CF093
:1031A0009FCF20E09DCF80A091A0A2A0B3A0AECFE2
:1031B00082159305A405B5053CF684179507A60767
:1031C000B70714F6F5018081882311F2D6018C919E
:1031D00081110FC0F60180818111BACFD3016C91AA
:1031E00081E068278B819C810E9494108111B0CF6F
:1031F00007C060E08B819C810E9494108111EACF0E
:10320000D801CD90DD90ED90FC90E981FA810081AC
:10321000118122813381D4014D915D916D917C9119
:10322000D301EC918B819C8185599F4F3C01E11129
:1032300027C0AB81BC8190968D909D90AD90BC9045
:1032400093979F96EC919F97EF939E96EC919E9704
:10325000EF939D96EC919D97EF939C96EC919C97A4
:10326000EF935B96EC915B97EF935A96EC915A979C
:10327000EF935996EC915997EF935896EC9124C09F
:10328000EB81FC8184A095A0A6A0B7A0E3A9EF9351
:10329000AB81BC81D296EC91D297EF93D196EC9111
:1032A000D197EF93D096EC91D097EF935F96EC91F6
:1032B0005F97EF935E96EC915E97EF935D96EC913E
:1032C0005D97EF935C96EC91EF938B819C8126DD6B
:1032D000B0E0A0E0F30180839183A283B3830FB6B3
:1032E000F894DEBF0FBECDBF60E08B819C810E9451
:1032F0009410882331F0E981FA81108211821282C0
:1033000013820F900F900F900F90DF91CF911F912C
:103310000F91FF90EF90DF90CF90BF90AF909F9074
:103320008F907F906F905F904F903F902F90089577
:103330004F925F926F927F928F929F92AF92BF92C5
:10334000CF92DF92EF92FF920F931F93CF936B0177
:103350007C01742EAC019B010E943A5B882391F0A2
:1033600085E494E0CF911F910F91FF90EF90DF9053
:10337000CF90BF90AF909F908F907F906F905F9015
:103380004F9082CA46015701E894B7F82FEF3FEFFC
:103390004FE75FE7C501B4010E943A5B81110DC0A0
:1033A0002FEF3FEF4FE75FE7C501B4010E94A95837
:1033B00018161CF489E494E0D5CF2FEF3FEF4FE7C8
:1033C0005FE4C701B6010E94365B18161CF48DE459
:1033D00094E0C8CF2FEF3FEF4FE75FECC701B60196
:1033E0000E94A95887FDF3CF20E030E0A901C70172
:1033F000B6010E94A95810E000E087FF08C08DE2E6
:103400000E940C098C01F7FAF094F7F8F094C0E0F0
:1034100060E070E080E09FE37C1641F020E030E067
:1034200040E251E40E949D5ACF5FF6CFA70196017A
:103430000E94395A2B013C010E940A5B4B015C013E
:103440004AE02FDA7C01E00EF11ECC23A9F1C50180
:10345000B4010E94AD589B01AC01C301B2010E94AE
:10346000385A4B015C018EE20E940C09E80EF91EED
:10347000C15010F120E030E040E251E4C501B40158
:103480000E940E592B013C010E940A5B4B01B12C9A
:10349000A12C4AE0C501B40104DAE80EF91EC50109
:1034A000B4010E94AD589B01AC01C301B2010E945E
:1034B000385A4B015C01DCCFC701CF911F910F91AE
:1034C000FF90EF90DF90CF90BF90AF909F908F9044
:1034D0007F906F905F904F9008958F929F92AF92E0
:1034E000BF92CF92DF92EF92FF920F931F93CF93F1
:1034F000DF93EC018CE492E017DA86E694E014DACC
:103500006E0186E4C81A8EEFD80AC6010E94EC0D3F
:103510000E94AF584B015C01FE01ED5EFC4F6081E3
:103520007181828193810E94AF589B01AC01C501DA
:10353000B4010E949D5A42E0FBDE86E794E0F4D994
:103540007E01E6E1EE1AEEEFFE0AC7010E94EC0DE5
:103550000E94AF584B015C01FE01E95EFC4F6081A7
:103560007181828193810E94AF589B01AC01C5019A
:10357000B4010E949D5A42E0DBDE86E894E0D4D993
:103580008E01065E1D4FC8010E94EC0D0E94AF58CF
:103590004B015C01C55EDC4F688179818A819B812A
:1035A0000E94AF589B01AC01C501B4010E949D5A15
:1035B00042E0BEDED9D824DA88E492E0B5D986E6C6
:1035C00094E0B2D9F601A68DB78D20893189428960
:1035D00053890E94015AE7D986E794E0A5D9F701FB
:1035E000A68DB78D20893189428953890E94015A5D
:1035F000DAD986E894E098D9F801A68DB78D2089AC
:103600003189428953890E94015ACDD9ADD8DF91C1
:10361000CF911F910F91FF90EF90DF90CF90BF90CF
:10362000AF909F908F90ECC9CF92DF92EF92FF9274
:10363000CF93DF93EC0188819981AA81BB81181611
:1036400019061A061B0644F081E090E0A0E0B0E005
:1036500088839983AA83BB838C819D81AE81BF813E
:10366000181619061A061B0644F081E090E0A0E047
:10367000B0E08C839D83AE83BF8388859985AA85BE
:10368000BB85181619061A061B0644F081E090E067
:10369000A0E0B0E088879987AA87BB8781E594E09E
:1036A00043D986E694E040D96E857F8588899989DB
:1036B0000E94AF586B017C01688179818A819B816E
:1036C0000E94AF589B01AC01C701B6010E949D5AF0
:1036D00042E02EDE86E794E027D96A897B898C89CF
:1036E0009D890E94AF586B017C016C817D818E8128
:1036F0009F810E94AF589B01AC01C701B6010E9497
:103700009D5A42E015DE86E894E00ED96E897F89E5
:10371000888D998D0E94AF586B017C0168857985F1
:103720008A859B850E94AF589B01AC01C701B601F9
:103730000E949D5A42E0FCDDCE01DF91CF91FF90C7
:10374000EF90DF90CF905CC90FD86EDF90E080E003
:103750000895CF92DF92EF92FF920F931F93CF9332
:10376000DF938C016A017B01EC01CC0FDD1F642F1C
:10377000CE010E94CD599927F7FC9A958F2D7E2D69
:103780006D2DCE0101960E94CD590D5811090330BF
:10379000110588F4B701992777FD9095892FCE01FF
:1037A00044960E94CD596F2D772788279927CE01FF
:1037B00045960E94CD5990E080E0DF91CF911F9116
:1037C0000F91FF90EF90DF90CF9008954F925F920E
:1037D0006F927F928F929F92AF92BF92CF92DF9221
:1037E000EF92FF920F931F93CF93DF938C01EC0125
:1037F000CC0FDD1FCE010E94C559882E912CB12C13
:10380000A12CCE0101960E94C559C82ED12CF12CB5
:10381000E12C0D5811090330110508F05AC0CE01F2
:1038200044960E94C559482E512C712C612CCE0112
:1038300045960E94C559082F10E030E020E08FEF38
:10384000481651046104710429F50F3F1105210543
:10385000310501F58FEF88169104A104B104C9F573
:103860008FEFC816D104E104F10499F56FEF7FEFF3
:10387000CB01DF91CF911F910F91FF90EF90DF90DF
:10388000CF90BF90AF909F908F907F906F905F9000
:103890004F90089500381105210531053CF7FE2CA5
:1038A000ED2CDC2CCC24C701B601680D791D8A1DD6
:1038B0009B1D320155244424640D751D861D971DE2
:1038C000302F222711270027600F711F821F931F9F
:1038D000D0CF00E010E09801412C512C320180E85B
:1038E000C816D104E104F104D4F2C0CFEF92FF92E4
:1038F0000F931F93CF93DF9380910709909108094D
:10390000892B51F586E090E00E9430537C0190E0D5
:1039100080E05CDF1616170654F1C7010E94780D8F
:10392000D0E0C0E0CE010E949207882369F0FE013A
:10393000EE0FFF1FEE0FFF1FEC5DF54F4081518131
:1039400062817381CE0105DF2196C639D10551F719
:10395000F0920809E09207098091070990910809FF
:10396000DF91CF911F910F91FF90EF90089583E029
:1039700090E02CDF613071058105910531F504E29D
:103980001AE0D0E0C0E0CE010E9492078823B1F097
:10399000CE011CDFF80160837183828393836F3FC4
:1039A0007F4F8F4F9F4F51F4CE010E94D001F801FD
:1039B0004081518162817381CE01CBDE21960C5F03
:1039C0001F4FC13ED105F9F6C3CFC7010E94780D44
:1039D000BFCFCF92DF92EF92FF920F931F93CF93BF
:1039E000DF937C016B018A01E90180DFF601EE0FB4
:1039F000FF1FEE0FFF1FEC5DF54F80819181F701F6
:103A00009183808373DF000F111F000F111FF801D6
:103A1000EC5DF54F81E040815181628173814130DD
:103A200051056105710509F080E0F70182875EDFCD
:103A3000CC0FDD1FCC0FDD1FCC5DD54F8881998168
:103A4000AA81BB81F70182839383A483B583168205
:103A5000178210861186DF91CF911F910F91FF90F1
:103A6000EF90DF90CF900895CF93DF93EC012AEC95
:103A700030E04BEC50E069EC70E0ABDF2EEC30E076
:103A80004FEC50E06DEC70E0CE010C96A2DF24ED1F
:103A900030E045ED50E063ED70E0CE01489699DFEF
:103AA00028ED30E049ED50E067ED70E0CE018496FE
:103AB00090DF2EED30E04FED50E06DED70E0CE0187
:103AC000C096DF91CF9185CFCF93DF9380910B0983
:103AD00090910C09892BA1F48CE390E00E94305363
:103AE000EC01198218821D861C86198E188E1DA263
:103AF0001CA219AA18AAB8DFD0930C09C0930B090D
:103B000080910B0990910C09DF91CF9108952F922C
:103B10003F924F925F926F927F928F929F92AF925D
:103B2000BF92CF92DF92EF92FF920F931F93CF93AA
:103B3000DF93EC01DBDEFE01E75BFC4F8091E00BE5
:103B40009091E10B91838083D1DEFE01E55BFC4F18
:103B50008091E40B9091E50B91838083C7DEFE0199
:103B6000E35BFC4F8091E80B9091E90B918380839C
:103B7000BDDE8E01015B1C4F6091080C7091090C39
:103B800080910A0C90910B0C0E94AF58F801608351
:103B9000718382839383AADE1E01FDEA2F1AFCEF54
:103BA0003F0A60910C0C70910D0C80910E0C90915D
:103BB0000F0C0E94AF58F10160837183828393835D
:103BC00095DE20E030E048EC52E4F801608171813C
:103BD000828193810E949D5A2B013C0120E030E0BC
:103BE00048EC52E4F10160817181828193810E94ED
:103BF0009D5A4B015C016091100C7091110C8091E9
:103C0000120C9091130C0E94AF5820E030E048EC69
:103C100052E40E949D5A6B017C012AE037ED43E299
:103C20005CE3C301B2010E94365B18160CF02BC195
:103C300020E030E046EC52E4C301B2010E94A958F2
:103C400087FD06C0412C512C56EC652E52E4752E92
:103C5000F80140825182628273822AE037ED43E2AA
:103C60005CE3C501B4010E94365B18160CF014C168
:103C700020E030E046EC52E4C501B4010E94A958AE
:103C800087FD06C0812C912C36ECA32E32E4B32E96
:103C9000F10180829182A282B3822AE037ED43E271
:103CA0005CE3C701B6010E94365B18160CF0FDC03C
:103CB00020E030E046EC52E4C701B6010E94A9586A
:103CC00087FD06C0C12CD12C96ECE92E92E4F92E8A
:103CD000FE01E95AFC4FC082D182E282F38206DE05
:103CE0008091C80B9091C90BFE01E25AFC4F918361
:103CF0008083FCDD8091CC0B9091CD0BFE01E05ACE
:103D0000FC4F91838083F2DD8091D00B9091D10B99
:103D1000FE01EE59FC4F91838083E8DD8091F00B2A
:103D20009091F10BA091F20BB091F30BFE01EC59C5
:103D3000FC4F80839183A283B383D8DD8091F40B01
:103D40009091F50BA091F60BB091F70BFE01E8599D
:103D5000FC4F80839183A283B383C8DD8091F80BED
:103D60009091F90BA091FA0BB091FB0BFE01E45975
:103D7000FC4F80839183A283B383B8DD8091180CBC
:103D80009091190CFE01E059FC4F91838083AEDDC8
:103D900080911C0C90911D0CFE01EE58FC4F9183FC
:103DA0008083A4DD8091200C9091210CFE01EC58C1
:103DB000FC4F918380839ADD8091300C9091310C7F
:103DC000FE01EA58FC4F9183808390DD8091340C92
:103DD0009091350CFE01E858FC4F9183808386DD7D
:103DE0008091380C9091390CFE01E658FC4F91837C
:103DF00080837CDD8091B80B9091B90BA091BA0BB8
:103E0000B091BB0BFE01E55AFC4F0197A105B1052E
:103E100009F054C081E0808369DD8091BC0B9091F2
:103E2000BD0BA091BE0BB091BF0BFE01E45AFC4F3D
:103E30000197A105B10509F043C081E0808356DDFB
:103E40008091C00B9091C10BA091C20BB091C30B9C
:103E5000C35ADC4F0197A105B105A1F581E0888324
:103E6000DF91CF911F910F91FF90EF90DF90CF9056
:103E7000BF90AF909F908F907F906F905F904F908A
:103E80003F902F9008954AE0442E47ED542E43E290
:103E9000642E4CE3742EDCCE2AE0822E27ED922E87
:103EA00023E2A22E2CE3B22EF3CE8AE0C82E87EDB9
:103EB000D82E83E2E82E8CE3F82E0ACF1082ACCF06
:103EC0001082BDCF1882CCCF2F923F924F925F923B
:103ED0006F927F928F929F92AF92BF92CF92DF921A
:103EE000EF92FF920F931F93CF93DF93CDB7DEB77F
:103EF0006F970FB6F894DEBF0FBECDBF9B8F8A8F32
:103F0000F5DCEA8DFB8DEB59FD4F81E04091F00A25
:103F10005091F10A6091F20A7091F30A452B462BF9
:103F2000472B09F480E08083E1DCEA8DFB8DEA59C0
:103F3000FD4F81E04091F40A5091F50A6091F60A34
:103F40007091F70A452B462B472B09F480E08083BC
:103F5000CDDCEA8DFB8DE959FD4F81E04091F80AF7
:103F60005091F90A6091FA0A7091FB0A452B462B91
:103F7000472B09F480E08083B9DC8091400B90915D
:103F8000410BA091420BB091430BEA8DFB8DE85998
:103F9000FD4F80839183A283B383A8DC8091440B7F
:103FA0009091450BA091460BB091470BEA8DFB8D8C
:103FB000E459FD4F80839183A283B38397DC809182
:103FC000480B9091490BA0914A0BB0914B0BEA8D95
:103FD000FB8DE059FD4F80839183A283B38386DC00
:103FE0008091400B9091410BA091420BB091430BFB
:103FF000EA8DFB8DEC58FD4F80839183A283B383C0
:1040000075DC8091440B9091450BA091460BB091CB
:10401000470BEA8DFB8DE858FD4F80839183A28387
:10402000B38364DC80914C0B90914D0BA0914E0BAF
:10403000B0914F0BEA8DFB8DE458FD4F8083918347
:10404000A283B38353DC8091180B9091190BA0913C
:104050001A0BB0911B0BEA8DFB8DE457FD4F80834B
:104060009183A283B38342DC80911C0B90911D0B42
:10407000A0911E0BB0911F0BEA8DFB8DE057FD4FF9
:1040800080839183A283B38331DC8091200B909154
:10409000210BA091220BB091230BEA8DFB8DEC56E6
:1040A000FD4F80839183A283B38320DC8091180B22
:1040B0009091190BA0911A0BB0911B0BEA8DFB8DFF
:1040C000E856FD4F80839183A283B3830FDC8091F8
:1040D0001C0B90911D0BA0911E0BB0911F0BEA8D34
:1040E000FB8DE456FD4F80839183A283B383FEDB77
:1040F0008091240B9091250BA091260BB091270B5A
:10410000EA8DFB8DE056FD4F80839183A283B383BC
:10411000EDDB8091280B9091290BA0912A0BB09197
:104120002B0BEA8DFB8DEC55FD4F80839183A28391
:10413000B383DCDB80912C0B90912D0BA0912E0B87
:10414000B0912F0BEA8DFB8DE855FD4F8083918355
:10415000A283B383CBDB8091300B9091310BA09184
:10416000320BB091330BEA8DFB8DE455FD4F80830C
:104170009183A283B383BADB8091C80A9091C90A64
:10418000A091CA0AB091CB0AEA8DFB8DE055FD4F94
:1041900080839183A283B383A9DB8091CC0A909121
:1041A000CD0AA091CE0AB091CF0AEA8DFB8DEC54D6
:1041B000FD4F80839183A283B38398DB8091D00AE3
:1041C0009091D10AA091D20AB091D30AEA8DFB8DC9
:1041D000E854FD4F80839183A283B38387DB809172
:1041E000C80A9091C90AA091CA0AB091CB0AEA8D77
:1041F000FB8DE454FD4F80839183A283B38376DBF0
:104200008091CC0A9091CD0AA091CE0AB091CF0AAC
:10421000EA8DFB8DE054FD4F80839183A283B383AD
:1042200065DB8091D40A9091D50AA091D60AB0910D
:10423000D70AEA8DFB8DEC53FD4F80839183A283D7
:10424000B38354DBEA8DFB8DE853FD4F81E0209171
:10425000A00A3091A10A2130310509F080E0808365
:1042600045DBEA8DFB8DE753FD4F81E02091A40AE9
:104270003091A50A2130310509F080E0808336DBDA
:10428000EA8DFB8DE653FD4F81E02091A80A309125
:10429000A90A2130310509F080E0808327DBEA8D0F
:1042A000FB8DE250FD4F81E04091780A5091790AF0
:1042B00060917A0A70917B0A452B462B472B09F4B3
:1042C00080E0808313DBEA8DFB8DE150FD4F81E0C0
:1042D00040917C0A50917D0A60917E0A70917F0A1C
:1042E000452B462B472B09F480E08083FFDAEA8DCB
:1042F000FB8DFD5F81E04091800A5091810A6091C1
:10430000820A7091830A452B462B472B09F480E0E3
:104310008083ECDAEA8DFB8DEF5FFC4F81E040910A
:10432000500B5091510B6091520B7091530B452BD8
:10433000462B472B09F480E08083D8DAEA8DFB8D89
:10434000EE5FFC4F81E04091540B5091550B609112
:10435000560B7091570B452B462B472B09F480E0E9
:104360008083C4DAEA8DFB8DED5FFC4F81E04091E4
:10437000580B5091590B60915A0B70915B0B452B68
:10438000462B472B09F480E08083B0DAEA8DFB8D61
:10439000EC5FFC4F81E02091880A3091890A21303E
:1043A000310509F080E08083A1DAEA8DFB8DEB5FB7
:1043B000FC4F81E020918C0A30918D0A213031052B
:1043C00009F080E0808392DAEA8DFB8DEA5FFC4F92
:1043D00081E02091900A3091910A2130310509F055
:1043E00080E0808383DA8091500A9091510AA091F5
:1043F000520AB091530AEA8DFB8DE95FFC4F80832E
:104400009183A283B38372DA8091540A9091550A02
:10441000A091560AB091570AEA8DFB8DE55FFC4FDB
:1044200080839183A283B38361DA8091580A90914B
:10443000590AA0915A0AB0915B0AEA8DFB8DE15F9F
:10444000FC4F80839183A283B38350DAEA8DFB8D86
:10445000EE50FD4F81E04091600A5091610A6091F9
:10446000620A7091630A452B462B472B09F480E0C2
:1044700080833CDAEA8DFB8DED50FD4F81E0409169
:10448000640A5091650A6091660A7091670A452B2B
:10449000462B472B09F480E0808328DAEA8DFB8DD8
:1044A000EC50FD4F81E04091680A5091690A60919B
:1044B0006A0A70916B0A452B462B472B09F480E062
:1044C000808314DA8091580C9091590CA0915A0C69
:1044D000B0915B0CEA8DFB8DE553FD4F808391839A
:1044E000A283B38303DA80915C0C90915D0CA09160
:1044F0005E0CB0915F0CEA8DFB8DE153FD4F808324
:104500009183A283B383F2D98091600C9091610C66
:10451000A091620CB091630CEA8DFB8DED52FD4FC2
:1045200080839183A283B383E1D9EA8DFB8DEB5025
:10453000FD4F81E02091B80A3091B90A2130310550
:1045400009F080E08083EA8DFB8DEA50FD4F1082F8
:10455000EA8DFB8DE950FD4F1082C8D9EA8DFB8DA5
:10456000E850FD4F81E02091B40A3091B50A213026
:10457000310509F080E08083EA8DFB8DE750FD4F27
:104580001082EA8DFB8DE650FD4F1082AFD9EA8D87
:10459000FB8DE550FD4F81E02091D80A3091D90A7A
:1045A0002130310509F080E08083A0D9EA8DFB8DB0
:1045B000E450FD4F81E02091DC0A3091DD0A21308A
:1045C000310509F080E0808391D9EA8DFB8DE350BD
:1045D000FD4F81E02091E00A3091E10A2130310560
:1045E00009F080E0808382D9EA8DFB8DE952FD4F8E
:1045F00081E02091680C3091690C2130310509F07F
:1046000080E0808373D9EA8DFB8DE852FD4F81E015
:1046100020916C0C30916D0C2130310509F080E057
:10462000808364D9EA8DFB8DE752FD4F81E02091B4
:10463000700C3091710C2130310509F080E08083DD
:1046400055D98091A80C9091A90CA091AA0CB09179
:10465000AB0CEA8DFB8DE652FD4F80839183A283E4
:10466000B38344D98091AC0C9091AD0CA091AE0C69
:10467000B091AF0CEA8DFB8DE252FD4F80839183A8
:10468000A283B38333D98091B00C9091B10CA091E7
:10469000B20CB091B30CEA8DFB8DEE51FD4F8083CF
:1046A0009183A283B38322D98091D80C9091D90CA5
:1046B000A091DA0CB091DB0CEA8DFB8DEA51FD4F35
:1046C00080839183A283B38311D98091D80C909178
:1046D000D90CA091DA0CB091DB0CEA8DFB8DE65180
:1046E000FD4F80839183A283B38300D98091D80C3E
:1046F0009091D90CA091DA0CB091DB0CEA8DFB8D76
:10470000E251FD4F80839183A283B383EFD80A8D5A
:104710001B8D0D5E1C4F8091000B9091010BA091A1
:10472000020BB091030BF80180839183A283B383C2
:10473000DDD8EA8CFB8CF9EEEF1AFCEFFF0A8091D2
:10474000040B9091050BA091060BB091070BF7019C
:1047500080839183A283B383C9D88091080B909101
:10476000090BA0910A0BB0910B0BCA8CDB8CF5EEF8
:10477000CF1AFCEFDF0AF60180839183A283B38313
:10478000F801408151816281738114161506160665
:10479000170644F041E050E060E070E04083518350
:1047A00062837383F70140815181628173811416A2
:1047B00015061606170644F041E050E060E070E090
:1047C0004083518362837383181619061A061B06E9
:1047D0004CF081E090E0A0E0B0E0F60180839183AE
:1047E000A283B3830E94B413FC01D6018D909D90E7
:1047F000AD90BC90D7014D915D916D917C91D801A8
:104800000D911D912D913C9100831183228333835F
:10481000448355836683778380869186A286B38698
:10482000EA8DFB8D7096FA83E983EA8DFB8DE95260
:10483000FD4F80808B82EA8DFB8DE553FD4F4081DB
:10484000518162817381EA8DFB8DE550FD4F90802F
:104850009D82EA8DFB8DEC5FFC4FA080AC82EA8DDF
:10486000FB8DEB50FD4FB080B986EA8DFB8DE85093
:10487000FD4F20812A87EA8DFB8DEF5FFC4F808101
:104880008E87EA8DFB8DE250FD4F90819A8BEA8DE9
:10489000FB8DE853FD4F2080EA8DFB8DEB59FD4FDA
:1048A0003080EA8DFB8DE95FFC4F00811181228110
:1048B0003381EA8DFB8DE055FD4F80819181A2818E
:1048C000B381EA8DFB8DEC55FD4FC080D180E28035
:1048D000F380EA8DFB8DE457FD4F80809180A280AC
:1048E000B380EA8DFB8DE859FD4F40805180628096
:1048F0007380EA8DFB8D40A651A662A673A680AA9E
:1049000091AAA2AAB3AA84AF95AFA6AFB7AF44A6A7
:1049100055A666A677A684AA95AAA6AAB7AAE05C19
:10492000FF4F80839183A283B383AA8DBB8DD896DA
:10493000CD92DD92ED92FC92DB97FD01EC5BFF4F97
:104940000083118322833383349630823196208210
:10495000EA899596EC939597FE859696FC939697A3
:104960008C8097968C9280E490E0A0E0B0E0EA8D95
:10497000FB8DE45BFF4F80839183A283B383EA8D39
:10498000FB8DE65BFF4F9A849082EA8DFB8DE55BA1
:10499000FF4FA984A082EA8DFB8DE05BFF4FBD80B5
:1049A000B082EA8DFB8DEF5AFF4F408351836283C3
:1049B0007383EA8DFB8DEB5AFF4F2B812083AA8DE9
:1049C000BB8D55968D919C9156978633910509F034
:1049D00096C28AE39FE0FD01E257FF4F91838083F7
:1049E0003296118210828CE39FE036969183808309
:1049F000329611821082EA8DFB8D838D948D4A97B9
:104A0000D1F48EE49FE0EE56FF4F91838083EA8DD0
:104A1000FB8DEC56FF4F1182108280E59FE0EA8DFE
:104A2000FB8DE656FF4F91838083EA8DFB8DE45624
:104A3000FF4F118210820A8D1B8D02561F4FEA8D87
:104A4000FB8DE852FD4F80808B82EA8DFB8DE15318
:104A5000FD4F80819181A281B3818D839E83AF833D
:104A6000B887EA8DFB8DE450FD4F90819C83EA8DE1
:104A7000FB8DEB5FFC4FA081A987EA8DFB8DEA508F
:104A8000FD4FB081BA87EA8DFB8DE750FD4F8080E6
:104A90008E86EA8DFB8DEE5FFC4F2080EA8DFB8DCC
:104AA000E150FD4F3080EA8DFB8DE753FD4F3081A3
:104AB000EA8DFB8DEA59FD4F2081EA8DFB8DE55F84
:104AC000FC4FC080D180E280F380EA8DFB8DEC54F6
:104AD000FD4F80819181A281B381EA8DFB8DE855E4
:104AE000FD4F80809180A280B380EA8DFB8DE057DE
:104AF000FD4F4081518162817381EA8DFB8DE459C4
:104B0000FD4F4080518062807380F801408E518E4D
:104B1000628E738E40A351A362A373A384A795A74B
:104B2000A6A7B7A7448E558E668E778E44A355A34D
:104B300066A377A380AB91ABA2ABB3AB80A691A6E3
:104B4000A2A6B3A6C4AAD5AAE6AAF7AA20AF31AFF7
:104B5000358A268A8984878A80E490E0A0E0B0E0E4
:104B600084AF95AFA6AFB7AF8E8482AE9A8493AE72
:104B7000EA8DFB8DE252FF4FAC80A082EA8DFB8D67
:104B8000E152FF4F8D819E81AF81B88580839183F3
:104B9000A283B383EA8DFB8DED51FF4F9B81908300
:104BA000D80115968D919C918633910509F0D9C154
:104BB0008AE39FE0EA8DFB8DE45EFE4F9183808364
:104BC000EA8DFB8DE25EFE4F118210828CE39FE046
:104BD000EA8DFB8DEC5DFE4F91838083EA8DFB8D2A
:104BE000EA5DFE4F11821082F801838594854A9711
:104BF000E1F48EE49FE0EA8DFB8DE05EFE4F918351
:104C00008083EA8DFB8DEE5DFE4F1182108280E580
:104C10009FE0EA8DFB8DE85DFE4F91838083EA8DF6
:104C2000FB8DE65DFE4F11821082EA8CFB8CF4ED69
:104C3000EF1AFEEFFF0AEA8DFB8DE752FD4F8080F1
:104C40008B82EA8DFB8DED52FD4F80819181A28197
:104C5000B3818D839E83AF83B887EA8DFB8DE3504C
:104C6000FD4F90819C83EA8DFB8DEA5FFC4F308085
:104C7000EA8DFB8DE950FD4FA081A987EA8DFB8D60
:104C8000E650FD4F2080EA8DFB8DED5FFC4FC0802C
:104C9000EA8DFB8DFD5FD080EA8DFB8DE653FD4FE5
:104CA0003081EA8DFB8DE959FD4F2081EA8DFB8D26
:104CB000E15FFC4F80809180A280B3808A869B86D2
:104CC000AC86BD86EA8DFB8DEC53FD4F80819181D2
:104CD000A281B3818E879F87A88BB98BEA8DFB8DCC
:104CE000E854FD4F80809180A280B3808C8E9D8E91
:104CF000AE8EBF8EEA8DFB8DE455FD4F8081918194
:104D0000A281B3818A8B9B8BAC8BBD8BEA8DFB8D93
:104D1000E056FD4F80819181A281B381EA8DFB8DA8
:104D2000EC56FD4F4080518062807380EA8DFB8D90
:104D3000E458FD4F4081518162817381EA8DFB8D82
:104D4000E059FD4F80809180A280B380F701808E72
:104D5000918EA28EB38E40A251A262A273A28C8CBD
:104D60009D8CAE8CBF8C84A695A6A6A6B7A6448FB4
:104D7000558F668F778F84A395A3A6A3B7A38E8440
:104D80009F84A888B98880AA91AAA2AAB3AA8A886F
:104D90009B88AC88BD8880A691A6A2A6B3A68A846B
:104DA0009B84AC84BD8484AA95AAA6AAB7AA20AF86
:104DB00031AFD58AC68A378A80E490E0A0E0B0E0BF
:104DC00084AF95AFA6AFB7AF22AE898483AEEA8D2C
:104DD000FB8DE459FE4F9C809082EA8DFB8DE35958
:104DE000FE4F8D819E81AF81B88580839183A283A0
:104DF000B383EA8DFB8DEF58FE4F9B819083D701E3
:104E000015968D919C918633910509F0D2C08AE365
:104E10009FE0EA8DFB8DE655FE4F91838083EA8DFE
:104E2000FB8DE455FE4F118210828CE39FE0EA8DEA
:104E3000FB8DEE54FE4F91838083EA8DFB8DEC5405
:104E4000FE4F11821082F701838594854A97E1F421
:104E50008EE49FE0EA8DFB8DE255FE4F91838083C7
:104E6000EA8DFB8DE055FE4F1182108280E59FE0B8
:104E7000EA8DFB8DEA54FE4F91838083EA8DFB8D92
:104E8000E854FE4F11821082EA8DFB8DEE50FD4FEB
:104E90008081882309F4B5C089819A810E9401101C
:104EA000EA8DFB8DED50FD4F8081882309F4AEC063
:104EB000C8010E9401108A8D9B8D8C509D4FDC0192
:104EC0008C91882309F4A6C0C7016F960FB6F89499
:104ED000DEBF0FBECDBFDF91CF911F910F91FF902D
:104EE000EF90DF90CF90BF90AF909F908F907F908A
:104EF0006F905F904F903F902F900C9401108C33E7
:104F00009105D9F48EE39FE0EA8DFB8DE257FF4FC8
:104F100091838083EA8DFB8DE057FF4F11821082D1
:104F200080E49FE0EA8DFB8DEA56FF4F91838083FA
:104F3000EA8DFB8DE856FF4F5CCD8E9709F05BCD77
:104F400082E49FE0EA8DFB8DE257FF4F91838083DF
:104F5000EA8DFB8DE057FF4F1182108288E49FE0BD
:104F6000E1CF8C33910589F48EE39FE0EA8DFB8DD0
:104F7000E45EFE4F91838083EA8DFB8DE25EFE4FFF
:104F80001182108280E49FE023CE8E9709F02CCE10
:104F900082E49FE0EA8DFB8DE45EFE4F9183808387
:104FA000EA8DFB8DE25EFE4F1182108288E49FE065
:104FB0000FCE8C33910589F48EE39FE0EA8DFB8D53
:104FC000E655FE4F91838083EA8DFB8DE455FE4FBD
:104FD0001182108280E49FE02ACF8E9709F033CFB0
:104FE00082E49FE0EA8DFB8DE655FE4F918380833E
:104FF000EA8DFB8DE455FE4F1182108288E49FE01C
:1050000016CF89819A810E94C50F4ACFC8010E949C
:10501000C50F51CFC7016F960FB6F894DEBF0FBE14
:10502000CDBFDF91CF911F910F91FF90EF90DF9057
:10503000CF90BF90AF909F908F907F906F905F9038
:105040004F903F902F900C94C50FAF92BF92CF928C
:10505000DF92EF92FF920F931F93CF93DF93EC01B8
:1050600086E390E09E8B8D8B87E390E0988F8F8B0B
:1050700086E290E09A8F898F8AE190E09C8F8B8FF7
:105080008CE190E09E8F8D8F88E190E098A38F8FC8
:1050900083E090E09AA389A382E090E09CA38BA395
:1050A000FE01E256FF4F8CE390E0968385838DE30B
:1050B00090E09087878388E390E0928781871486C9
:1050C000138616861586108A17868EE090E0928BDE
:1050D000818B8FE090E0948B838BE257FF4F8EE2C1
:1050E00090E09683858380E390E0908787838EE3CA
:1050F00090E0928781871486138616861586108A1B
:10510000178682E190E0928B818B83E190E0948B13
:10511000838BED5CFE4F11821082329611821082D9
:10512000329611821082CE010E94641FCE010E942D
:10513000871D6E0186E4C81A8EEFD80AAA24A394AC
:10514000B12CF601B7A6A6A67E01F6E1EF1AFEEF96
:10515000FF0A84E090E0F70197A786A78E01065E1C
:105160001D4F88E090E0F80197A786A780E190E0C6
:10517000F6019183808381E190E0958384838FE1C0
:1051800090E09383828381E290E097838683C601D7
:105190000E948A0DF601828580878385818787E159
:1051A00090E0F7019183808389E190E09583848387
:1051B00083E290E09383828385E290E09783868305
:1051C000C7010E948A0DF7018285808783858187C8
:1051D0008BE190E0F801918380838DE190E09583ED
:1051E000848387E290E09383828389E290E09783CF
:1051F0008683C8010E948A0DF80182858087838595
:105200008187E45AFE4F808191817297408151815C
:1052100062817381369720813181F601358F248F29
:10522000448B558B668B778B019709F044C08FEFC9
:105230009FEF978F868FFE01E858FC4F8081918108
:1052400070974081518162817381389720813181CB
:10525000F701358F248F448B558B668B778B0197A5
:1052600069F58FEF9FEF978F868FFE01E658FC4F11
:10527000808191813E974081518162817381CE59B5
:10528000DC4F28813981F801358F248F448B558B71
:10529000668B778B0197A9F48FEF9FEF978F868F9F
:1052A000DF91CF911F910F91FF90EF90DF90CF9002
:1052B000BF90AF900895B78EA68EBDCF81E090E0ED
:1052C000D2CF81E090E0EACF8F929F92AF92BF92CF
:1052D000CF92DF92EF92FF92CF93DF937B010E94F8
:1052E000761CEC01F70182A093A0A4A0B5A0C68C07
:1052F000D78CE0A0F1A08A819B818F30F7E29F07D5
:105300000CF043C001969B838A838C819D818F30F2
:1053100027E29207ECF596012B7F215531092330C6
:10532000310530F096012B5531092330310518F441
:1053300001969D838C83C6010E949207882359F1B0
:10534000F601EE0FFF1FEE0FFF1FEC5DF54F8082A1
:105350009182A282B382B501A401C6010E94A91B59
:10536000B601CE010E94DF150E94641D0E94341D0B
:1053700090E080E0DF91CF91FF90EF90DF90CF90B1
:10538000BF90AF909F908F9008951B821A82BDCFDF
:105390001D821C82D0CF8BEB93E00E949414E4CF4B
:1053A000CF93DF93EB010E94761C6E8D7F8D0E9460
:1053B000DF1590E080E0DF91CF9108950E94761C88
:1053C0000E94191685E594E00E9494140E94B4137B
:1053D0000E94001590E080E008950F931F93CF93F3
:1053E000DF93EC0188819981009759F02A813B81F4
:1053F0002617370730F081E0DF91CF911F910F9191
:1054000008958B016F5F7F4F0E94885B009759F072
:10541000998388831B830A832C813D81232B59F731
:10542000FC011082E8CF80E0E7CF0F931F93CF936A
:10543000DF93EC018B01D1DF28813981811112C00A
:105440002115310519F0C9010E94CC531982188227
:105450001D821C821B821A82CE01DF91CF911F9187
:105460000F9108951D830C8366EA74E0C9010E94C0
:105470007A5CF2CFCF93DF93FC01E25BFD4F40817A
:1054800051814115510501F1EC01CE5ADD4F2881C2
:105490003981865B9D4F24173507E8F4FC01808134
:1054A00091810097A1F0820F931FFC0180818A30C7
:1054B00031F08D3069F484EA94E00E94941488817C
:1054C0009981019699838883DF91CF91089580E037
:1054D0000E940C09F4CF70E060E0A7DF1982188207
:1054E000F3CF0F931F93CF93DF93EC018C01025BFB
:1054F0001D4FF80180819181892B19F0CE01BADF0F
:10550000F8CFDF91CF911F910F9108952F923F9285
:105510004F925F926F927F928F929F92AF92BF92C3
:10552000CF92DF92EF92FF920F931F93CF93DF936F
:10553000CDB7DEB7CE58D1090FB6F894DEBF0FBE97
:10554000CDBF8C01FC011082118212821382148261
:10555000158216821782108611861286138614868B
:105560001586168617864C01F0E18F0E911CC4013A
:105570000E94F71168018EE9C80ED11CC6010E9475
:10558000F7117801E4EDEE1AEEEFFE0AC7010E9472
:10559000F7115801F6E4AF1AFEEFBF0AC5010E94E9
:1055A0004E0E380186E1681A8EEF780AC3010E9418
:1055B0004E0E2801E6EE4E1AEDEF5E0AC2010E9481
:1055C0004E0EF801E65BFD4F1182108213821282AB
:1055D0001582148270E060E0CF0127DFF801E05B04
:1055E000FD4F118210823296118210823296118202
:1055F00010823296118210823296108211821282AB
:105600001382349610823196108231961082319630
:10561000118210823296118210823296118210828B
:105620003296108231961082319610823196108215
:105630001182128213823496108211821282138296
:105640003496108211821282138234961082118253
:10565000128213823496108211821282138234963F
:105660001082118212821382349610821182128269
:105670001382349610821182128213823496108221
:105680001182128213823496108211821282138246
:105690003496108211821282138234961082118203
:1056A00012821382349610821182128213823496EF
:1056B0001082118212821382349610821182128219
:1056C00013823496108211821282138234961082D1
:1056D00011821282138234961082118212821382F6
:1056E00034961082118212821382349610821182B3
:1056F000128213823496108211821282138234969F
:1057000010821182128213823496108211821282C8
:105710001382349610821182128213823496108280
:105720003196108231961082319610821182128247
:105730001382349610821182128213823496108260
:105740001182128213823496108231961082319621
:105750001082D801A652BD4F8CE0E7E1F2E0019043
:105760000D928A95E1F7D801AA51BD4F8CE0E3E292
:10577000F2E001900D928A95E1F7F801EE50FD4FAD
:1057800010823196108231961082319610823196B5
:1057900010823196108231961082319610823196A5
:1057A0001082319610823196108231961082319695
:1057B0001082319610823196108231961082319685
:1057C0001082319610823196108231961082319675
:1057D00010823196108211821282138234961082C6
:1057E00011821282138234961082118212821382E5
:1057F000D801AD5EBC4F8CE0EFE2F2E001900D927B
:105800008A95E1F7F801E15EFC4F10821182128265
:10581000138234961082118212821382349610827F
:105820001182128213823496118210823296118272
:105830001082329611821082329610821182128268
:10584000138234961082118212821382349610824F
:105850001182128213823496108211821282138274
:105860003496108211821282138234961082118231
:105870001282138234961182108232961182108223
:105880003296118210823296108211821282138215
:105890003496108211821282138234961082118201
:1058A00012821382349610823196108231961082C1
:1058B00031961182108232961182108232961182B4
:1058C00010823296108211821282138234961082D4
:1058D00011821282138234961082118212821382F4
:1058E0003496118210823296118210823296118281
:1058F0001082329611821082329611821082329674
:105900001182108232961182108232961182108298
:105910001801F0E82F1AFCEF3F0AF10110823196CE
:1059200011821082329611821082CE0101960E945D
:10593000F7118EE8FE013196D40101900D928A95FF
:10594000E1F7CE0101960E94F7118EE8FE01319633
:10595000D60101900D928A95E1F7CE0101960E9441
:10596000F7118EE8FE013196D70101900D928A95CC
:10597000E1F788E5F801808B89E5F60180838AE507
:10598000F7018083CE0101960E944E0E80E3FE0156
:105990003196D50101900D928A95E1F7CE010196DD
:1059A0000E944E0E80E3FE013196D30101900D92CC
:1059B0008A95E1F7CE0101960E944E0E80E3FE012A
:1059C0003196D20101900D928A95E1F7C8013DDB35
:1059D000F1011082C257DF4F0FB6F894DEBF0FBE41
:1059E000CDBFDF91CF911F910F91FF90EF90DF908E
:1059F000CF90BF90AF909F908F907F906F905F906F
:105A00004F903F902F900895CF93DF938091050999
:105A100090910609892B51F485E893E00E94305358
:105A2000EC0174DDD0930609C09305098091050946
:105A300090910609DF91CF9108950F93CF93DF9353
:105A400080910409811159C081E080930409DCDF51
:105A5000EC0106B126B14091000160910001029570
:105A6000017026FB222720F94170669561708654EB
:105A70009E4F0E94BD0D06B126B140B160B10170CC
:105A800022FB222720F943FB442740F966956170E9
:105A9000CE0186519E4F0E94BD0D02B322B340B18C
:105AA00060B1017022FB222720F9441F4427441FC4
:105AB00065FB662760F9CE01865E9D4F0E94BD0D95
:105AC000CE0140960E94C311CE0182569F4F0E9484
:105AD000C311CE01845D9E4F0E94C311C85ADD4F91
