:100000009EC10000CDC10000CBC10000C9C10000ED
:10001000C7C10000C5C10000C3C10000C1C10000CC
:10002000BFC10000BDC10000BBC10000B9C10000DC
:10003000B7C10000B5C10000B3C10000B1C10000EC
:10004000AFC100000C94634DABC10000A9C100001A
:100050000C94914DA5C10000A3C100000C948F4CDD
:100060009FC100000C94594C0C942F4C99C1000076
:1000700097C1000095C1000093C1000091C100002C
:100080000C94354D8DC100008BC1000089C100006A
:1000900087C1000085C1000083C1000081C100004C
:1000A0007FC100007DC100000C94074D79C10000A4
:1000B00077C1000075C1000073C100000C94D94CD9
:1000C0006FC100006DC100006BC1000069C100007C
:1000D00067C1000065C1000063C1000061C100008C
:1000E0005FC100004E414E494E495459494E46CDDC
:1000F000CCCC3D0AD7233C17B7D13877CC2B3295DF
:1001000095E6241FB14F0A000020410000C84200BC
:10011000401C4620BCBE4CCA1B0E5AAEC59D740086
:10012000407A10F35A00A0724E18090010A5D4E8C6
:100130000000E87648170000E40B54020000CA9A59
:100140003B000000E1F505000080969800000040AB
:10015000420F000000A086010000001027000000F0
:1001600000E803000000006400000000000A000036
:100170000000000100000000002C76D888DC674FEA
:100180000823DFC1DFAE59E1B1B796E5E3E453C61A
:100190003AE651997696E8E6C28426EB898C9B6212
:1001A000ED407C6FFCEFBC9C9F40F2BAA56FA5F4BC
:1001B00090055A2AF75C936B6CF9676DC11BFCE0E4
:1001C000E40D47FEF520E6B500D0ED902E03009437
:1001D0003577050080841E080000204E0A000000CC
:1001E000C80C333333330F986E12831141EF8D21D6
:1001F00014893BE65516CFFEE6DB18D1844B381B3D
:10020000F77C1D901DA4BBE424203284725E228101
:1002100000C9F124ECA1E53D2700002200250028BB
:10022000002B002E003100340002010000050108FF
:10023000010B01000020002300260029002C002FC4
:100240000032000001000003010601090100000A5C
:100250000B02090C0D0E080703040100000000004A
:10026000000000000000000000000000000000008E
:10027000000000000000000000121110000000004B
:10028000000000000000000000000000000000006E
:1002900000000000002100240027002A002D00306B
:1002A00000330001010000040107010A01010210EE
:1002B0002020080810204010204080020102010880
:1002C0000402010102040810204080804020100830
:1002D0000402018004020180402010080402010889
:1002E00004020101020408102040800102040810E9
:1002F00020408005050505070508080808020202D8
:10030000020A0A08080404040401010101010101B0
:10031000010303030303030303040707070C0C0C87
:100320000C0C0C0C0C02020202060606060606065F
:10033000060B0B0B0B0B0B0B0B00DB4D635B112444
:100340001FBECFEFD1E2DEBFCDBF00E00CBF19E092
:10035000A0E0B2E0E4ECFCEC00E00BBF02C00790D0
:100360000D92A23AB107D9F725E1A2EAB9E001C09E
:100370001D92AF38B207E1F711E0CEE9D1E000E01D
:1003800006C021970109802FFE010E943C65CD39EE
:10039000D10780E00807A9F70E94CC4F0C94516662
:1003A0002FCE9C01803E910508F0B1C5FC01882745
:1003B000E352FE4F8F4F0C943C65BD02CA02D3023C
:1003C000DC02E902F20287078707870787078707AA
:1003D000FF020C031903870726032F033803450385
:1003E0004E03570360036903720387077B0384038B
:1003F0008D0387078707870796039F03A80387074F
:100400008707B103BE03870787078707CB03D80396
:10041000E503F203FF030804110487078707870732
:100420001A0423042C04870739044604530487075D
:100430008707870760046D047A0487049404A10485
:10044000AE04870787078707BB04C804D504E20406
:10045000EF04F80401058707870787078E059B05CA
:10046000A8058707B505C205CF0587078707870752
:10047000DC05E505EE0587078707870787078707F8
:1004800087078707F70500060906870712061B0678
:1004900024068707870787072D063A06470687073A
:1004A000540661066E068707870787077B0688065E
:1004B00095068707A206AB06B40687078707870756
:1004C000BD06C606CF068707870787078707870702
:1004D0008707870787078707870787070A051305A1
:1004E0001C05870787078707870787078707870709
:1004F0008707870787078707870787072505320547
:100500003F05870773057C058505870787078707EC
:100510004C055905660587078707870787078707FB
:10052000870787078707870787078707870787075B
:10053000870787078707870787078707870787074B
:10054000870787078707870787078707D806E10692
:10055000EE068707FB06040711078707870787074B
:100560001E0727073407870741074A0757078707EA
:100570008707870764076D077A0781E090E0A0E0AE
:10058000B0E08093C60A9093C70AA093C80AB093BC
:10059000C90A08951092CA0A1092CB0A1092CC0A86
:1005A0001092CD0A08951092CE0A1092CF0A10929E
:1005B000D00A1092D10A089581E090E0A0E0B0E066
:1005C0008093D20A9093D30AA093D40AB093D50A09
:1005D00008951092D60A1092D70A1092D80A109253
:1005E000D90A089583E090E0A0E0B0E08093DA0AB1
:1005F0009093DB0AA093DC0AB093DD0A089588E7A4
:1006000090E0A0E0B0E08093F20A9093F30AA09308
:10061000F40AB093F50A089588E790E0A0E0B0E00E
:100620008093F60A9093F70AA093F80AB093F90A18
:10063000089588E790E0A0E0B0E08093FA0A9093F4
:10064000FB0AA093FC0AB093FD0A08951092020BD6
:100650001092030B1092040B1092050B0895109248
:10066000060B1092070B1092080B1092090B0895BD
:1006700081E090E0A0E0B0E080930A0B90930B0B38
:10068000A0930C0BB0930D0B089510920E0B1092CB
:100690000F0B1092100B1092110B08951092120B69
:1006A0001092130B1092140B1092150B08951092C8
:1006B000160B1092170B1092180B1092190B08952D
:1006C00010921A0B10921B0B10921C0B10921D0B08
:1006D000089510921E0B10921F0B1092200B109277
:1006E000210B08951092220B1092230B1092240BD1
:1006F0001092250B089510922A0B10922B0B10923A
:100700002C0B10922D0B089510922E0B10922F0B84
:100710001092300B1092310B08951092320B109200
:10072000330B1092340B1092350B08951092420B3C
:100730001092430B1092440B1092450B08951092A7
:10074000460B1092470B1092480B1092490B0895DC
:1007500010924A0B10924B0B10924C0B10924D0BB7
:10076000089581E090E0A0E0B0E08093560B909374
:10077000570BA093580BB093590B089581E090E06C
:10078000A0E0B0E080935A0B90935B0BA0935C0BBE
:10079000B0935D0B08958CE291E0A0E0B0E080930F
:1007A0006A0B90936B0BA0936C0BB0936D0B089539
:1007B0008CE291E0A0E0B0E080936E0B90936F0B21
:1007C000A093700BB093710B08958CE291E0A0E0C0
:1007D000B0E08093720B9093730BA093740BB09363
:1007E000750B08958CE291E0A0E0B0E08093760B69
:1007F0009093770BA093780BB093790B0895109298
:100800007A0B10927B0B10927C0B10927D0B08954B
:1008100010927E0B10927F0B1092800B1092810B26
:1008200008951092820B1092830B1092840B1092F9
:10083000850B08951092920B1092930B1092940BCB
:100840001092950B08951092960B1092970B1092A0
:10085000980B1092990B089581E090E0A0E0B0E031
:1008600080939A0B90939B0BA0939C0BB0939D0B42
:10087000089585E090E0A0E0B0E08093A20B909313
:10088000A30BA093A40BB093A50B089585E090E073
:10089000A0E0B0E08093A60B9093A70BA093A80BC9
:1008A000B093A90B089589E190E0A0E0B0E08093B7
:1008B000AA0B9093AB0BA093AC0BB093AD0B089528
:1008C00082E390E0A0E0B0E08093BA0B9093BB0B82
:1008D000A093BC0BB093BD0B089582E390E0A0E021
:1008E000B0E08093BE0B9093BF0BA093C00BB0936E
:1008F000C10B089582E390E0A0E0B0E08093C20BCA
:100900009093C30BA093C40BB093C50B089582E3DF
:1009100090E0A0E0B0E08093C60B9093C70BA0934B
:10092000C80BB093C90B089582E390E0A0E0B0E05B
:100930008093CA0B9093CB0BA093CC0BB093CD0BB1
:10094000089582E390E0A0E0B0E08093CE0B909316
:10095000CF0BA093D00BB093D10B089582E390E01E
:10096000A0E0B0E08093D20B9093D30BA093D40B74
:10097000B093D50B089580E991E0A0E0B0E08093BA
:10098000E20B9093E30BA093E40BB093E50B089577
:1009900080E991E0A0E0B0E08093E60B9093E70B54
:1009A000A093E80BB093E90B089580E991E0A0E0F3
:1009B000B0E08093EA0B9093EB0BA093EC0BB09319
:1009C000ED0B089580E991E0A0E0B0E08093EE0B9C
:1009D0009093EF0BA093F00BB093F10B089510924E
:1009E000F20B1092F30B1092F40B1092F50B08958A
:1009F0001092F60B1092F70B1092F80B1092F90B65
:100A000008951092FA0B1092FB0B1092FC0B1092AF
:100A1000FD0B089510920A0D10920B0D10920C0D03
:100A200010920D0D089510920E0D10920F0D109250
:100A3000100D1092110D08951092120D1092130DB9
:100A40001092140D1092150D089583E090E0A0E02F
:100A5000B0E080934A0D90934B0DA0934C0DB09352
:100A60004D0D089583E090E0A0E0B0E080934E0D3E
:100A700090934F0DA093500DB093510D089583E0C6
:100A800090E0A0E0B0E08093520D9093530DA093BE
:100A9000540DB093550D08958AE090E0A0E0B0E0C9
:100AA0008093720D9093730DA093740DB093750D98
:100AB00008958AE090E0A0E0B0E08093760D9093F6
:100AC000770DA093780DB093790D08958AE090E0AA
:100AD000A0E0B0E080937A0D90937B0DA0937C0D05
:100AE000B0937D0D089510925A0D10925B0D1092E7
:100AF0005C0D10925D0D089510925E0D10925F0DC9
:100B00001092600D1092610D08951092620D109276
:100B1000630D1092640D1092650D089588E592E0C2
:100B2000A0E0B0E080930A0C90930B0CA0930C0C07
:100B3000B0930D0C089588E592E0A0E0B0E08093BA
:100B40000E0C90930F0CA093100CB093110C089501
:100B500088E592E0A0E0B0E08093120C9093130C33
:100B6000A093140CB093150C08958EE190E0A0E0D2
:100B7000B0E080931A0C90931B0CA0931C0CB093C4
:100B80001D0C08958EE190E0A0E0B0E080931E0C73
:100B900090931F0CA093200CB093210C08958EE12C
:100BA00090E0A0E0B0E08093220C9093230CA093FF
:100BB000240CB093250C08951092320C1092330C33
:100BC0001092340C1092350C08951092360C10923D
:100BD000370C1092380C1092390C089510923A0C80
:100BE00010923B0C10923C0C10923D0C0895109208
:100BF0005A0C10925B0C10925C0C10925D0C0895D4
:100C000010925E0C10925F0C1092600C1092610CAE
:100C100008951092620C1092630C1092640C109262
:100C2000650C089510926A0C10926B0C10926C0C6B
:100C300010926D0C089510926E0C10926F0C109221
:100C4000700C1092710C08951092720C1092730C2B
:100C50001092740C1092750C089585E090E0A0E05D
:100C6000B0E08093820C9093830CA093840CB0939B
:100C7000850C089585E090E0A0E0B0E08093860CBC
:100C80009093870CA093880CB093890C089585E00D
:100C900090E0A0E0B0E080938A0C90938B0CA0933E
:100CA0008C0CB0938D0C089584EB95E1A0E0B0E03E
:100CB0008093920C9093930CA093940CB093950C0A
:100CC000089584EB95E1A0E0B0E08093960C9093BA
:100CD000970CA093980CB093990C089584EB95E130
:100CE000A0E0B0E080939A0C90939B0CA0939C0C96
:100CF000B0939D0C089585E090E0A0E0B0E0809373
:100D0000AA0C9093AB0CA093AC0CB093AD0C0895CF
:100D100085E090E0A0E0B0E08093AE0C9093AF0C43
:100D2000A093B00CB093B10C089585E090E0A0E0E2
:100D3000B0E08093B20C9093B30CA093B40CB0933A
:100D4000B50C08951092BA0C1092BB0C1092BC0C0A
:100D50001092BD0C08951092BE0C1092BF0C109210
:100D6000C00C1092C10C08951092C20C1092C30CCA
:100D70001092C40C1092C50C08951092D20C1092CF
:100D8000D30C1092D40C1092D50C08951092D60C5E
:100D90001092D70C1092D80C1092D90C0895109282
:100DA000DA0C1092DB0C1092DC0C1092DD0C089522
:100DB0001092EA0D1092EB0D1092EC0D1092ED0DC9
:100DC00008958CE390E0A0E0B0E08093EE0D909366
:100DD000EF0DA093F00DB093F10D089581E090E038
:100DE000A0E0B0E08093F20D9093F30DA093F40D8A
:100DF000B093F50D08951092FA0D1092FB0D10921C
:100E0000FC0D1092FD0D08958CE390E0A0E0B0E0A1
:100E10008093FE0D9093FF0DA093000EB093010EF2
:100E2000089581E090E0A0E0B0E08093020E9093FE
:100E3000030EA093040EB093050E08951092120EA7
:100E40001092130E1092140E1092150E08958CE34A
:100E500090E0A0E0B0E08093160E9093170EA09360
:100E6000180EB093190E089581E090E0A0E0B0E074
:100E700080931A0E90931B0EA0931C0EB0931D0E20
:100E800008951092220E1092230E1092240E1092AA
:100E9000250E08958CE390E0A0E0B0E08093260E4C
:100EA0009093270EA093280EB093290E089581E009
:100EB00090E0A0E0B0E080932A0E90932B0EA093D8
:100EC0002C0EB0932D0E089510923A0E10923B0EF8
:100ED00010923C0E10923D0E08958CE390E0A0E03D
:100EE000B0E080933E0E90933F0EA093400EB093DF
:100EF000410E089581E090E0A0E0B0E08093420EC2
:100F00009093430EA093440EB093450E0895220F84
:100F1000331F220F331FF901EA53F54F108211825C
:100F20001282138208958C3691050CF04EC08936DA
:100F30009105CCF4863391055CF5833391059CF4DF
:100F40008C319105BCF4893191056CF48E3091059A
:100F500064F48B3091053CF4009729F097FD08C0AC
:100F60000297049728F481E008950F970997D8F322
:100F700080E00895863291053CF4843291059CF717
:100F80004F970397A8F7EFCF8997079788F7EBCF8D
:100F90008435910574F4813591052CF784349105DD
:100FA0002CF48D339105FCF6C797EBCF875491094C
:100FB000ECCF8E35910534F48B359105A4F685552B
:100FC0009109DFCF85569109DCCF843A91051CF554
:100FD000813A910544F68038910584F48D37910566
:100FE00014F6863791053CF4833791050CF0BBCF9E
:100FF0008F569109C6CF89579109C3CF8039910582
:101000003CF48D3891050CF0AECF83589109B9CFDF
:1010100081599109B6CF803D91058CF48D3C9105A5
:101020000CF0A1CF8E3A91053CF48B3A91050CF06F
:101030009ACF855A9109A5CF895C9109A2CF8A3DA3
:1010400091053CF4873D91050CF08DCF835D9109AE
:1010500098CF8D5D910995CFAF92BF92CF92DF92DD
:10106000EF92FF920F931F93CF93DF936C017B015D
:101070008B01040F151FEB015E01AE18BF08C017EE
:10108000D10759F06991D601ED91FC910190F08161
:10109000E02DC6011995892B79F7C501DF91CF9114
:1010A0001F910F91FF90EF90DF90CF90BF90AF9086
:1010B0000895FC01538D448D252F30E0842F90E05E
:1010C000821B930B541710F0CF9608950197089543
:1010D000FC01918D828D981761F0A28DAE0FBF2F0C
:1010E000B11D5D968C91928D9F5F9F73928F90E062
:1010F00008958FEF9FEF0895FC01918D828D9817D1
:1011000031F0828DE80FF11D858D90E008958FEF0D
:101110009FEF0895FC01918D228D892F90E0805CD6
:101120009F4F821B91098F73992708958BE49EE04E
:10113000F1DF21E0892B09F420E0822F0895FC01E2
:10114000A48DA80FB92FB11DA35ABF4F2C91848D28
:1011500090E001968F739927848FA689B7892C9385
:10116000A089B1898C91837080648C93938D848DD8
:10117000981306C00288F389E02D80818F7D8083DB
:101180000895EF92FF920F931F93CF93DF93EC019B
:1011900081E0888F9B8D8C8D98131AC0E889F9891E
:1011A000808185FF15C09FB7F894EE89FF89608321
:1011B000E889F98980818370806480839FBF81E0A2
:1011C00090E0DF91CF911F910F91FF90EF900895E4
:1011D000F62E0B8D10E00F5F1F4F0F731127E02EBF
:1011E0008C8D8E110BC00FB607FCFACFE889F989F8
:1011F000808185FFF5CFCE01A2DFF2CFEB8DEC0F22
:10120000FD2FF11DE35AFF4FF0829FB7F8940B8F2B
:10121000EA89FB8980818062D0CF682F8BE49EE0D1
:10122000B0CFCF93DF93EC01888D8823B1F0AA89EA
:10123000BB89E889F9898C9185FD03C0808186FD91
:101240000CC00FB607FCF7CF8C9185FFF2CF8081E1
:1012500085FFEDCFCE0173DFEACFDF91CF91089507
:1012600080E090E0892B21F061DF81110E94000075
:1012700080E090E0892B49F080E090E0892B29F014
:101280000E94000081110E94000080E090E0892B04
:1012900049F080E090E0892B29F00E940000811144
:1012A0000E94000080E090E0892B49F080E090E00F
:1012B000892B29F00E94000081110C9400000895F0
:1012C0008150823108F05AC0E82FF0E08827E459B5
:1012D000F64F8F4F0C943C658C0990097E09840968
:1012E0008809BE09930999099D09A309A709AB09B2
:1012F000B109B509BE09B909BF09C30980918000C8
:101300008F77809380000895809180008F7DF9CF42
:1013100080918000877FF5CF84B58F7784BD089555
:1013200084B58F7DFBCF8091B0008F778093B00024
:1013300008958091B0008F7DF9CF809190008F77D4
:10134000809390000895809190008F7DF9CF8091D7
:101350009000877FF5CF8091A0008F778093A000C9
:1013600008958091A0008F7DF9CF8091A000877FA4
:10137000F5CF809120018F7780932001089580918F
:1013800020018F7DF9CF80912001877FF5CFCF930A
:10139000DF93282F30E0F901E35BFD4F8491F901E1
:1013A000E355FD4FD491F901ED50FD4FC491CC238D
:1013B00099F0811185DFEC2FF0E0EE0FFF1FED5C5F
:1013C000FD4FA591B491EC91ED2381E090E009F4FB
:1013D00080E0DF91CF91089580E090E0FACF1F93F5
:1013E000CF93DF93282F30E0F901E35BFD4F849129
:1013F000F901E355FD4FD491F901ED50FD4FC49132
:10140000CC23A1F0162F81115BDFEC2FF0E0EE0F63
:10141000FF1FE75EFD4FA591B4918FB7F894EC9153
:10142000111108C0D095DE23DC938FBFDF91CF91DF
:101430001F910895DE2BF8CFCF93DF9390E0FC014E
:10144000E355FD4F24918D509D4FFC0184918823DD
:10145000C9F090E0880F991FFC01ED56FD4FA59152
:10146000B491FC01E75EFD4FC591D49161110DC0AF
:101470009FB7F8948C91209582238C9388812823A0
:1014800028839FBFDF91CF910895623051F49FB7B9
:10149000F8943C91822F809583238C93E8812E2BA6
:1014A000EFCF8FB7F894EC912E2B2C938FBFEACF10
:1014B000CF938CB58C608CBD8CB58F7D8CBD8CB57D
:1014C0008C7F8CBD8DB58E7F8DBDCFB7F89480910C
:1014D0004A0E811123C0E8E2F3E08491E2EEF2E0EB
:1014E0009491E82FF0E0EE0FFF1FED56FD4FA59110
:1014F000B491EC91E92319F461E085E370DF61E0D8
:1015000085E39ADF8CB580618CBD8CB580648CBD21
:1015100061E084E391DF61E083E38EDF80914A0E36
:101520008F5F80934A0ECFBFCF910895823091058F
:1015300038F0880F991F880F991F05970197F1F7C9
:1015400008953FB7F8948091B8099091B909A09196
:10155000BA09B091BB0926B5A89B05C02F3F19F069
:101560000196A11DB11D3FBFBA2FA92F982F882723
:10157000BC01CD01620F711D811D911D42E0660FFE
:10158000771F881F991F4A95D1F708958F929F92D0
:10159000AF92BF92CF92DF92EF92FF926B017C01EC
:1015A000D0DF4B015C01C114D104E104F104B1F0BE
:1015B000C8DF681979098A099B09683E734081056B
:1015C000910588F321E0C21AD108E108F10888EEFC
:1015D000880E83E0981EA11CB11CE5CFFF90EF9010
:1015E000DF90CF90BF90AF909F908F9008952FB7CE
:1015F000F8946091B4097091B5098091B609909101
:10160000B7092FBF0895CF92DF92EF92FF92CF9349
:10161000DF93EC01603282E07807CCF5653B710521
:1016200014F064EB70E0898128E830E0281B310970
:1016300087FD3395220F331F220F331F6901330FAC
:10164000EE08FF088A8128E532E0281B310987FD72
:101650003395220F331F220F331F032E000C440B30
:10166000550B2C193D094E095F09DB0177FF02C0BC
:10167000B0E0A0E00E94D16324EB30E040E050E015
:101680000E94AB63C20ED31EE41EF51EB601E881B4
:10169000E03370F5298188E890E0821B910927FDED
:1016A0009395880F991F880F991F681779077CF009
:1016B0002A8188E592E0821B910927FD9395880F86
:1016C000991F880F991F681779070CF4CB010297AF
:1016D000880F991F4FB7F8942E2F30E0F901EE0FC5
:1016E000FF1FE20FF31FE851F14F928381834FBF39
:1016F000DF91CF91FF90EF90DF90CF9008951F93EF
:10170000CF93DF93EC01162F8881803308F04DC012
:1017100061E0812F91DE8881282F30E0F901EE0F02
:10172000FF1FE20FF31FE851F14F1F736081607CD0
:10173000612B608319821A822CE0622F0E941D6542
:10174000829FB001112430E020E0AB01420F531F13
:10175000FA01EE0FFF1FE40FF51FE851F14F9081E2
:1017600096FD16C02F5F3F4F2C30310571F7813049
:1017700009F51092800082E080938100109285002C
:1017800010928400B19A80916F00826080936F0004
:10179000E8818E2F90E0FC01EE0FFF1FE80FF91F8C
:1017A000E851F14F8081806480838881DF91CF91FF
:1017B0001F910895823061F41092900080939100FF
:1017C000109295001092940088BB80937100E0CF36
:1017D000833069F41092A00082E08093A1001092FF
:1017E000A5001092A40089BB80937200D1CF811113
:1017F000CFCF1092200182E0809321011092250129
:10180000109224018ABB80937300C2CFAF92BF9223
:10181000CF92DF92EF92FF920F931F93CF93DF93BC
:101820006B017A01EC01C155D64F28813CE0389F0D
:101830008001399F100D1124A090780FB12C27FF43
:101840001FC0FB011182108288818F5F888388818D
:101850009801280F311D87FD3A95F6012A153B05A1
:101860001CF488818C30BCF1808191810496803495
:101870009C4908F471C0F6018081918104966EC084
:1018800088819801280F311D87FD3A952A153B055F
:10189000DCF68881A801480F511D87FD5A95FA0191
:1018A000EE0FFF1FE40FF51FE851F14F808186FF17
:1018B000CBCF8881F801E80FF11D87FDFA95CF01A4
:1018C000EE0FFF1FE80FF91FE851F14F808160E034
:1018D0008F7385DDB9CF808191812881A801420F66
:1018E000511D27FD5A959A01FA01EE0FFF1FE20FD5
:1018F000F31FE851F14F21813281820F931FF701CD
:101900009183808388819801280F311D87FD3A9546
:10191000F901EE0FFF1FE20FF31FE851F14F808135
:1019200086FF21C08881080F111D87FD1A95F801D7
:10193000EE0FFF1FE00FF11FE851F14F808161E0D2
:101940008F73DF91CF911F910F91FF90EF90DF90F8
:10195000CF90BF90AF9043CD80E49CE9F701918395
:1019600080838FEF8883DF91CF911F910F91FF903C
:10197000EF90DF90CF90BF90AF9008958EBD0000A4
:101980000DB407FEFDCF8EB50895DF92EF92FF9262
:101990000F931F93CF93DF93EC01D62E122F032FBB
:1019A000F42EE52E60E088851ADD8D2D8068E6DF57
:1019B00089878E2DE3DF8F2DE1DF802FDFDF812F01
:1019C000DDDF61E088850BDD8985DF91CF911F9197
:1019D0000F91FF90EF90DF900895FF920F931F9368
:1019E000CF93DF93EC01F62E8A0162DD60E08885FB
:1019F000F6DC8F2DC3DF898780E0C0DF80E0BEDFAB
:101A000080E0BCDF80E0BADF61E08885E8DC60E090
:101A10008885E5DC8F2DB2DF898780E0AFDF90E03D
:101A2000B0E0A0E0BA2FA92F982F8827F801808373
:101A30009183A283B38380E0A1DFF80140815181CB
:101A400062817381482B762F652F542F4427408362
:101A500051836283738380E091DFF801408151817B
:101A600062817381482B762F652F542F4427408342
:101A700051836283738380E081DFF801408151816B
:101A800062817381482B408351836283738361E059
:101A90008885A5DC8985DF91CF911F910F91FF90FB
:101AA00008952F923F924F925F927F928F929F92D2
:101AB000AF92BF92CF92DF92EF92FF920F931F935C
:101AC000CF93DF9300D01F92CDB7DEB76C01762E97
:101AD00049015A0117012801AE014F5F5F4F7DDFB9
:101AE00089819A81AB81BC8188269926AA26BB264A
:101AF000A50194012E213321402355212827392780
:101B00004A275B27672DC60140DFF60181850F90CC
:101B10000F900F900F90DF91CF911F910F91FF9039
:101B2000EF90DF90CF90BF90AF909F908F907F907D
:101B30005F904F903F902F900895EF92FF920F93F8
:101B40001F93CF93DF93EC0121E030E040E050E0C1
:101B500004C0220F331F441F551F6A95D2F7790125
:101B60008A0160E09EDF8985DF91CF911F910F91FF
:101B7000FF90EF900895CF93DF93EC0161E08885AB
:101B80005BDC61E088852BDC93DC60E0888527DC0A
:101B900080E0F4DE898780E0F1DE80E0EFDE80E047
:101BA000EDDE80E0EBDE61E08885DF91CF9117CC40
:101BB0004F925F926F927F928F929F92BF92CF923D
:101BC000DF92EF92FF920F931F93CF93DF93EC017D
:101BD0007B014A016901B02ECEDF88E0E816F104EE
:101BE00009F48BC10CF065C182E0E816F10409F438
:101BF0007AC184E0E816F10409F47AC1EA94EF2886
:101C000009F060C188E090E0A0E0B0E0582F4427E0
:101C100033272227E12CF12C00E01FE06CE6CE01F7
:101C200040DFB40190E080E00E947D6225ED34E069
:101C300045E352E40E94DE6220E030E04AE754E4EB
:101C40000E946D6428EB3EE145E05EE30E94DE62A7
:101C50002B013C0126E636E646EA5EE30E946D640F
:101C600020E030E040E85FE30E9408640E94DA640C
:101C7000603180F42CEE31E548E35EE3C301B2014C
:101C80000E946D6420E030E040E85FE30E94086459
:101C90000E94DA64862F8F71262F30E050E040E0FA
:101CA000542F432F322F222722273F7144275527B5
:101CB000282B60E1CE0169DE60E0CE013EDF1FE04F
:101CC000E12EF12C00E010E023E030E040E050E0B5
:101CD0006CE6CE01E6DE10E7E12EF12C00E010E02C
:101CE00020E430E040E050E06CE6CE01DADE10E8BF
:101CF000E12EF12C00E010E020E830E040E050E080
:101D00006CE6CE01CEDEE12C10E8F12E01E010E011
:101D100020E030E041E050E06CE6CE01C2DEE12C94
:101D200010E4F12E00E010E020E030E0A9016CE6C4
:101D3000CE01B7DE1FE0E12EF12C00E010E021E043
:101D400030E040E050E06CE6CE01ABDEE12CF12C5F
:101D50008701F39420E032E040E050E06CE6CE01F1
:101D6000A0DEE12C10E2F12E00E010E020E030E2F5
:101D700040E050E06CE6CE0194DE2FEF3FEFA9018A
:101D800063E1CE0102DE2FEF3FEF4FE050E064E170
:101D9000CE01FBDD20E137E240E050E065E1CE011D
:101DA000F4DDE12CF12C08E010E020E030E048E028
:101DB00050E06CE6CE0175DEE12CF12C04E010E081
:101DC00020E030E044E050E06CE6CE016ADE1FE047
:101DD000E12EF12C00E010E028E030E040E050E09F
:101DE0006CE6CE015EDEE12CF12C8701EA9424E65C
:101DF00030E040E050E06EE6CE0153DEE12CF12C05
:101E00000FEF13E020E030E048E050E06EE6CE0156
:101E100048DE20E137E240E050E065E1CE01B5DD8B
:101E200065E0CE018ADE6BE0CE0187DE0D2C000C72
:101E3000EE08FF08A60133272227E12CF12C01E050
:101E400010E06CE6CE012DDEBB20F9F062E0CE01A1
:101E500074DEE12CF12C870120E030E044E050E01A
:101E600060E7CE011EDE20E030E042E050E060E7B7
:101E7000CE0117DEE12CFF24FA940FEF1FEF20E0D4
:101E800030E0A90160E7CE010CDE64E670E080E09E
:101E900090E0DF91CF911F910F91FF90EF90DF9035
:101EA000CF90BF909F908F907F906F905F904F905A
:101EB0006DCB80E2E816F10451F144F480E1E816BC
:101EC000F10401F180E090E0DC01A0CE80E4E816AE
:101ED000F10411F180E8E816F104A1F781E090E047
:101EE000A0E0B0E093CE87E090E0A0E0B0E08ECE3E
:101EF00086E090E0A0E0B0E089CE85E090E0A0E050
:101F0000B0E084CE84E090E0A0E0B0E07FCE83E05B
:101F100090E0A0E0B0E07ACE82E090E0A0E0B0E017
:101F200075CE0F931F93CF93DF938B01EA01AB0123
:101F3000415051094433510508F0E9C022303105C0
:101F400008F0E5C048E3429FF001439FF00D1124E3
:101F5000E80FF91FE60FF71F81E080836C2F232B1A
:101F600009F4D2C061E0802F67DA209749F460E07D
:101F7000802F35DACE01DF91CF911F910F91089517
:101F8000CF3FD10511F461E0BFC0F801E35BFD4F25
:101F9000E491E150E23108F0B2C0F0E08827EC5261
:101FA000F04F8F4F0C943C65E60FED0FF20FFC0FD6
:101FB00006107F101010181020102A1034103E1038
:101FC0004D1057107F1061106B10751084B580682C
:101FD00084BDC7BDD0E0C0E0CDCF84B5806284BDF4
:101FE000C8BDF8CF80918000806880938000D09336
:101FF0008900C0938800EECF80918000806280933A
:102000008000D0938B00C0938A00E4CF8091800041
:10201000886080938000D0938D00C0938C00DACFCD
:102020008091B00080688093B000C093B300D2CF9D
:102030008091B00080628093B000C093B400CACF9A
:1020400080919000806880939000D0939900C09315
:102050009800C0CF80919000806280939000D093D0
:102060009B00C0939A00B6CF8091900088608093C7
:102070009000D0939D00C0939C00ACCF8091A000B5
:1020800080688093A0008091A0008F7B8093A00047
:10209000D093A900C093A8009DCF8091A00080623A
:1020A0008093A000D093AB00C093AA0093CF8091FF
:1020B000A00088608093A000D093AD00C093AC00D6
:1020C00089CF80912001806880932001D0932901DD
:1020D000C09328017FCF80912001806280932001EE
:1020E000D0932B01C0932A0175CF80912001886085
:1020F00080932001D0932D01C0932C016BCF60E021
:10210000C038D1050CF03FCF802F69D963CFC1E033
:10211000D0E030CFCF93DF93D0E0C0E0CE010E947B
:102120009307882319F0CE010E94D1012196C13E68
:10213000D105A1F7DF91CF9108954F925F926F92F1
:102140007F928F929F92AF92BF92CF92DF92EF9247
:10215000FF92CF93DF93EC016C897D898E899F89F3
:1021600088889988AA88BB88CE8CDF8C0D2C000CBF
:10217000EE08FF08603127E272078105910529F01A
:102180001616170618061906ACF0A7019601C50128
:10219000B4010E940E65DF91CF91FF90EF90DF9028
:1021A000CF90BF90AF909F908F907F906F905F90F7
:1021B0004F9008950E947F6220E030E44CE156E4A5
:1021C0000E946D642B013C01488E598E6A8E7B8E75
:1021D000C501B4010E947F62A30192010E94DE62E8
:1021E0004B015C01C701B6010E947F629B01AC01FB
:1021F000C501B4010E94DE620E94D564CCCFFC010F
:102200001182108213821282158214821782168222
:1022100010861186128613861486158616861786F2
:10222000108A118A128A138A108E118E128E138EC2
:10223000158E148E178E168E10A211A212A213A242
:1022400014A215A216A217A210A611A612A613A6D2
:1022500014A615A681E090E097A786A780E197E2F3
:10226000A0E0B0E0848B958BA68BB78B08954F923E
:102270005F926F927F928F929F92AF92BF92CF9216
:10228000DF92EF92FF920F931F93CF93DF93EC01B6
:102290004B018A015901CD88DE88EF88F88C260130
:1022A000370144245524662481E07822FE01ED574D
:1022B000FF4F608171818281938124E630E040E0AC
:1022C00050E00E94D763672B682B692BF1F48C8553
:1022D0009D859F878E878A859B859D878C8788852E
:1022E00099859B878A878E819F8199878887F80146
:1022F00060817181828193810E94D5647F836E8326
:10230000F80110821182128213824528462847283C
:1023100059F4F7FC09C0CC24DD24EE24FEE7FF22AB
:10232000CD28CE28CF2881F020E030E040E85FE3E0
:10233000F80160817181828193810E940964F801B2
:102340006083718382839383C25ADF4F888199812E
:10235000AA81BB81F50180839183A283B3838881A5
:102360009981AA81BB81F401808B918BA28BB38B65
:10237000DF91CF911F910F91FF90EF90DF90CF9061
:10238000BF90AF909F908F907F906F905F904F9095
:102390000895889A0895889808958E9A08958E9839
:1023A0000895EBE0F1E08081886080830895EBE0A0
:1023B000F1E08081877F80830895149A08951498AE
:1023C000089560E0FC01878D0AC860E0FC01818D02
:1023D00006C861E0FC01878D02C861E0FC01818DC7
:1023E0000C94EF09CF93DF93EC01FC01EF56FF4F04
:1023F0001082379781E0808360E0898D0E94EF0929
:102400008BA19CA1892B31F060E08F8DDF91CF9162
:102410000C94EF09DF91CF910895CF93DF93EC01F6
:102420008FA10E94C7092AA52817190621F48BA598
:10243000DF91CF91089580E0FBCFCF93DF93EC0144
:102440008DA10E94C7092AA52817190621F48BA57A
:10245000DF91CF91089580E0FBCFCF93DF93EC0124
:102460008B8DFE01E35BFF4F908161E0911101C014
:1024700060E00E94EF0989A1FE01E25BFF4F9081BD
:10248000992331F0C15BDF4F988161E0911101C068
:1024900060E0DF91CF910C94EF09CF93DF93EC01D3
:1024A0008B8DFE01E35BFF4F908160E0911101C0D5
:1024B00061E00E94EF0989A1FE01E25BFF4F90817C
:1024C000992331F0C15BDF4F988160E0911101C029
:1024D00061E0DF91CF910C94EF09CF93DF93EC0192
:1024E00061E08D8D0E94EF09FE01E25BFF4F80816C
:1024F000882321F061E08BA10E94EF09C157DF4FD3
:102500001882DF91CF910895CF93DF93EC01FC0106
:10251000E454FC4F1082EE58F1098081811103C010
:10252000CE014096DADFFE01E15DFC4F8081811132
:1025300004C0CE018E549F4FD0DFFE01E05DFC4F02
:102540008081811104C0CE018C5A9E4FC6DF64E6A3
:1025500070E080E090E0DF91CF9118C8CF93DF93D7
:10256000EC0160E08D8D0E94EF09FE01E25BFF4F00
:102570008081882321F060E08BA10E94EF09C15780
:10258000DF4F81E08883DF91CF9108958F929F92F2
:10259000AF92BF92CF92DF92EF92FF920F931F9371
:1025A000CF93FC01E65AFF4F4083518362837383CC
:1025B00034964083518362837383349600831183FE
:1025C00022833383DC01AA59BF4FEC925297CC91FE
:1025D000CC2351F018974C91411152C037FF56C08F
:1025E0001082118212821382DC01AB5ABF4F4D91CF
:1025F0005D916D917C9113971416150616061706BA
:1026000034F514963C91332311F1C080D180E280DF
:10261000F38046015701F7FE07C08824992454012E
:102620008C189D08AE08BF08481559056A057B053A
:1026300074F4F7FE07C070956095509541955F4F13
:102640006F4F7F4F4083518362837383C32FFC019D
:10265000ED58FF4F108211821282138289579F4FCB
:1026600031E0FC0130838C2FCF911F910F91FF90AF
:10267000EF90DF90CF90BF90AF909F908F90089594
:1026800010161106120613060CF4AACFC0E0ACCF48
:102690000F931F93CF93DF93EC01062F89A5811130
:1026A0000DC0CE01CADE182FCE01B7DE0111182FE2
:1026B000812FDF91CF911F910F910895CE01ADDE53
:1026C000182FCE01BADEF2CFCF93DF93EC01FC01DD
:1026D000ED57FF4F80819181A281B3810196A11DA9
:1026E000B11D80839183A283B3833E9681E0808372
:1026F000AE01425A5F4FFA0180819181A281B3817C
:102700009E0128573F4FF9012081222309F440C040
:102710000196A11DB11DFA0180839183A283B38329
:10272000FE01EC56FF4F20813181C90195958795B7
:102730008C0F9D1F32970190F081E02D20FF08C083
:10274000DC012D913C91E20FF31F0190F081E02D0F
:1027500019958BA19CA1892BF9F0FE01E856FF4F3A
:1027600020813181C901959587958C0F9D1FCA568F
:10277000DF4FE881F98120FF08C0DC012D913C91F9
:10278000E20FF31F0190F081E02DDF91CF911994BA
:102790000197A109B109BFCFDF91CF9108958F9221
:1027A0009F92AF92BF92CF92DF92EF92FF920F93E0
:1027B0001F93CF93DF93EC01FC01ED58FF4F608135
:1027C0007181828193810E947D626B017C01FE0197
:1027D000E05BFF4F60817181828193810E947F6203
:1027E0009B01AC0160E074E284E799E40E946D64AF
:1027F0004B015C01FE01E158FF4F608171818281D4
:1028000093810E947D629B01AC01C501B4010E94CD
:102810006D644B015C018E0109581F4F20E030E0D0
:1028200040E05FE30E94DE62A70196010E94096416
:102830000E94DA64F8016083718382839383C558B0
:10284000DF4FA5019401C701B6010E9409640E94EF
:10285000DA64688379838A839B83DF91CF911F91A8
:102860000F91FF90EF90DF90CF90BF90AF909F902F
:102870008F9008950F931F93CF93DF93FC01EF5632
:10288000FF4F20812223B9F07E97008111812281A0
:102890003381389640815181628173810417150715
:1028A0002607370710F1EC019DDDCE01DF91CF91B6
:1028B0001F910F9174CFFC01E957FF4F2081222314
:1028C000A1F0749700811181228133813496408177
:1028D000518162817381041715072607370728F095
:1028E000DF91CF911F910F91EFCEDF91CF911F918B
:1028F0000F910895FC01E957FF4F2081222361F0D9
:10290000749780819181A281B3810196A11DB11D2F
:1029100080839183A283B38308950F931F93FC0157
:10292000EA59FF4F2081211112C03897008111818F
:1029300022813381349640815181628173810417F1
:102940001507260737074CF41F910F91A6CDFC0100
:10295000E45BFF4F20812111F7CF1F910F917DCDB7
:10296000AC014B5E5F4F6FE6FC018081918135C801
:10297000AF92BF92CF92DF92EF92FF920F931F938D
:10298000CF93DF93EC016B015A0179019A01AB01FE
:10299000B701888199810CD98C81883531F49501F2
:1029A000A601B7018A819B8103D9DF91CF911F9145
:1029B0000F91FF90EF90DF90CF90BF90AF90089570
:1029C000CF93DF93EC018C818835A9F587E494E1FE
:1029D0009983888387E794E19B838A838DEE91E1D5
:1029E000FE01EE56FF4F9183808332961182108252
:1029F00089EE91E132969183808332961182108222
:102A000085EE91E132969183808332961182108215
:102A100081EE91E132969183808332961182108209
:102A200088819981A8D88C81883589F48A819B8195
:102A3000DF91CF91A0C8893529F487E594E1998386
:102A40008883CCCF8A3551F687E694E1F8CFDF91C1
:102A5000CF910895CF93DF93FC01DC0116968AE0B5
:102A6000ED0119928A95E9F781E0808B818B138AB9
:102A7000128A148A158A168A178A108E8CE291E0BF
:102A8000A0E0B0E084A795A7A6A7B7A780AB91ABBD
:102A9000A2ABB3AB42E350E060E070E044AB55ABB7
:102AA00066AB77AB40AF51AF62AF73AF44AF55AFDA
:102AB00066AF77AFEF01C05CDF4F88839983AA834D
:102AC000BB83249688839983AA83BB83DF01A85B99
:102AD000BF4F48E750E060E070E04D935D936D9329
:102AE0007C93139714961C9211961C9211961C922B
:102AF00011961C92119644E650E060E070E04D9310
:102B00005D936D937C93139714961C9211961D926E
:102B10001D921D921C92139714961C9211961D9251
:102B20001D921D921C92139714961D921D921D9238
:102B30001C92139714961D921D921D921C9213972E
:102B400014961C9211961D921D921D921C92139721
:102B500014961D921D921D921C92139714961D920D
:102B60001D921D921C92139714961D921D921D92F8
:102B70001C92139714961D921D921D921C921397EE
:102B800014961D921D921D921C92139714961D92DD
:102B90001D921D921C92139714961D921D921D92C8
:102BA0001C92139714961C9211961C9211961C92CB
:102BB00011961C9211961C9211961C9211961C92C1
:102BC00011961C9211961C9211961C9211961C92B1
:102BD000128E118E148E138E168E158E10A2178ED5
:102BE00012A211A214A213A216A215A210A617A235
:102BF00011968DEE91E111969C938E9312961196FB
:102C00001C921E92129689EE91E111969C938E93DE
:102C1000129611961C921E92129685EE91E11196D3
:102C20009C938E93129611961C921E92129681EE90
:102C300091E18D939C93E056FF4F11821082DF91BA
:102C4000CF91089508958FEF9FEF08950895089507
:102C5000089508950895089508950895089508958C
:102C6000089508950895089508950895089508957C
:102C70000895089508958091AD099091AE09892B2A
:102C800041F481E090E00E94005D9093AE09809352
:102C9000AD098091AD099091AE0908950F931F93EE
:102CA000CF93DF938B01E7DFF801C2A1D3A1868D1B
:102CB000978D8530910529F14CF40497B1F090E09F
:102CC00080E0DF91CF911F910F910895863091059B
:102CD00011F10B97A1F76BE070E082E89FE00E9492
:102CE0007F0BBE0182E89FE009C064E070E089E7E5
:102CF0009FE00E947F0BBE0189E79FE00E94030BCB
:102D0000DECF65E070E08CE79FE00E947F0BBE01A4
:102D10008CE79FE0F3CF66E070E08FE79FE00E94D2
:102D20007F0BBE018FE79FE0E9CF8091A9099091C9
:102D3000AA09892B91F480E790E00E94005DFC01D4
:102D400031969C012B5C3F4F119217AAE217F307B3
:102D5000D9F79093AA098093A9098091A909909124
:102D6000AA0908954F925F926F927F92AF92BF929D
:102D7000CF92DF92EF92FF920F931F93CF93DF9347
:102D8000EB01D3DF8C01CAA8DBA84EA45FA468A81E
:102D900079A8AEA0BFA0EE8CFF8C4AA15BA19601E2
:102DA000B701BFD8C301B2010E94C60A9601A501AE
:102DB000B701C801B6D890E080E0DF91CF911F91B4
:102DC0000F91FF90EF90DF90CF90BF90AF907F90EA
:102DD0006F905F904F900895CF93DF93EB01A5DF45
:102DE0006AA98E8D0E941C0A90E080E0DF91CF914D
:102DF0000895CF93DF93EB0198DF2AA93BA94AA15D
:102E00005BA16E8D7F8D8DD890E080E0DF91CF91BA
:102E100008958091A2099091A309892BE1F585E39A
:102E200090E00E94005DFC0181E090E0A0E0B0E055
:102E300080839183A283B38384839583A683B7839E
:102E400080879187A287B387158614861686178692
:102E5000108A118A128A138A148A158A168A178A86
:102E6000108E118E138E128E12A213A214A215A20E
:102E700017A216A210A611A612A613A614A615A68E
:102E800016A617A610AA11AA12AA13AA14AAF0939A
:102E9000A309E093A2098091A2099091A309089542
:102EA000CF93DF93B6DFEC0185E40E94C70921E0F0
:102EB000892B09F420E02C8FACDFEC0184E40E9424
:102EC000C70921E0892B09F420E02D8FA2DFEC0156
:102ED00083E40E94C70921E0892B09F420E02E8FAA
:102EE00098DFEC0182E40E94C70921E0892B09F4F4
:102EF00020E02F8F8EDFEC0181E40E94C70921E0E2
:102F0000892B09F420E028A384DFEC0180E40E94EF
:102F1000C70921E0892B09F420E029A3DF91CF9193
:102F2000089577DFBDCF75DFFC0114AA90E080E043
:102F30000895FC0101900020E9F73197AF01481B8B
:102F4000590BBC018BE49EE00C942C088F929F924D
:102F5000AF92BF920F931F93CF93DF93CDB7DEB79E
:102F6000A1970FB6F894DEBF0FBECDBF19A24230B5
:102F700008F44AE08E010F5D1F4F842E912CB12C76
:102F8000A12CA50194010E94D763E62FB901CA01C3
:102F9000EA30ECF4E05DD801EE938D01232B242B75
:102FA000252B79F790E080E0109711F0CD01C1DF7B
:102FB000A1960FB6F894DEBF0FBECDBFDF91CF91C3
:102FC0001F910F91BF90AF909F908F900895E95CF3
:102FD000E2CFCF92DF92EF92FF92CF93DF9397FFF2
:102FE00018C06B017C018DE20E940D09EC0166277F
:102FF0007727CB016C197D098E099F094AE0A6DF6E
:103000008C0F9D1FDF91CF91FF90EF90DF90CF90BD
:1030100008954AE0DF91CF91FF90EF90DF90CF903D
:1030200095CFBC01990F880B990BD3CF82CF882302
:1030300019F08EEF98E0FACF87EF98E0FCCF2F924F
:103040003F924F925F926F927F928F929F92AF9238
:10305000BF92CF92DF92EF92FF920F931F93CF9385
:10306000DF9300D000D01F921F92CDB7DEB71C01B6
:10307000FC01E557FF4F10823196108283579F4F16
:10308000FC011082D101A257BF4F1C9233961082CF
:1030900026013701441A550A660A770A49825A827C
:1030A0006B827C8277FE0CC0709460945094409444
:1030B000411C511C611C711C49825A826B827C82AA
:1030C0004C155D056E057F0534F568017901C41A5C
:1030D000D50AE60AF70A49805A806B807C8075948D
:1030E0006794579447944D825E826F8278868101FF
:1030F00000571F4F49805A806B807C804C145D04C0
:103100006E047F0488F4F10164AC75AC81E08C93AB
:10311000F801808327C0B901A8014C195D096E0927
:103120007F096A017B01D7CF4D805E806F807884F4
:103130004C145D046E047F0408F4C6C04AA05BA072
:103140006CA07DA04C145D046E047F040CF083C061
:103150006E8C7F8C2FEF621A720A21E0FC012083B3
:10316000F8012083F1018489882309F45AC00E9460
:10317000F70AF10102891389012E000C220B330B8F
:10318000601B710B820B930B693E734081059105A7
:1031900008F447C00E94F70AF101738B628B8EEA34
:1031A00093E044DF82EB93E041DF60E070E0CB012D
:1031B00010DF88EB93E03ADFC701B6010ADF8EEB40
:1031C00093E034DF69817A818B819C8102DF84EC1A
:1031D00093E02CDF4AE06D817E818F819885B6DE99
:1031E0008BEC93E023DF6AA17BA18CA19DA1F1DE92
:1031F00081ED93E01BDFC501B401EBDE87ED93E0C9
:1032000015DF6E8D7F8D88A199A1E3DE8DED93E0B2
:103210000DDF86E997E00ADFC30103DF84EA94E06B
:1032200005DFC30128960FB6F894DEBF0FBECDBFF1
:10323000DF91CF911F910F91FF90EF90DF90CF9092
:10324000BF90AF909F908F907F906F905F904F90C6
:103250003F902F900895C701B6010E947F622B0115
:103260003C016AA17BA18CA19DA10E947F629B0170
:10327000AC01C301B2010E946D642B013C016E8D53
:103280007F8D88A199A1681979098A099B090E94F3
:103290007F629B01AC01C301B2010E94DE622B017F
:1032A0003C01C501B4010E947F629B01AC01C301D6
:1032B000B2010E9409640E94D5643B0181E0F101E2
:1032C000E557FF4F808324CF89819A81AB81BC81F0
:1032D0004AA05BA06CA07DA084199509A609B70936
:1032E000C816D906EA06FB0654F46E8C7F8C22E0E1
:1032F000620E711C81E0F101E357FF4FE3CF69815A
:103300007A818B819C816C197D098E099F090E94AD
:103310007F622B013C016AA17BA18CA19DA10E942F
:103320007F629B01AC01C301B2010E946D642B015D
:103330003C016E8D7F8D88A199A1681979098A0950
:103340009B090E947F629B01AC01C301B2010E94F4
:10335000DE622B013C01C501B4010E947F629B012A
:10336000AC01C301B2010E9409640E94D5643B0113
:1033700081E0F101E457FF4FA5CF2F923F924F928A
:103380005F926F927F928F929F92AF92BF92CF92F5
:10339000DF92EF92FF920F931F93CF93DF93EC0195
:1033A0003C012EE5620E711CD3014D915D916D9132
:1033B0007C918C010E591F4FF80180819181A2816F
:1033C000B3812E01F6E64F0E511CF201F0809E01F2
:1033D00028573F4F5901B3961F01FF20D1F12C53BD
:1033E0003109F9012081F501208321E0F1012083D9
:1033F000411551056105710579F42081FE01E158FF
:10340000FF4F222309F44DC088AC99ACAAACBBACE9
:1034100080829182A282B3825E01FAE5AF0EB11C76
:10342000F501C080D180E280F380C816D906EA0693
:10343000FB06E4F5481759076A077B070CF441C0FF
:10344000D2018C9181113DC0FE01E957FF4F1082DE
:10345000BFC021E0481759076A077B070CF020E03E
:10346000F50120836A017B0177FF07C0CC24DD24AE
:103470007601C41AD50AE60AF70A4C015D01B7FFC6
:1034800007C0882499245401881A990AAA0ABB0AF9
:1034900021E0C814D904EA04FB040CF0A7CF20E013
:1034A000A5CF8CA89DA8AEA8BFA8B2CF8C159D05AE
:1034B000AE05BF052CF684179507A607B7070CF0D5
:1034C000BFCFFE01E957FF4F8081882309F4BCCFAD
:1034D000F201808181110DC0D2018C918111B4CF94
:1034E000D1016C9181E06827CE01D2D88111ACCF97
:1034F00005C060E0CE01CCD88111EECFF801C080CC
:10350000D180E280F380D3010D911D912D913C91EA
:10351000F5014081518162817381D101EC91CE012D
:1035200081589F4F2C01E1112AC08CA89DA8AEA8FC
:10353000BFA8FE01E05CFF4F83818F9382818F9350
:1035400081818F93E081EF93EFA5EF93EEA5EF9349
:10355000EDA5EF93ECA5EF93CE0171DDB0E0A0E017
:10356000F20180839183A283B3832DB73EB7285F96
:103570003F4F0FB6F8943EBF0FBE2DBF29C088AC99
:1035800099ACAAACBBACFE01EC5BFF4F83818F937F
:1035900082818F9381818F93E081EF93EBA9EF93E9
:1035A000EAA9EF93E9A9EF93E8A9EF93CE0147DDEC
:1035B000B0E0A0E0F20180839183A283B3832DB7B2
:1035C0003EB7285F3F4F0FB6F8943EBF0FBE2DBFEA
:1035D00060E0CE015DD8882331F0D3011D921D92A9
:1035E0001D921C921397DF91CF911F910F91FF9025
:1035F000EF90DF90CF90BF90AF909F908F907F9093
:103600006F905F904F903F902F900895CF93DF93EE
:10361000EC0183EE93E00ADD6AA17BA18CA19DA160
:10362000D8DC84EA94E0DF91CF9100CD0F931F9313
:10363000CF93DF938C01EB0180E993E0F7DC86E91F
:1036400097E0F4DCF80184810E940D09CE01E9DCE9
:10365000E0DBDF91CF911F910F91D8CFEF92FF92D6
:103660000F931F93CF93DF93182F092F7B016115C1
:10367000710569F50E94C70931E020E0019709F062
:1036800030E0C32FD22F82E0E816F10408F045C0E5
:1036900086EE93E0CBDC86E997E0C8DC8AEE93E027
:1036A000C5DC812F902FBDDC86E997E0BFDC81E28D
:1036B00097E0BCDCCE01B5DCACDBA8DF90E080E0BD
:1036C000DF91CF911F910F91FF90EF900895D0E07F
:1036D000C0E061307105B9F6812F163310F08AEC25
:1036E000810F20917B00982F9870277F922B9093C9
:1036F0007B008770806480937C0080917A00806476
:1037000080937A0080917A0086FDFCCF80917800CA
:10371000C0917900DC2FC82FB6CF81E090E0D0CFE8
:103720000F931F93CF93DF93FC01208131812115EB
:103730003105C1F1EC01822F0E94C70921E0892BDC
:1037400009F420E02B876A85261701F11E821F826B
:10375000188619860E811F81288539858A819B816B
:10376000AC81BD81081719072A073B07DCF081E00F
:10377000682788810E94EF09D8DA70E060E08881CC
:103780009981DF91CF911F910F9168CF8E819F8199
:10379000A885B9850196A11DB11D8E839F83A88739
:1037A000B987D8CFDF91CF911F910F910895CF9313
:1037B000DF93EB01BADA6AA97BA98E8D9F8D4EDF6C
:1037C00090E080E0DF91CF910895CF92DF92EF9269
:1037D000FF92CF93DF93EB01CB010E9493078823E5
:1037E00051F1FE01EE0FFF1FEE0FFF1FEA53F54FE1
:1037F000C080D180E280F3808CEE93E017DC86E914
:1038000097E014DC8AEE93E011DCCE010ADC86E955
:1038100097E00CDC81E297E009DCC701B601D9DB57
:10382000F8DAF4DE90E080E0DF91CF91FF90EF9046
:10383000DF90CF90089580EF93E0F8DBF3CF0F9304
:103840001F93CF93DF938C01D0E0C0E0CE010E94A4
:103850009307882319F0BE01C801B7DF2196C13E46
:10386000D105A1F7DF91CF911F910F91089582E1CA
:1038700094E0DCDB80E492E0D9DB88E092E0D6DB08
:1038800087E194E0D3DBC5DAC1DE90E080E0089503
:10389000CF93DF93EC0182E294E0C8DB86E294E010
:1038A000C5DB8C8DC4DB8AE294E0C0DB8D8DBFDB91
:1038B0008EE294E0BBDB8E8DBADB82E394E0B6DB74
:1038C0008F8DB5DB86E394E0B1DB88A1B0DB8AE3C2
:1038D00094E0ACDB89A1ABDBCE01DF91CF9196CE3A
:1038E00098DAD6CF8EE394E0A1DB93DAD9DA91DAD5
:1038F000CFDF1BDA70E060E088E090E0AFDE15DA41
:1039000070E060E089E090E0A9DE0FDA70E060E04E
:103910008AE090E0A3DE09DA70E060E08DE090E0FC
:103920009DDE90E080E008954F925F926F927F92CB
:103930008F929F92AF92BF92CF92DF92EF92FF92BF
:103940000F931F93CF936B017C01742EAC019B01ED
:103950000E940A65882391F085E494E0CF911F913D
:103960000F91FF90EF90DF90CF90BF90AF909F901E
:103970008F907F906F905F904F90DBCA4601570108
:10398000E894B7F82FEF3FEF4FE75FE7C501B401C9
:103990000E940A6581110DC02FEF3FEF4FE75FE7EF
:1039A000C501B4010E94796218161CF489E494E000
:1039B000D5CF2FEF3FEF4FE75FE4C701B6010E947D
:1039C000066518161CF48DE494E0C8CF2FEF3FEF86
:1039D0004FE75FECC701B6010E94796287FDF3CF24
:1039E00020E030E0A901C701B6010E94796210E031
:1039F00000E087FF08C08DE20E940D098C01F7FAF4
:103A0000F094F7F8F094C0E060E070E080E09FE3AD
:103A10007C1641F020E030E040E251E40E946D6409
:103A2000CF5FF6CFA70196010E9409642B013C01EC
:103A30000E94DA644B015C014AE088DA7C01E00E06
:103A4000F11ECC23A9F1C501B4010E947D629B0146
:103A5000AC01C301B2010E9408644B015C018EE21B
:103A60000E940D09E80EF91EC15010F120E030E06F
:103A700040E251E4C501B4010E94DE622B013C0129
:103A80000E94DA644B01B12CA12C4AE0C501B401BB
:103A90005DDAE80EF91EC501B4010E947D629B014A
:103AA000AC01C301B2010E9408644B015C01DCCF90
:103AB000C701CF911F910F91FF90EF90DF90CF90B2
:103AC000BF90AF909F908F907F906F905F904F903E
:103AD00008958F929F92AF92BF92CF92DF92EF9212
:103AE000FF920F931F93CF93DF93EC018CE492E04E
:103AF0009DDA86E694E09ADA6E018AE0C81A8EEFC3
:103B0000D80AC6010E949D100E947F624B015C0191
:103B1000FE01E15BFC4F60817181828193810E9493
:103B20007F629B01AC01C501B4010E946D6442E05B
:103B3000FBDE86E794E07ADA7E01EAEDEE1AEDEF3D
:103B4000FE0AC7010E949D100E947F624B015C012A
:103B5000FE01ED5AFC4F60817181828193810E9448
:103B60007F629B01AC01C501B4010E946D6442E01B
:103B7000DBDE86E894E05ADA8E010A5A1D4FC8014E
:103B80000E949D100E947F624B015C01C95ADC4F6C
:103B9000688179818A819B810E947F629B01AC014F
:103BA000C501B4010E946D6442E0BEDE32D92EDD53
:103BB00088E492E03BDA86E694E038DAF601A68DF6
:103BC000B78D20893189428953890E94D16301DAF6
:103BD00086E794E02BDAF701A68DB78D208931892D
:103BE000428953890E94D163F4D986E894E01EDAB1
:103BF000F801A68DB78D20893189428953890E94A9
:103C0000D163E7D906D9DF91CF911F910F91FF9032
:103C1000EF90DF90CF90BF90AF909F908F90F6CCB9
:103C2000CF92DF92EF92FF92CF93DF93EC018881E6
:103C30009981AA81BB81181619061A061B0644F041
:103C400081E090E0A0E0B0E088839983AA83BB8301
:103C50008C819D81AE81BF81181619061A061B063C
:103C600044F081E090E0A0E0B0E08C839D83AE83DF
:103C7000BF8388859985AA85BB85181619061A06FB
:103C80001B0644F081E090E0A0E0B0E088879987CF
:103C9000AA87BB8781E594E0C9D986E694E0C6D9B6
:103CA0006E857F85888999890E947F626B017C017E
:103CB000688179818A819B810E947F629B01AC012E
:103CC000C701B6010E946D6442E02EDE86E794E0F3
:103CD000ADD96A897B898C899D890E947F626B013D
:103CE0007C016C817D818E819F810E947F629B011E
:103CF000AC01C701B6010E946D6442E015DE86E8A2
:103D000094E094D96E897F89888D998D0E947F6215
:103D10006B017C01688579858A859B850E947F621D
:103D20009B01AC01C701B6010E946D6442E0FCDD5D
:103D3000CE01DF91CF91FF90EF90DF90CF9066CCD6
:103D400068D86EDF90E080E00895FC018081918169
:103D5000009711F00C949C5D08950C949C5D0C945C
:103D60009C5D0C949C5D0C949C5D0C949C5D0C94EF
:103D70009C5D0C949C5D0C949C5D0C949C5D0C94DF
:103D80009C5D0C949C5D0C949C5D0C949C5D0C94CF
:103D90009C5D0C949C5D0C949C5D0C949C5D0C94BF
:103DA0009C5D0C949C5D0C949C5D0C949C5D0C94AF
:103DB0009C5D0C949C5DCF92DF92EF92FF920F93EB
:103DC0001F93CF93DF938C016A017B01EC01CC0F31
:103DD000DD1F642FCE010E949D639927F7FC9A9501
:103DE0008F2D7E2D6D2DCE0101960E949D630D5865
:103DF00011090330110588F4B701992777FD9095D3
:103E0000892FCE0144960E949D636F2D77278827C6
:103E10009927CE0145960E949D6390E080E0DF9156
:103E2000CF911F910F91FF90EF90DF90CF90089569
:103E30004F925F926F927F928F929F92AF92BF92BA
:103E4000CF92DF92EF92FF920F931F93CF93DF9366
:103E50008C01EC01CC0FDD1FCE010E949563882EF2
:103E6000912CB12CA12CCE0101960E949563C82EF5
:103E7000D12CF12CE12C0D5811090330110508F05B
:103E80005AC0CE0144960E949563482E512C712C45
:103E9000612CCE0145960E949563082F10E030E01A
:103EA00020E08FEF481651046104710429F50F3F9B
:103EB00011052105310501F58FEF88169104A10444
:103EC000B104C9F58FEFC816D104E104F10499F5E6
:103ED0006FEF7FEFCB01DF91CF911F910F91FF909B
:103EE000EF90DF90CF90BF90AF909F908F907F909A
:103EF0006F905F904F9008950038110521053105AE
:103F00003CF7FE2CED2CDC2CCC24C701B601680D4F
:103F1000791D8A1D9B1D320155244424640D751D95
:103F2000861D971D302F222711270027600F711F34
:103F3000821F931FD0CF00E010E09801412C512C3C
:103F4000320180E8C816D104E104F104D4F2C0CFF4
:103F5000EF92FF920F931F93CF93DF938091A70966
:103F60009091A809892B51F586E090E00E94005DB0
:103F70007C0190E080E05CDF1616170654F1C70163
:103F80000E948A10D0E0C0E0CE010E9493078823EF
:103F900069F0FE01EE0FFF1FEE0FFF1FEA53F54F12
:103FA0004081518162817381CE0105DF2196C6393E
:103FB000D10551F7F092A809E092A7098091A709CD
:103FC0009091A809DF91CF911F910F91FF90EF90F1
:103FD000089583E090E02CDF613071058105910543
:103FE00031F506EC1AE0D0E0C0E0CE010E94930764
:103FF0008823B1F0CE011CDFF801608371838283D6
:1040000093836F3F7F4F8F4F9F4F51F4CE010E949C
:10401000D101F8014081518162817381CE01CBDEF3
:1040200021960C5F1F4FC13ED105F9F6C3CFC701E2
:104030000E948A10BFCFCF92DF92EF92FF920F9330
:104040001F93CF93DF937C016B018A01E90180DF2D
:10405000F601EE0FFF1FEE0FFF1FEA53F54F8081B1
:104060009181F7019183808373DF000F111F000F8F
:10407000111FF801EA53F54F81E0408151816281BF
:104080007381413051056105710509F080E0F70148
:1040900082875EDFCC0FDD1FCC0FDD1FCA53D54FEB
:1040A00088819981AA81BB81F70182839383A4834C
:1040B000B5831682178210861186DF91CF911F91EA
:1040C0000F91FF90EF90DF90CF900895CF93DF9303
:1040D000EC012AEC30E04BEC50E069EC70E0ABDF37
:1040E0002EEC30E04FEC50E06DEC70E0CE010C9621
:1040F000A2DF24ED30E045ED50E063ED70E0CE014D
:10410000489699DF28ED30E049ED50E067ED70E02A
:10411000CE01849690DF2EED30E04FED50E06DED56
:1041200070E0CE01C096DF91CF9185CFCF93DF9322
:104130008091AB099091AC09892BA1F48CE390E0BC
:104140000E94005DEC01198218821D861C86198E62
:10415000188E1DA21CA219AA18AAB8DFD093AC0908
:10416000C093AB098091AB099091AC09DF91CF91DD
:1041700008950F931F93CF93DF93EC01E9DEFE01C7
:10418000EB57FC4F8091820C9091830C918380833C
:10419000DFDEFE01E957FC4F8091860C9091870C81
:1041A00091838083D5DEFE01E757FC4F80918A0C16
:1041B00090918B0C91838083CBDE8E0105571C4F31
:1041C0006091AA0C7091AB0C8091AC0C9091AD0CED
:1041D0000E947F62F8016083718382839383B8DEDB
:1041E0000C5F1F4F6091AE0C7091AF0C8091B00CC2
:1041F0009091B10C0E947F62F80160837183828389
:104200009383A6DE0C5F1F4F6091B20C7091B30CCC
:104210008091B40C9091B50C0E947F62F80160838C
:1042200071838283938394DEFE01E656FC4F809176
:104230006A0C90916B0C918380838ADEFE01E456B8
:10424000FC4F80916E0C90916F0C9183808380DE87
:10425000FE01E256FC4F8091720C9091730C918399
:10426000808376DEFE01E056FC4F8091920C9091A7
:10427000930CA091940CB091950C80839183A283B0
:10428000B38366DEFE01EC55FC4F8091960C909155
:10429000970CA091980CB091990C80839183A28384
:1042A000B38356DEFE01E855FC4F80919A0C909145
:1042B0009B0CA0919C0CB0919D0C80839183A28358
:1042C000B38346DEFE01E455FC4F8091BA0C909119
:1042D000BB0C918380833CDEFE01E255FC4F809154
:1042E000BE0C9091BF0C9183808332DEFE01E055BD
:1042F000FC4F8091C20C9091C30C9183808328DE87
:10430000FE01EE54FC4F8091D20C9091D30C91831E
:1043100080831EDEFE01EC54FC4F8091D60C909100
:10432000D70C9183808314DEFE01EA54FC4F809108
:10433000DA0C9091DB0C918380830ADE80915A0C19
:1043400090915B0CA0915C0CB0915D0CFE01E95664
:10435000FC4F0197A105B10551F581E08083F8DD9F
:1043600080915E0C90915F0CA091600CB091610CFB
:10437000FE01E856FC4F0197A105B105D1F481E09B
:104380008083E6DD8091620C9091630CA091640CB7
:10439000B091650CC756DC4F0197A105B10559F4E2
:1043A00081E08883DF91CF911F910F910895108252
:1043B000D6CF1082E6CF1882F5CF2F923F924F9240
:1043C0005F926F927F928F929F92AF92BF92CF92A5
:1043D000DF92EF92FF920F931F93CF93DF93CDB7AE
:1043E000DEB76F970FB6F894DEBF0FBECDBF9B8FC1
:1043F0008A8FAEDDEA8DFB8DEF55FD4F81E0409158
:10440000920B5091930B6091940B7091950B452BEF
:10441000462B472B09F480E080839ADDEA8DFB8DE3
:10442000EE55FD4F81E04091960B5091970B6091B6
:10443000980B7091990B452B462B472B09F480E084
:10444000808386DDEA8DFB8DED55FD4F81E0409147
:104450009A0B50919B0B60919C0B70919D0B452B7F
:10446000462B472B09F480E0808372DD8091E20BBC
:104470009091E30BA091E40BB091E50BEA8DFB8DDD
:10448000EC55FD4F80839183A283B38361DD8091DE
:10449000E60B9091E70BA091E80BB091E90BEA8D48
:1044A000FB8DE855FD4F80839183A283B38350DD5C
:1044B0008091EA0B9091EB0BA091EC0BB091ED0B7E
:1044C000EA8DFB8DE455FD4F80839183A283B383F6
:1044D0003FDD8091E20B9091E30BA091E40BB09152
:1044E000E50BEA8DFB8DE055FD4F80839183A28320
:1044F000B3832EDD8091E60B9091E70BA091E80B42
:10450000B091E90BEA8DFB8DEC54FD4F80839183D4
:10451000A283B3831DDD8091EE0B9091EF0BA091F0
:10452000F00BB091F10BEA8DFB8DE854FD4F8083C9
:104530009183A283B3830CDD8091BA0B9091BB0B66
:10454000A091BC0BB091BD0BEA8DFB8DE853FD4FE4
:1045500080839183A283B383FBDC8091BE0B909117
:10456000BF0BA091C00BB091C10BEA8DFB8DE45342
:10457000FD4F80839183A283B383EADC8091C20BD9
:104580009091C30BA091C40BB091C50BEA8DFB8D2C
:10459000E053FD4F80839183A283B383D9DC809164
:1045A000BA0B9091BB0BA091BC0BB091BD0BEA8DE7
:1045B000FB8DEC52FD4F80839183A283B383C8DCD3
:1045C0008091BE0B9091BF0BA091C00BB091C10B1D
:1045D000EA8DFB8DE852FD4F80839183A283B383E4
:1045E000B7DC8091C60B9091C70BA091C80BB0911E
:1045F000C90BEA8DFB8DE452FD4F80839183A2832A
:10460000B383A6DC8091CA0B9091CB0BA091CC0B0D
:10461000B091CD0BEA8DFB8DE052FD4F80839183ED
:10462000A283B38395DC8091CE0B9091CF0BA091A8
:10463000D00BB091D10BEA8DFB8DEC51FD4F8083F7
:104640009183A283B38384DC8091D20B9091D30BAE
:10465000A091D40BB091D50BEA8DFB8DE851FD4FA5
:1046600080839183A283B38373DC80916A0B9091E2
:104670006B0BA0916C0BB0916D0BEA8DFB8DE4512F
:10468000FD4F80839183A283B38362DC80916E0BA4
:1046900090916F0BA091700BB091710BEA8DFB8D17
:1046A000E051FD4F80839183A283B38351DC8091DD
:1046B000720B9091730BA091740BB091750BEA8DF6
:1046C000FB8DEC50FD4F80839183A283B38340DC4C
:1046D00080916A0B90916B0BA0916C0BB0916D0B5C
:1046E000EA8DFB8DE850FD4F80839183A283B383D5
:1046F0002FDC80916E0B90916F0BA091700BB0919D
:10470000710BEA8DFB8DE450FD4F80839183A28372
:10471000B3831EDC8091760B9091770BA091780B80
:10472000B091790BEA8DFB8DFD5F80839183A2832D
:10473000B3830EDCEA8DFB8DEC5FFC4F81E02091B2
:10474000420B3091430B2130310509F080E080832A
:10475000FFDBEA8DFB8DEB5FFC4F81E02091460B88
:104760003091470B2130310509F080E08083F0DB88
:10477000EA8DFB8DEA5FFC4F81E020914A0B30917E
:104780004B0B2130310509F080E08083E1DBEA8DBD
:10479000FB8DE65CFC4F81E040911A0B50911B0BA6
:1047A00060911C0B70911D0B452B462B472B09F478
:1047B00080E08083CDDBEA8DFB8DE55CFC4F81E002
:1047C00040911E0B50911F0B6091200B7091210B9B
:1047D000452B462B472B09F480E08083B9DBEA8D1B
:1047E000FB8DE45CFC4F81E04091220B5091230B48
:1047F0006091240B7091250B452B462B472B09F418
:1048000080E08083A5DBEA8DFB8DE35CFC4F81E0DB
:104810004091F20B5091F30B6091F40B7091F50BFA
:10482000452B462B472B09F480E0808391DBEA8DF2
:10483000FB8DE25CFC4F81E04091F60B5091F70B51
:104840006091F80B7091F90B452B462B472B09F41F
:1048500080E080837DDBEA8DFB8DE15CFC4F81E0B5
:104860004091FA0B5091FB0B6091FC0B7091FD0B8A
:10487000452B462B472B09F480E0808369DBEA8DCA
:10488000FB8DE05CFC4F81E020912A0B30912B0BDB
:104890002130310509F080E080835ADBEA8DFB8D01
:1048A000EF5BFC4F81E020912E0B30912F0B2130DC
:1048B000310509F080E080834BDBEA8DFB8DEE5BF8
:1048C000FC4F81E02091320B3091330B21303105C8
:1048D00009F080E080833CDB8091F20A9091F30A3A
:1048E000A091F40AB091F50AEA8DFB8DED5BFC4FC7
:1048F00080839183A283B3832BDB8091F60A90910E
:10490000F70AA091F80AB091F90AEA8DFB8DE95BEC
:10491000FC4F80839183A283B3831ADB8091FA0AD0
:104920009091FB0AA091FC0AB091FD0AEA8DFB8DE3
:10493000E55BFC4F80839183A283B38309DBEA8D1F
:10494000FB8DE25DFC4F81E04091020B5091030B27
:104950006091040B7091050B452B462B472B09F4F6
:1049600080E08083F5DAEA8DFB8DE15DFC4F81E02C
:104970004091060B5091070B6091080B7091090B49
:10498000452B462B472B09F480E08083E1DAEA8D42
:10499000FB8DE05DFC4F81E040910A0B50910B0BC9
:1049A00060910C0B70910D0B452B462B472B09F496
:1049B00080E08083CDDA8091FA0C9091FB0CA0917D
:1049C000FC0CB091FD0CEA8DFB8DE95FFC4F808300
:1049D0009183A283B383BCDA8091FE0C9091FF0C8B
:1049E000A091000DB091010DEA8DFB8DE55FFC4FAC
:1049F00080839183A283B383ABDA8091020D90917F
:104A0000030DA091040DB091050DEA8DFB8DE15FC2
:104A1000FC4F80839183A283B3839ADAEA8DFB8D66
:104A2000EF5CFC4F81E020915A0B30915B0B213001
:104A3000310509F080E08083EA8DFB8DEE5CFC4F50
:104A40001082EA8DFB8DED5CFC4F108281DAEA8DDD
:104A5000FB8DEC5CFC4F81E02091560B3091570BA5
:104A60002130310509F080E08083EA8DFB8DEB5C1D
:104A7000FC4F1082EA8DFB8DEA5CFC4F108268DAF5
:104A8000EA8DFB8DE95CFC4F81E020917A0B30913F
:104A90007B0B2130310509F080E0808359DAEA8D03
:104AA000FB8DE85CFC4F81E020917E0B30917F0B09
:104AB0002130310509F080E080834ADAEA8DFB8DF0
:104AC000E75CFC4F81E02091820B3091830B213019
:104AD000310509F080E080833BDAEA8DFB8DED5EE5
:104AE000FC4F81E020910A0D30910B0D21303105F2
:104AF00009F080E080832CDAEA8DFB8DEC5EFC4FC0
:104B000081E020910E0D30910F0D2130310509F01B
:104B100080E080831DDAEA8DFB8DEB5EFC4F81E047
:104B20002091120D3091130D2130310509F080E0F4
:104B300080830EDA80914A0D90914B0DA0914C0D1F
:104B4000B0914D0DEA8DFB8DEA5EFC4F8083918321
:104B5000A283B383FDD980914E0D90914F0DA0910A
:104B6000500DB091510DEA8DFB8DE65EFC4F8083B8
:104B70009183A283B383ECD98091520D9091530D10
:104B8000A091540DB091550DEA8DFB8DE25EFC4F66
:104B900080839183A283B383DBD980917A0D909136
:104BA0007B0DA0917C0DB0917D0DEA8DFB8DEE5DAE
:104BB000FC4F80839183A283B383CAD980917A0DFD
:104BC00090917B0DA0917C0DB0917D0DEA8DFB8DB8
:104BD000EA5DFC4F80839183A283B383B9D980912E
:104BE0007A0D90917B0DA0917C0DB0917D0DEA8D99
:104BF000FB8DE65DFC4F80839183A283B383A8D9AC
:104C00000A8D1B8D015B1C4F8091A20B9091A30B11
:104C1000A091A40BB091A50BF80180839183A2838E
:104C2000B38396D9EA8CFB8CFDEAEF1AFCEFFF0AFE
:104C30008091A60B9091A70BA091A80BB091A90B06
:104C4000F70180839183A283B38382D98091AA0BD9
:104C50009091AB0BA091AC0BB091AD0BCA8CDB8CDF
:104C6000F9EACF1AFCEFDF0AF60180839183A28371
:104C7000B383F80140815181628173811416150656
:104C80001606170644F041E050E060E070E0408313
:104C9000518362837383F701408151816281738103
:104CA000141615061606170644F041E050E060E0C1
:104CB00070E04083518362837383181619061A06C5
:104CC0001B064CF081E090E0A0E0B0E0F6018083AC
:104CD0009183A283B3830E940917FC01D6018D90B2
:104CE0009D90AD90BC90D7014D915D916D917C915F
:104CF000D8010D911D912D913C9100831183228348
:104D00003383448355836683778380869186A28626
:104D1000B386EA8DFB8D7096FA83E983EA8DFB8D6D
:104D2000ED5EFC4F80808B82EA8DFB8DE95FFC4F4E
:104D30004080518062807380EA8DFB8DE95CFC4F7E
:104D400090809A86EA8DFB8DE05CFC4FA080AC825F
:104D5000EA8DFB8DEF5CFC4FB080BD82EA8DFB8D50
:104D6000EC5CFC4F20812E83EA8DFB8DE35CFC4FD5
:104D700080818E87EA8DFB8DE65CFC4F90819A8B5B
:104D8000EA8DFB8DEC5FFC4F2080EA8DFB8DEF55AB
:104D9000FD4F3080EA8DFB8DED5BFC4F8080918074
:104DA000A280B380EA8DFB8DE451FD4F808191811B
:104DB000A281B381EA8DFB8DE052FD4FC080D1808E
:104DC000E280F380EA8DFB8DE853FD4F40815181F5
:104DD00062817381EA8DFB8DEC55FD4F008111815D
:104DE00022813381EA8DFB8D04AF15AF26AF37AF3B
:104DF000EC5BFF4F4083518362837383EA8DFB8DAD
:104E0000E05BFF4F80839183A283B383EA8DFB8DA8
:104E1000E05CFF4F0083118322833383EA8DFB8D97
:104E2000E85BFF4F4083518362837383EA8DFB8D80
:104E3000EC5AFF4F80839183A283B383EA8DFB8D6D
:104E4000E45BFF4FC082D182E282F382EA8DFB8D68
:104E5000E85AFF4F80829182A282B382EA8DFB8D55
:104E6000E45AFF4F3082EA8DFB8DE35AFF4F2082D8
:104E7000EA89AA8DBB8DD996EC93D997FE85DA96EF
:104E8000FC93DA978C80DB968C9280E490E0A0E033
:104E9000B0E0EA8DFB8DE05AFF4F80839183A283BF
:104EA000B383EA8DFB8DE25AFF4F9E809082EA8D9C
:104EB000FB8DE15AFF4FAD80A082EA8DFB8DEC594E
:104EC000FF4FBA84B082EA8DFB8DEB59FF4F4082D1
:104ED000518262827382EA8DFB8DE759FF4F2B81ED
:104EE0002083AA8DBB8D99968D919C919A9786333C
:104EF000910509F0E6C289EC91E1FD01EE55FF4F05
:104F0000918380833296118210828BEC91E13696E8
:104F100091838083329611821082EA8DFB8D87A562
:104F200090A94A97D1F48DED91E1EA55FF4F918315
:104F30008083EA8DFB8DE855FF4F118210828FED43
:104F400091E1EA8DFB8DE255FF4F91838083EA8DDD
:104F5000FB8DE055FF4F118210820A8D1B8D0E5480
:104F60001F4FEA8DFB8DEC5EFC4F80808B82EA8DBB
:104F7000FB8DE55FFC4F80819181A281B3818A879F
:104F80009B87AC87BD87EA8DFB8DE85CFC4F9081E9
:104F90009C83EA8DFB8DEF5BFC4FA081AD83EA8D96
:104FA000FB8DEE5CFC4FB081BE83EA8DFB8DEB5C2C
:104FB000FC4F80808E86EA8DFB8DE25CFC4F20806A
:104FC000EA8DFB8DE55CFC4F3080EA8DFB8DEB5F5D
:104FD000FC4F3081EA8DFB8DEE55FD4F2081EA8D2F
:104FE000FB8DE95BFC4F4081518162817381EA8DC9
:104FF000FB8DE051FD4F80819181A281B381EA8DCB
:10500000FB8DEC51FD4FC080D180E280F380EA8DB2
:10501000FB8DE453FD4F80809180A280B380EA8DA8
:10502000FB8DE855FD4F4080518062807380F80110
:1050300044A655A666A677A684AA95AAA6AAB7AA44
:10504000EA8DFB8DEE50FF4F80839183A283B38363
:10505000F80140AA51AA62AA73AA80AE91AEA2AE8C
:10506000B3AEEA8DFB8DEA50FF4F80839183A2831C
:10507000B383D801DC96CD92DD92ED92FC92DF975E
:10508000EA8DFB8DE650FF4F40835183628373832B
:10509000EA8DFB8DE250FF4F2083EA8DFB8DE150BE
:1050A000FF4F308399963C9299979A962C929A97B3
:1050B000ED819B96EC9380E490E0A0E0B0E0EA8D77
:1050C000FB8DEE5FFE4F80839183A283B383EA8DD5
:1050D000FB8DF3958E848082EA8DFB8DEF5FFE4F12
:1050E0009E809082EA8DFB8DEA5FFE4FAC80A082AD
:1050F000EA8DFB8DE95FFE4F8A859B85AC85BD857A
:1051000080839183A283B383EA8DFB8DE55FFE4F9D
:105110009B819083D80159968D919C9186339105FE
:1051200009F001C289EC91E1EA8DFB8DEC5BFE4F49
:1051300091838083EA8DFB8DEA5BFE4F11821082A2
:105140008BEC91E1EA8DFB8DE45BFE4F91838083D4
:10515000EA8DFB8DE25BFE4F11821082F801878D94
:1051600090A14A97E1F48DED91E1EA8DFB8DE85B2A
:10517000FE4F91838083EA8DFB8DE65BFE4F1182AB
:1051800010828FED91E1EA8DFB8DE05BFE4F918304
:105190008083EA8DFB8DEE5AFE4F11821082EA8CDD
:1051A000FB8CFCEAEF1AFEEFFF0AEA8DFB8DEB5E4B
:1051B000FC4F80808B82EA8DFB8DE15FFC4F80810C
:1051C0009181A281B3818A879B87AC87BD87EA8D55
:1051D000FB8DE75CFC4F90819C83EA8DFB8DEE5B41
:1051E000FC4F3080EA8DFB8DED5CFC4FA081AD83E0
:1051F000EA8DFB8DEA5CFC4F2080EA8DFB8DE15C43
:10520000FC4FC080EA8DFB8DE45CFC4FD080EA8DC2
:10521000FB8DEA5FFC4F3081EA8DFB8DED55FD4F34
:105220002081EA8DFB8DE55BFC4F80809180A28020
:10523000B3808E829F82A886B986EA8DFB8DFD5F42
:1052400080819181A281B3818E879F87A88BB98B42
:10525000EA8DFB8DEC50FD4F80809180A280B38061
:105260008C8E9D8EAE8EBF8EEA8DFB8DE851FD4FEC
:1052700080819181A281B3818A8B9B8BAC8BBD8B0A
:10528000EA8DFB8DE452FD4F80819181A281B38133
:10529000EA8DFB8DE053FD4F40805180628073802A
:1052A000EA8DFB8DE854FD4F40815181628173810D
:1052B000EA8DFB8DE455FD4F80809180A280B38004
:1052C000F70184A695A6A6A6B7A644AA55AA66AADB
:1052D00077AAEA8DFB8DEC56FE4F8C8C9D8CAE8CA4
:1052E000BF8C80829182A282B382F70140AB51AB26
:1052F00062AB73AB80AF91AFA2AFB3AFEA8DFB8D62
:10530000E856FE4F8E849F84A888B9888082918257
:10531000A282B3828A899B89AC89BD89F70184AF57
:1053200095AFA6AFB7AFEA8DFB8DE456FE4F8E80EA
:105330009F80A884B98480829182A282B382EA8D00
:10534000FB8DE056FE4F2083EA8DFB8DEF55FE4F1F
:105350003083D7019996DC9299979A96CC929A9736
:105360009B963C9280E490E0A0E0B0E0EA8DFB8D5B
:10537000EC55FE4F80839183A283B383EA8DFB8D2E
:10538000EE55FE4F2082EA8DFB8DED55FE4FBD811F
:10539000B083EA8DFB8DE855FE4F8C808082EA8DCC
:1053A000FB8DE755FE4F8A859B85AC85BD85808347
:1053B0009183A283B383EA8DFB8DE355FE4F9B81DE
:1053C0009083D70159968D919C918633910509F070
:1053D000D2C089EC91E1EA8DFB8DEA51FE4F9183B9
:1053E0008083EA8DFB8DE851FE4F118210828BEC99
:1053F00091E1EA8DFB8DE251FE4F91838083EA8D2E
:10540000FB8DE051FE4F11821082F701878D90A134
:105410004A97E1F48DED91E1EA8DFB8DE651FE4F67
:1054200091838083EA8DFB8DE451FE4F11821082BF
:105430008FED91E1EA8DFB8DEE50FE4F91838083DD
:10544000EA8DFB8DEC50FE4F11821082EA8DFB8DB0
:10545000E25DFC4F8081882309F4B5C089819A817F
:105460000E94AE12EA8DFB8DE15DFC4F80818823A6
:1054700009F4AEC0C8010E94AE128A8D9B8D805D7A
:105480009C4FDC018C91882309F4A6C0C7016F965C
:105490000FB6F894DEBF0FBECDBFDF91CF911F9145
:1054A0000F91FF90EF90DF90CF90BF90AF909F90C3
:1054B0008F907F906F905F904F903F902F900C94C3
:1054C000AE128C339105D9F48DEC91E1EA8DFB8D10
:1054D000EE55FF4F91838083EA8DFB8DEC55FF4F96
:1054E000118210828FEC91E1EA8DFB8DE655FF4F22
:1054F00091838083EA8DFB8DE455FF4F0CCD8E9711
:1055000009F00BCD81ED91E1EA8DFB8DEE55FF4F5A
:1055100091838083EA8DFB8DEC55FF4F11821082C1
:1055200087ED91E1E1CF8C33910589F48DEC91E128
:10553000EA8DFB8DEC5BFE4F91838083EA8DFB8DC2
:10554000EA5BFE4F118210828FEC91E1FBCD8E97CA
:1055500009F004CE81ED91E1EA8DFB8DEC5BFE4F0D
:1055600091838083EA8DFB8DEA5BFE4F118210826E
:1055700087ED91E1E7CD8C33910589F48DEC91E1D4
:10558000EA8DFB8DEA51FE4F91838083EA8DFB8D7E
:10559000E851FE4F118210828FEC91E12ACF8E9755
:1055A00009F033CF81ED91E1EA8DFB8DEA51FE4F99
:1055B00091838083EA8DFB8DE851FE4F118210822A
:1055C00087ED91E116CF89819A810E946D124ACFB1
:1055D000C8010E946D1251CFC7016F960FB6F894A3
:1055E000DEBF0FBECDBFDF91CF911F910F91FF9016
:1055F000EF90DF90CF90BF90AF909F908F907F9073
:105600006F905F904F903F902F900C946D12AF92DF
:10561000BF92CF92DF92EF92FF920F931F93CF939F
:10562000DF93EC018AE190E09AA789A78BE190E0F3
:105630009CA78BA789E190E09EA78DA78FE090E0C3
:1056400098AB8FA78EE190E09AAB89AB8EE090E0AB
:105650009CAB8BAB85E490E09EAB8DAB84E490E09B
:1056600098AF8FABFE01EE54FF4F80E290E0928F37
:10567000818F81E290E0948F838F8FE190E0968F0D
:10568000858F10A2178E12A211A214A213A283E476
:1056900090E096A385A382E490E090A787A3EE55BF
:1056A000FF4F83E290E0928F818F84E290E0948FAD
:1056B000838F82E290E0968F858F10A2178E12A2C0
:1056C00011A214A213A281E490E096A385A380E422
:1056D00090E090A787A3E95BFE4F1182108232967B
:1056E00011821082329611821082CE010E94DD2139
:1056F000CE010E94B920CE018A509E4F41E050E079
:10570000FC0157A746A7DE01AA5DBD4F24E030E0AB
:105710009F963C932E939E975E01FAEAAF1AFDEF97
:10572000BF0A28E030E0F50137A726A720E130E0E6
:10573000FC013183208321E130E0358324832FEF86
:105740003FEF3383228337832683628560876385B7
:10575000618767E170E011967C936E9368E170E079
:1057600015967C936E93149713963C932E931297F1
:1057700017963C932E9316971A966C911A97189633
:105780006C9318971B966C911B9719966C931997AD
:105790006DE170E0F501718360836CE170E0758309
:1057A000648333832283378326836285608763859E
:1057B0006187BE016E547C4FFB01608171818E0157
:1057C00000561C4FF801C080D180E280F380065063
:1057D0001109F80100811181FC01158F048FC48A21
:1057E000D58AE68AF78A6130710509F04EC0378F95
:1057F000268FCE018C549C4FFC01808191819E01AB
:105800002C553C4FF90140815181628173812850B0
:105810003109F901208131815D963C932E935C978B
:1058200054964D935D936D937C935797019781F5B3
:105830008FEF9FEF5F969C938E935E97DE01AA5445
:10584000BC4F8D919C9111971E974D915D916D91DB
:105850007C91C256DC4F28813981F501358F248F28
:10586000448B558B668B778B0197A9F48FEF9FEF55
:10587000978F868FDF91CF911F910F91FF90EF90BF
:10588000DF90CF90BF90AF900895578F468FB1CFE4
:1058900081E090E0CFCF81E090E0EACFBF92CF925D
:1058A000DF92EF92FF920F931F93CF93DF93EC0160
:1058B0000E94A81FE090120CF090130C0E94A81FE9
:1058C000C090220CD090230C0E94A81FB0903A0CDC
:1058D00010913B0C0E94A81F01E08091620D9091F5
:1058E000630D019709F000E02B2D312F12161306DE
:1058F00014F021E030E0A601B701CE018C5A9E4F92
:105900000E94B814DF91CF911F910F91FF90EF90FB
:10591000DF90CF90BF900895BF92CF92DF92EF9229
:10592000FF920F931F93CF93DF93EC010E94A81F68
:10593000E0900E0CF0900F0C0E94A81FC0901E0C5F
:10594000D0901F0C0E94A81FB090360C1091370CFD
:105950000E94A81F01E080915E0D90915F0D01975C
:1059600009F000E02B2D312F1216130614F021E060
:1059700030E0A601B701CE018E549F4F0E94B814AB
:10598000DF91CF911F910F91FF90EF90DF90CF901B
:10599000BF900895BF92CF92DF92EF92FF920F9344
:1059A0001F93CF93DF93EC010E94A81FE0900A0C95
:1059B000F0900B0C0E94A81FC0901A0CD0901B0CEA
:1059C0000E94A81FB090320C1091330C0E94A81FA7
:1059D00001E080915A0D90915B0D019709F000E074
:1059E0002B2D312F1216130614F021E030E0A60102
:1059F000B701CE0140960E94B814DF91CF911F915C
:105A00000F91FF90EF90DF90CF90BF9008958F920D
:105A10009F92AF92BF92CF92DF92EF92FF92CF937D
:105A2000DF937B010E94A81FEC01F70182A093A0E5
:105A3000A4A0B5A0C68CD78CE0A0F1A08A819B81E0
:105A40008F30F7E29F070CF043C001969B838A8357
:105A50008C819D818F3027E29207ECF596012B7F98
:105A6000215531092330310530F096012B5531098C
:105A70002330310518F401969D838C83C6010E9462
:105A80009307882359F1F601EE0FFF1FEE0FFF1F5A
:105A9000EA53F54F80829182A282B382B501A401BC
:105AA000C6010E94DB1EB601CE010E94E51B0E94CA
:105AB00096200E94662090E080E0DF91CF91FF90D9
:105AC000EF90DF90CF90BF90AF909F908F90089510
:105AD0001B821A82BDCF1D821C82D0CF80EF93E043
