:100000009DC10000CCC10000CAC10000C8C10000F1
:10001000C6C10000C4C10000C2C10000C0C10000D0
:10002000BEC10000BCC10000BAC10000B8C10000E0
:10003000B6C10000B4C10000B2C10000B0C10000F0
:10004000AEC100000C94DE47AAC10000A8C10000A8
:100050000C940C48A4C10000A2C100000C940A47F3
:100060009EC100000C94D4460C94AA4698C100008E
:1000700096C1000094C1000092C1000090C1000030
:100080000C94B0478CC100008AC1000088C10000F8
:1000900086C1000084C1000082C1000080C1000050
:1000A0007EC100007CC100000C94824778C1000032
:1000B00076C1000074C1000072C100000C94544766
:1000C0006EC100006CC100006AC1000068C1000080
:1000D00066C1000064C1000062C1000060C1000090
:1000E0005EC100004E414E494E495459494E46CDDD
:1000F000CCCC3D0AD7233C17B7D13877CC2B3295DF
:1001000095E6241FB14F0A000020410000C84200BC
:10011000401C4620BCBE4CCA1B0E5AAEC59D740086
:10012000407A10F35A00A0724E18090010A5D4E8C6
:100130000000E87648170000E40B54020000CA9A59
:100140003B000000E1F505000080969800000040AB
:10015000420F000000A086010000001027000000F0
:1001600000E803000000006400000000000A000036
:100170000000000100000000002C76D888DC674FEA
:100180000823DFC1DFAE59E1B1B796E5E3E453C61A
:100190003AE651997696E8E6C28426EB898C9B6212
:1001A000ED407C6FFCEFBC9C9F40F2BAA56FA5F4BC
:1001B00090055A2AF75C936B6CF9676DC11BFCE0E4
:1001C000E40D47FEF520E6B500D0ED902E03009437
:1001D0003577050080841E080000204E0A000000CC
:1001E000C80C333333330F986E12831141EF8D21D6
:1001F00014893BE65516CFFEE6DB18D1844B381B3D
:10020000F77C1D901DA4BBE424203284725E228101
:1002100000C9F124ECA1E53D2700002200250028BB
:10022000002B002E003100340002010000050108FF
:10023000010B01000020002300260029002C002FC4
:100240000032000001000003010601090100000A5C
:100250000B02090C0D0E080703040100000000004A
:10026000000000000000000000000000000000008E
:10027000000000000000000000121110000000004B
:10028000000000000000000000000000000000006E
:1002900000000000002100240027002A002D00306B
:1002A00000330001010000040107010A01010210EE
:1002B0002020080810204010204080020102010880
:1002C0000402010102040810204080804020100830
:1002D0000402018004020180402010080402010889
:1002E00004020101020408102040800102040810E9
:1002F00020408005050505070508080808020202D8
:10030000020A0A08080404040401010101010101B0
:10031000010303030303030303040707070C0C0C87
:100320000C0C0C0C0C02020202060606060606065F
:10033000060B0B0B0B0B0B0B0B00374811241FBECE
:10034000CFEFD1E2DEBFCDBF00E00CBF19E0A0E0EF
:10035000B2E0E2E4FBEB00E00BBF02C007900D92BD
:10036000A430B107D9F72EE0A4E0B9E001C01D9296
:10037000A03FB207E1F711E0CEE9D1E000E006C00E
:1003800021970109802FFE010E948A5CCD39D10797
:1003900080E00807A9F70E94A8480C949F5D30CE22
:1003A0008CBD9DBD08959C01803E910508F0B1C5AE
:1003B000FC018827E152FE4F8F4F0C948A5CBF02EC
:1003C000CC02D502DE02EB02F40289078907890715
:1003D0008907890701030E031B03890728033103DB
:1003E0003A0347035003590362036B0374038907FD
:1003F0007D0386038F038907890789079803A10373
:10040000AA0389078907B303C003890789078907F6
:10041000CD03DA03E703F40301040A041304890794
:10042000890789071C0425042E0489073B04480416
:10043000550489078907890762046F047C048904CD
:100440009604A304B004890789078907BD04CA0478
:10045000D704E404F104FA0403058907890789072E
:1004600090059D05AA058907B705C405D10589072B
:1004700089078907DE05E705F005890789078907E8
:100480008907890789078907F90502060B06890785
:1004900014061D0626068907890789072F063C06CC
:1004A0004906890756066306700689078907890782
:1004B0007D068A0697068907A406AD06B606890753
:1004C00089078907BF06C806D106890789078907F2
:1004D000890789078907890789078907890789079C
:1004E0000C0515051E0589078907890789078907EE
:1004F000890789078907890789078907890789077C
:10050000270534054105890775057E058705890797
:10051000890789074E055B056805890789078907EB
:10052000890789078907890789078907890789074B
:10053000890789078907890789078907890789073B
:10054000890789078907890789078907890789072B
:10055000DA06E306F0068907FD0606071307890792
:1005600089078907200729073607890743074C07AA
:10057000590789078907890766076F077C0781E0A4
:1005800090E0A0E0B0E08093270A9093280AA0931F
:10059000290AB0932A0A089510922B0A10922C0A65
:1005A00010922D0A10922E0A089510922F0A10927E
:1005B000300A1092310A1092320A089581E090E0D8
:1005C000A0E0B0E08093330A9093340AA093350AF8
:1005D000B093360A08951092370A1092380A109292
:1005E000390A10923A0A089583E090E0A0E0B0E062
:1005F00080933B0A90933C0AA0933D0AB0933E0A35
:10060000089588E790E0A0E0B0E08093530A9093CB
:10061000540AA093550AB093560A089588E790E0CB
:10062000A0E0B0E08093570A9093580AA093590A2B
:10063000B0935A0A089588E790E0A0E0B0E0809374
:100640005B0A90935C0AA0935D0AB0935E0A0895DA
:100650001092630A1092640A1092650A1092660A58
:1006600008951092670A1092680A1092690A10920F
:100670006A0A089581E090E0A0E0B0E080936B0A00
:1006800090936C0AA0936D0AB0936E0A089510922D
:100690006F0A1092700A1092710A1092720A0895ED
:1006A0001092730A1092740A1092750A1092760AC8
:1006B00008951092770A1092780A1092790A10928F
:1006C0007A0A089510927B0A10927C0A10927D0A91
:1006D00010927E0A089510927F0A1092800A10925A
:1006E000810A1092820A08951092830A1092840A55
:1006F0001092850A1092860A089510928B0A109221
:100700008C0A10928D0A10928E0A089510928F0A08
:100710001092900A1092910A1092920A08951092E3
:10072000930A1092940A1092950A1092960A0895CC
:100730001092A30A1092A40A1092A50A1092A60A77
:1007400008951092A70A1092A80A1092A90A10926E
:10075000AA0A08951092AB0A1092AC0A1092AD0A40
:100760001092AE0A089581E090E0A0E0B0E080939E
:10077000B70A9093B80AA093B90AB093BA0A089539
:1007800081E090E0A0E0B0E08093BB0A9093BC0AC7
:10079000A093BD0AB093BE0A08958CE291E0A0E058
:1007A000B0E08093CB0A9093CC0AA093CD0AB0938B
:1007B000CE0A08958CE291E0A0E0B0E08093CF0AE9
:1007C0009093D00AA093D10AB093D20A08958CE2F4
:1007D00091E0A0E0B0E08093D30A9093D40AA09374
:1007E000D50AB093D60A08958CE291E0A0E0B0E07B
:1007F0008093D70A9093D80AA093D90AB093DA0AC3
:1008000008951092DB0A1092DC0A1092DD0A109211
:10081000DE0A08951092DF0A1092E00A1092E10AAF
:100820001092E20A08951092E30A1092E40A1092DC
:10083000E50A1092E60A08951092F30A1092F40A5B
:100840001092F50A1092F60A08951092F70A109283
:10085000F80A1092F90A1092FA0A089581E090E0DD
:10086000A0E0B0E08093FB0A9093FC0AA093FD0AFD
:10087000B093FE0A089585E090E0A0E0B0E0809398
:10088000030B9093040BA093050BB093060B0895F4
:1008900085E090E0A0E0B0E08093070B9093080B18
:1008A000A093090BB0930A0B089589E190E0A0E0B2
:1008B000B0E080930B0B90930C0BA0930D0BB093B7
:1008C0000E0B089582E390E0A0E0B0E080931B0B54
:1008D00090931C0BA0931D0BB0931E0B089582E305
:1008E00090E0A0E0B0E080931F0B9093200BA093CA
:1008F000210BB093220B089582E390E0A0E0B0E0DA
:100900008093230B9093240BA093250BB093260B7D
:10091000089582E390E0A0E0B0E08093270B9093ED
:10092000280BA093290BB0932A0B089582E390E043
:10093000A0E0B0E080932B0B90932C0BA0932D0B99
:10094000B0932E0B089582E390E0A0E0B0E0809396
:100950002F0B9093300BA093310BB093320B089573
:1009600082E390E0A0E0B0E08093330B9093340BEF
:10097000A093350BB093360B089580E991E0A0E089
:10098000B0E08093430B9093440BA093450BB0933E
:10099000460B089580E991E0A0E0B0E08093470B1A
:1009A0009093480BA093490BB0934A0B089580E9AC
:1009B00091E0A0E0B0E080934B0B90934C0BA093A0
:1009C0004D0BB0934E0B089580E991E0A0E0B0E0AC
:1009D00080934F0B9093500BA093510BB093520BFD
:1009E00008951092530B1092540B1092550B1092C5
:1009F000560B08951092570B1092580B1092590BEA
:100A000010925A0B089510925B0B10925C0B10928F
:100A10005D0B10925E0B089510926B0C10926C0C93
:100A200010926D0C10926E0C089510926F0C109233
:100A3000700C1092710C1092720C08951092730C3D
:100A40001092740C1092750C1092760C089583E03D
:100A500090E0A0E0B0E08093AB0C9093AC0CA0933E
:100A6000AD0CB093AE0C089583E090E0A0E0B0E050
:100A70008093AF0C9093B00CA093B10CB093B20CD8
:100A8000089583E090E0A0E0B0E08093B30C9093F1
:100A9000B40CA093B50CB093B60C08958AE090E026
:100AA000A0E0B0E08093D30C9093D40CA093D50C2D
:100AB000B093D60C08958AE090E0A0E0B0E0809377
:100AC000D70C9093D80CA093D90CB093DA0C08955E
:100AD0008AE090E0A0E0B0E08093DB0C9093DC0C27
:100AE000A093DD0CB093DE0C08951092BB0C109215
:100AF000BC0C1092BD0C1092BE0C08951092BF0C4D
:100B00001092C00C1092C10C1092C20C0895109259
:100B1000C30C1092C40C1092C50C1092C60C089510
:100B200088E592E0A0E0B0E080936B0B90936C0BB3
:100B3000A0936D0BB0936E0B089588E592E0A0E052
:100B4000B0E080936F0B9093700BA093710BB093F8
:100B5000720B089588E592E0A0E0B0E08093730BFB
:100B60009093740BA093750BB093760B08958EE160
:100B700090E0A0E0B0E080937B0B90937C0BA0937F
:100B80007D0BB0937E0B08958EE190E0A0E0B0E085
:100B900080937F0B9093800BA093810BB093820B7B
:100BA00008958EE190E0A0E0B0E08093830B9093F5
:100BB000840BA093850BB093860B08951092930B32
:100BC0001092940B1092950B1092960B0895109220
:100BD000970B1092980B1092990B10929A0B089504
:100BE00010929B0B10929C0B10929D0B10929E0BDF
:100BF00008951092BB0B1092BC0B1092BD0B10927B
:100C0000BE0B08951092BF0B1092C00B1092C10B37
:100C10001092C20B08951092C30B1092C40B109245
:100C2000C50B1092C60B08951092CB0B1092CC0BF3
:100C30001092CD0B1092CE0B08951092CF0B109204
:100C4000D00B1092D10B1092D20B08951092D30BAF
:100C50001092D40B1092D50B1092D60B089585E00C
:100C600090E0A0E0B0E08093E30B9093E40BA093BE
:100C7000E50BB093E60B089585E090E0A0E0B0E0CE
:100C80008093E70B9093E80BA093E90BB093EA0BEA
:100C9000089585E090E0A0E0B0E08093EB0B9093A6
:100CA000EC0BA093ED0BB093EE0B089584EB95E164
:100CB000A0E0B0E08093F30B9093F40BA093F50BBE
:100CC000B093F60B089584EB95E1A0E0B0E080933B
:100CD000F70B9093F80BA093F90BB093FA0B0895D0
:100CE00084EB95E1A0E0B0E08093FB0B9093FC0BCC
:100CF000A093FD0BB093FE0B089585E090E0A0E07B
:100D0000B0E080930B0C90930C0CA0930D0CB0935F
:100D10000E0C089585E090E0A0E0B0E080930F0C09
:100D20009093100CA093110CB093120C089585E0D1
:100D300090E0A0E0B0E08093130C9093140CA0938B
:100D4000150CB093160C089510921B0C10921C0CED
:100D500010921D0C10921E0C089510921F0C1092F0
:100D6000200C1092210C1092220C08951092230C4A
:100D70001092240C1092250C1092260C08951092BB
:100D8000330C1092340C1092350C1092360C0895DE
:100D90001092370C1092380C1092390C10923A0CB9
:100DA000089510923B0C10923C0C10923D0C109246
:100DB0003E0C089510924B0D10924C0D10924D0D5B
:100DC00010924E0D08958CE390E0A0E0B0E0809387
:100DD0004F0D9093500DA093510DB093520D089567
:100DE00081E090E0A0E0B0E08093530D9093540D2B
:100DF000A093550DB093560D089510925B0D10926F
:100E00005C0D10925D0D10925E0D08958CE390E0E4
:100E1000A0E0B0E080935F0D9093600DA093610D12
:100E2000B093620D089581E090E0A0E0B0E080937F
:100E3000630D9093640DA093650DB093660D0895B6
:100E40001092730D1092740D1092750D1092760D14
:100E500008958CE390E0A0E0B0E08093770D90934C
:100E6000780DA093790DB0937A0D089581E090E00C
:100E7000A0E0B0E080937B0D90937C0DA0937D0D5E
:100E8000B0937E0D08951092830D1092840D1092F0
:100E9000850D1092860D08958CE390E0A0E0B0E0FF
:100EA0008093870D9093880DA093890DB0938A0D40
:100EB000089581E090E0A0E0B0E080938B0D9093E6
:100EC0008C0DA0938D0DB0938E0D089510929B0DF7
:100ED00010929C0D10929D0D10929E0D08958CE322
:100EE00090E0A0E0B0E080939F0D9093A00DA093C0
:100EF000A10DB093A20D089581E090E0A0E0B0E0D4
:100F00008093A30D9093A40DA093A50DB093A60D6F
:100F10000895220F331F220F331FF901E95DF54FAA
:100F2000108211821282138208958C3691050CF082
:100F30004EC089369105CCF4863391055CF5833338
:100F400091059CF48C319105BCF4893191056CF4C8
:100F50008E30910564F48B3091053CF4009729F0B4
:100F600097FD08C00297049728F481E008950F9731
:100F70000997D8F380E00895863291053CF48432D5
:100F800091059CF74F970397A8F7EFCF899707979D
:100F900088F7EBCF8435910574F4813591052CF7F2
:100FA000843491052CF48D339105FCF6C797EBCF73
:100FB00087549109ECCF8E35910534F48B3591052A
:100FC000A4F685559109DFCF85569109DCCF843A87
:100FD00091051CF5813A910544F68038910584F419
:100FE0008D37910514F6863791053CF483379105CA
:100FF0000CF0BBCF8F569109C6CF89579109C3CF4B
:10100000803991053CF48D3891050CF0AECF8358B2
:101010009109B9CF81599109B6CF803D91058CF4E2
:101020008D3C91050CF0A1CF8E3A91053CF48B3AA2
:1010300091050CF09ACF855A9109A5CF895C910949
:10104000A2CF8A3D91053CF4873D91050CF08DCFF0
:10105000835D910998CF8D5D910995CFAF92BF9235
:10106000CF92DF92EF92FF920F931F93CF93DF9374
:101070006C017B018B01040F151FEB015E01AE18A3
:10108000BF08C017D10759F06991D601ED91FC91C5
:101090000190F081E02DC6011995892B79F7C501E2
:1010A000DF91CF911F910F91FF90EF90DF90CF9044
:1010B000BF90AF900895FC01538D448D252F30E0F3
:1010C000842F90E0821B930B541710F0CF96089555
:1010D00001970895FC01918D828D981761F0A28D82
:1010E000AE0FBF2FB11D5D968C91928D9F5F9F7348
:1010F000928F90E008958FEF9FEF0895FC01918DFE
:10110000828D981731F0828DE80FF11D858D90E06A
:1011100008958FEF9FEF0895FC01918D228D892F07
:1011200090E0805C9F4F821B91098F7399270895EF
:101130008CEA9DE0F1DF21E0892B09F420E0822F89
:101140000895FC01A48DA80FB92FB11DA35ABF4F5C
:101150002C91848D90E001968F739927848FA689B6
:10116000B7892C93A089B1898C91837080648C930A
:10117000938D848D981306C00288F389E02D8081B9
:101180008F7D80830895EF92FF920F931F93CF93EB
:10119000DF93EC0181E0888F9B8D8C8D98131AC0B2
:1011A000E889F989808185FF15C09FB7F894EE8999
:1011B000FF896083E889F9898081837080648083F6
:1011C0009FBF81E090E0DF91CF911F910F91FF9041
:1011D000EF900895F62E0B8D10E00F5F1F4F0F73E9
:1011E0001127E02E8C8D8E110BC00FB607FCFACFA5
:1011F000E889F989808185FFF5CFCE01A2DFF2CFA2
:10120000EB8DEC0FFD2FF11DE35AFF4FF0829FB7DE
:10121000F8940B8FEA89FB8980818062D0CF682F98
:101220008CEA9DE0B0CFCF93DF93EC01888D8823CB
:10123000B1F0AA89BB89E889F9898C9185FD03C041
:10124000808186FD0CC00FB607FCF7CF8C9185FF1F
:10125000F2CF808185FFEDCFCE0173DFEACFDF9142
:10126000CF91089580E090E0892B21F061DF81111A
:101270000E94000080E090E0892B49F080E090E03F
:10128000892B29F00E94000081110E94000080E05B
:1012900090E0892B49F080E090E0892B29F00E94B2
:1012A000000081110E94000080E090E0892B49F04D
:1012B00080E090E0892B29F00E94000081110C94BD
:1012C000000008958150823108F05AC0E82FF0E004
:1012D0008827E259F64F8F4F0C948A5C8E09920949
:1012E000800986098A09C00995099B099F09A509F2
:1012F000A909AD09B309B709C009BB09C109C509E5
:10130000809180008F778093800008958091800085
:101310008F7DF9CF80918000877FF5CF84B58F775F
:1013200084BD089584B58F7DFBCF8091B0008F7709
:101330008093B00008958091B0008F7DF9CF8091A7
:1013400090008F77809390000895809190008F7D1A
:10135000F9CF80919000877FF5CF8091A0008F77A3
:101360008093A00008958091A0008F7DF9CF809197
:10137000A000877FF5CF809120018F778093200197
:101380000895809120018F7DF9CF80912001877F82
:10139000F5CFCF93DF93282F30E0F901E35BFD4FCA
:1013A0008491F901E355FD4FD491F901ED50FD4FC2
:1013B000C491CC2399F0811185DFEC2FF0E0EE0F82
:1013C000FF1FED5CFD4FA591B491EC91ED2381E001
:1013D00090E009F480E0DF91CF91089580E090E003
:1013E000FACF1F93CF93DF93282F30E0F901E35B0F
:1013F000FD4F8491F901E355FD4FD491F901ED5072
:10140000FD4FC491CC23A1F0162F81115BDFEC2F8F
:10141000F0E0EE0FFF1FE75EFD4FA591B4918FB78F
:10142000F894EC91111108C0D095DE23DC938FBFA6
:10143000DF91CF911F910895DE2BF8CFCF93DF93EB
:1014400090E0FC01E355FD4F24918D509D4FFC0130
:1014500084918823C9F090E0880F991FFC01ED5614
:10146000FD4FA591B491FC01E75EFD4FC591D4916C
:1014700061110DC09FB7F8948C91209582238C93B5
:101480008881282328839FBFDF91CF910895623000
:1014900051F49FB7F8943C91822F809583238C93CD
:1014A000E8812E2BEFCF8FB7F894EC912E2B2C9355
:1014B0008FBFEACF8230910538F0880F991F880FCF
:1014C000991F05970197F1F708953FB7F894809118
:1014D0001A0990911B09A0911C09B0911D0926B50C
:1014E000A89B05C02F3F19F00196A11DB11D3FBF5C
:1014F000BA2FA92F982F8827BC01CD01620F711D2B
:10150000811D911D42E0660F771F881F991F4A9524
:10151000D1F708958F929F92AF92BF92CF92DF92B0
:10152000EF92FF926B017C01D0DF4B015C01C11493
:10153000D104E104F104B1F0C8DF681979098A091E
:101540009B09683E73408105910588F321E0C21A2A
:10155000D108E108F10888EE880E83E0981EA11CEE
:10156000B11CE5CFFF90EF90DF90CF90BF90AF9090
:101570009F908F9008952FB7F894609116097091FD
:10158000170980911809909119092FBF0895CF92DA
:10159000DF92EF92FF92CF93DF93EC01603282E013
:1015A0007807CCF5653B710514F064EB70E0898138
:1015B00028E830E0281B310987FD3395220F331FBF
:1015C000220F331F6901330FEE08FF088A8128E5D7
:1015D00032E0281B310987FD3395220F331F220F7C
:1015E000331F032E000C440B550B2C193D094E09DB
:1015F0005F09DB0177FF02C0B0E0A0E00E941F5B43
:1016000024EB30E040E050E00E94F95AC20ED31EB5
:10161000E41EF51EB601E881E03370F5298188E803
:1016200090E0821B910927FD9395880F991F880FE1
:10163000991F681779077CF02A8188E592E0821B60
:10164000910927FD9395880F991F880F991F681797
:1016500079070CF4CB010297880F991F4FB7F894C4
:101660002E2F30E0F901EE0FFF1FE20FF31FE75BB3
:10167000F14F928381834FBFDF91CF91FF90EF9025
:10168000DF90CF9008951F93CF93DF93EC01162F37
:101690008881803308F04DC061E0812FCFDE8881E2
:1016A000282F30E0F901EE0FFF1FE20FF31FE75B79
:1016B000F14F1F736081607C612B608319821A82F5
:1016C0002CE0622F0E946B5C829FB001112430E0FD
:1016D00020E0AB01420F531FFA01EE0FFF1FE40F92
:1016E000F51FE75BF14F908196FD16C02F5F3F4FCE
:1016F0002C30310571F7813009F51092800082E0BD
:10170000809381001092850010928400B19A80919C
:101710006F00826080936F00E8818E2F90E0FC0163
:10172000EE0FFF1FE80FF91FE75BF14F8081806428
:1017300080838881DF91CF911F910895823061F479
:101740001092900080939100109295001092940056
:1017500088BB80937100E0CF833069F41092A000C1
:1017600082E08093A1001092A5001092A40089BB92
:1017700080937200D1CF8111CFCF1092200182E0EF
:101780008093210110922501109224018ABB80933D
:101790007300C2CFAF92BF92CF92DF92EF92FF92CF
:1017A0000F931F93CF93DF936B017A01EC01CF5E10
:1017B000D64F28813CE0389F8001399F100D1124BD
:1017C000A090D90EB12C27FF1FC0FB0111821082FF
:1017D00088818F5F888388819801280F311D87FD5C
:1017E0003A95F6012A153B051CF488818C30BCF132
:1017F00080819181049680349C4908F471C0F6017F
:101800008081918104966EC088819801280F311DD6
:1018100087FD3A952A153B05DCF68881A801480F1B
:10182000511D87FD5A95FA01EE0FFF1FE40FF51FBA
:10183000E75BF14F808186FFCBCF8881F801E80F0D
:10184000F11D87FDFA95CF01EE0FFF1FE80FF91F7D
:10185000E75BF14F808160E08F73C3DDB9CF80819A
:1018600091812881A801420F511D27FD5A959A01A7
:10187000FA01EE0FFF1FE20FF31FE75BF14F21812B
:101880003281820F931FF7019183808388819801B1
:10189000280F311D87FD3A95F901EE0FFF1FE20F6A
:1018A000F31FE75BF14F808186FF21C08881080F1D
:1018B000111D87FD1A95F801EE0FFF1FE00FF11FB4
:1018C000E75BF14F808161E08F73DF91CF911F91D2
:1018D0000F91FF90EF90DF90CF90BF90AF9081CDB0
:1018E00080E49CE9F701918380838FEF8883DF9107
:1018F000CF911F910F91FF90EF90DF90CF90BF900D
:10190000AF9008950F931F93CF93DF938B01EA015C
:10191000AB01415051094433510508F0E9C0223070
:10192000310508F0E5C048E3429FF001439FF00D08
:101930001124E80FF91FE60FF71F81E080836C2F59
:10194000232B09F4D2C061E0802F78DD209749F481
:1019500060E0802F46DDCE01DF91CF911F910F9186
:101960000895CF3FD10511F461E0BFC0F801E35BFA
:10197000FD4FE491E150E23108F0B2C0F0E0882779
:10198000EB53F34F8F4F0C948A5CD70CDE0CE30CB7
:10199000ED0CF70C700D010D090D110D1B0D250D32
:1019A0002F0D3E0D480D700D520D5C0D660D84B56A
:1019B000806884BDC7BDD0E0C0E0CDCF84B5806273
:1019C00084BDC8BDF8CF809180008068809380007E
:1019D000D0938900C0938800EECF80918000806210
:1019E00080938000D0938B00C0938A00E4CF8091D5
:1019F0008000886080938000D0938D00C0938C001D
:101A0000DACF8091B00080688093B000C093B300BB
:101A1000D2CF8091B00080628093B000C093B400B8
:101A2000CACF80919000806880939000D0939900F5
:101A3000C0939800C0CF8091900080628093900006
:101A4000D0939B00C0939A00B6CF8091900088609D
:101A500080939000D0939D00C0939C00ACCF809168
:101A6000A00080688093A0008091A0008F7B80936D
:101A7000A000D093A900C093A8009DCF8091A000A2
:101A800080628093A000D093AB00C093AA0093CF54
:101A90008091A00088608093A000D093AD00C09397
:101AA000AC0089CF80912001806880932001D09381
:101AB0002901C09328017FCF80912001806280930B
:101AC0002001D0932B01C0932A0175CF8091200172
:101AD000886080932001D0932D01C0932C016BCF9F
:101AE00060E0C038D1050CF03FCF802F7ADC63CFA7
:101AF000C1E0D0E030CFCF93DF93D0E0C0E0CE01A3
:101B000014DA882319F0CE010E94D3012196C13E38
:101B1000D105A9F7DF91CF9108958FB7F8948091FF
:101B2000AB0D8FBF08954F925F926F927F928F920D
:101B30009F92AF92BF92CF92DF92EF92FF92CF939C
:101B4000DF93EC016C897D898E899F8988889988CB
:101B5000AA88BB88CE8CDF8C0D2C000CEE08FF0809
:101B6000603127E272078105910529F016161706E4
:101B700018061906ACF0A7019601C501B4010E9430
:101B80005C5CDF91CF91FF90EF90DF90CF90BF90A2
:101B9000AF909F908F907F906F905F904F9008953F
:101BA0000E94CD5920E030E44CE157E40E94BB5B39
:101BB0002B013C01488E598E6A8E7B8EC501B40183
:101BC0000E94CD59A30192010E942C5A4B015C0145
:101BD000C701B6010E94CD599B01AC01C501B401FA
:101BE0000E942C5A0E94235CCCCFFC0111821082EF
:101BF0001382128215821482178216821086118631
:101C0000128613861486158616861786108A118A00
:101C1000128A138A108E118E128E138E158E148EC8
:101C2000178E168E10A211A212A213A214A215A230
:101C300016A217A210A611A612A613A614A615A6E0
:101C400081E090E097A786A780E197E2A0E0B0E06E
:101C5000848B958BA68BB78B08958EBD00000DB439
:101C600007FEFDCF8EB50895CF93DF93EC01188A60
:101C7000198A1A8A1B8A83E590E00E94D00160E0ED
:101C800086E1AFDB83E090E00197F1F78EA58295C6
:101C9000807FE3DF8FE090E00197F1F761E086E17C
:101CA000DF91CF919ECBCF92DF92EF92FF920F9375
:101CB0001F93CF93DF938C0183E590E00E94D001C6
:101CC00060E086E18EDB83E090E00197F1F7F801B8
:101CD00086A597A524E0880F991F2A95E1F78F60C4
:101CE000BCDF8FE090E00197F1F7C4E0D0E0C12CB9
:101CF000D12C7601FE2CED2CDC2CCC2481E0ADDF48
:101D0000C82A2197B9F761E086E16BDBF801C08A48
:101D1000D18AE28AF38ADF91CF911F910F91FF90D0
:101D2000EF90DF90CF9008952F923F924F925F9265
:101D30006F927F928F929F92AF92BF92CF92DF92DB
:101D4000EF92FF920F931F93CF93DF9300D01F92D8
:101D5000CDB7DEB79C838B834B015A011901FA8200
:101D6000E982FA01408051806280738020E030E097
:101D7000A901C301B2010E94545C181674F4F60163
:101D80002081318142815381C301B2010E94565B9F
:101D9000F5016083718382839383F80140805180D1
:101DA00062807380F401A68DB78D208931894289C4
:101DB00053890E941F5B6B017C01EB81FC81EC5815
:101DC000FF4F8081882309F440C0C414D504E60481
:101DD000F7040CF440C0F801C082D182E282F382A1
:101DE0008B819C81865B9F4F9C838B83FC018081D0
:101DF0009181A281B381F10180839183A283B38316
:101E0000E981FA8180819181892B41F0C4018BDEC7
:101E1000EB81FC8160837183828393830F900F90A9
:101E20000F900F90DF91CF911F910F91FF90EF9046
:101E3000DF90CF90BF90AF909F908F907F906F90EA
:101E40005F904F903F902F9008954C145D046E0466
:101E50007F040CF0C0CFF501408051806280738018
:101E600020E030E04AEF56E4C301B2010E94C759B6
:101E700087FFB1CF20E030E040E85FE3C301B2016B
:101E80000E94575BF5016083718382839383A3CFA4
:101E9000CF93DF93EC0183B183B1E0E0F1E0808187
:101EA0008081CE0186549E4FFEDE83B183B180B126
:101EB00080B1CE0186519E4FF6DE83B183B180B1F1
:101EC00080B1CE01865E9D4FDF91CF91ECCE889A96
:101ED0000895889808958E9A08958E980895EBE055
:101EE000F1E08081886080830895EBE0F1E08081FB
:101EF000877F80830895149A08951498089560E068
:101F0000FC0183856ECA60E0FC0185816ACA61E0DC
:101F1000FC01838566CA61E0FC01858162CACF93BA
:101F2000DF93EC01FC01E358FF4F1082379781E00B
:101F3000808360E08D8155DA8F859889892B29F01F
:101F400060E08B85DF91CF914CCADF91CF910895EE
:101F5000CF93DF93EC018B891CDA2E8928171906A1
:101F600021F48F89DF91CF91089580E0FBCFCF934B
:101F7000DF93EC0189890DDA2E892817190621F4DF
:101F80008F89DF91CF91089580E0FBCFCF93DF93CE
:101F9000EC018F8199AD61E0911101C060E021DA1F
:101FA0008D859AAD992321F09BAD61E0911101C01F
:101FB00060E0DF91CF9115CACF93DF93EC018F8161
:101FC00099AD60E0911101C061E00BDA8D859AADA9
:101FD000992321F09BAD60E0911101C061E0DF9198
:101FE000CF91FFC9CF93DF93EC0161E08985F9D9E7
:101FF0008AAD882319F061E08F85F3D9C558DF4F8A
:102000001882DF91CF910895CF93DF93EC01FC010B
:10201000E058FC4F1082EE58F1098081811103C015
:10202000CE014096DFDFFE01ED50FD4F8081811132
:1020300004C0CE0182569F4FD5DFFE01EC50FD4F0C
:102040008081811104C0CE01845D9E4FCBDF64E6A8
:1020500070E080E090E0DF91CF915CCACF93DF9396
:10206000EC0160E08985BDD98AAD882319F060E074
:102070008F85B7D9C558DF4F81E08883DF91CF9135
:102080000895CF92DF92EF92FF920F931F93CF9319
:10209000DF93FC01DC01AA5BBF4F4D935D936D9311
:1020A0007C93139714964D935D936D937C93139744
:1020B00014960D931D932D933C931397EC01CE5AD8
:1020C000DF4FE88262978881882351F090AD9111AB
:1020D00050C037FF54C01D921D921D921C92139741
:1020E000EF01CF5BDF4F488159816A817B811416F4
:1020F00015061606170644F524969881992321F1B2
:102100000D911D912D913C9113976801790137FF35
:1021100007C0CC24DD247601C01AD10AE20AF30AF2
:102120004C155D056E057F057CF437FF07C0709583
:102130006095509541955F4F6F4F7F4F4D935D93E5
:102140006D937C931397892FDF01A15ABF4F1D9286
:102150001D921D921C921397ED58FF4F91E09083B2
:10216000DF91CF911F910F91FF90EF90DF90CF9073
:10217000089510161106120613060CF4ACCF80E079
:10218000AFCF0F931F93CF93DF93EC01062F8D8971
:1021900081110DC0CE01EBDE182FCE01D9DE011169
:1021A000182F812FDF91CF911F910F910895CE01AC
:1021B000CFDE182FCE01DBDEF2CFCF93DF93EC0121
:1021C000FC01E159FF4F80819181A281B381019689
:1021D000A11DB11D80839183A283B3833E9681E0CC
:1021E0008083AE01465B5F4FFA0180819181A281BD
:1021F000B3819E012C583F4FF9012081222309F41D
:1022000040C00196A11DB11DFA0180839183A28374
:10221000B383FE01E058FF4F20813181C9019595BC
:1022200087958C0F9D1F32970190F081E02D20FF44
:1022300008C0DC012D913C91E20FF31F0190F08169
:10224000E02D19958F859889892BF9F0FE01EC57BF
:10225000FF4F20813181C901959587958C0F9D1F76
:10226000CE57DF4FE881F98120FF08C0DC012D91B6
:102270003C91E20FF31F0190F081E02DDF91CF91AF
:1022800019940197A109B109BFCFDF91CF910895AA
:102290008F929F92AF92BF92CF92DF92EF92FF9276
:1022A0000F931F93CF93DF93EC01FC01E15AFF4F93
:1022B00060817181828193810E94CB596B017C0185
:1022C0006CAD7DAD8EAD9FAD0E94CD599B01AC0133
:1022D00060E074E284E799E40E94BB5B4B015C011F
:1022E000FE01E559FF4F60817181828193810E94D7
:1022F000CB599B01AC01C501B4010E94BB5B4B01F2
:102300005C018E010D591F4F20E030E040E05FE39B
:102310000E942C5AA70196010E94575B0E94285CDC
:10232000F8016083718382839383C959DF4FA501CC
:102330009401C701B6010E94575B0E94285C688324
:1023400079838A839B83DF91CF911F910F91FF90B7
:10235000EF90DF90CF90BF90AF909F908F900895B7
:102360000F931F93CF93DF93FC01E358FF4F20811E
:102370002223B9F07E970081118122813381389622
:102380004081518162817381041715072607370741
:1023900010F1EC01C4DDCE01DF91CF911F910F91BF
:1023A00077CFFC01ED58FF4F20812223A1F07497D5
:1023B0000081118122813381349640815181628173
:1023C0007381041715072607370728F0DF91CF918F
:1023D0001F910F91F2CEDF91CF911F910F91089530
:1023E000FC01ED58FF4F2081222361F0749780811A
:1023F0009181A281B3810196A11DB11D808391833A
:10240000A283B38308950F931F93FC01EE5AFF4FED
:102410002081211112C038970081118122813381DE
:102420003496408151816281738104171507260714
:1024300037073CF41F910F91BFCDFC0120AD211156
:10244000F9CF1F910F91A2CDFC0113821282148249
:102450008CE291E0A0E0B0E0808F918FA28FB38FEB
:10246000848F958FA68FB78F42E350E060E070E0D5
:1024700040A351A362A373A344A355A366A377A368
:1024800040A751A762A773A784A795A7A6A7B7A738
:1024900080AB91ABA2ABB3AB88E790E0A0E0B0E03B
:1024A00084AB95ABA6ABB7AB10AE11AE12AE13AE0C
:1024B00084E690E0A0E0B0E084AF95AFA6AFB7AF00
:1024C000DF01A05CBF4F1C9211961D921D921D92C0
:1024D0001C92139714961C9211961D921D921D9298
:1024E0001C92139714961D921D921D921C92139785
:1024F00014961D921D921D921C92139714961C9275
:1025000011961D921D921D921C92139714961D9266
:102510001D921D921C92139714961D921D921D924E
:102520001C92139714961D921D921D921C92139744
:1025300014961D921D921D921C92139714961D9233
:102540001D921D921C92139714961D921D921D921E
:102550001C92139714961D921D921D921C92139714
:1025600014961C9211961C9211961C9211961C9214
:1025700011961C9211961C9211961C9211961C9207
:1025800011961C9211961C9211961C92168215821D
:102590001086178212861186148613861686158673
:1025A000108A1786128A118A148A138A11968BE868
:1025B0009FE011969C938E93129611961C921E92F8
:1025C000129687E89FE011969C938E93129611962F
:1025D0001C921E92129683E89FE011969C938E9314
:1025E000129611961C921E9212968FE79FE08D9381
:1025F0009C93E457FF4F11821082089508958FEF46
:102600009FEF0895089508950895089508950895F1
:1026100008950895089508950895089508950895D2
:10262000089508950895089508950895089580914E
:102630000F0990911009892B41F481E090E00E94EC
:102640004E549093100980930F0980910F09909137
:10265000100908950F931F93CF93DF938B01E7DF4A
:10266000F801C2A1D3A1868D978D8530910529F1FE
:102670004CF40497B1F090E080E0DF91CF911F918E
:102680000F9108958630910511F10B97A1F76BE03A
:1026900070E083EE9EE00E94430BBE0183EE9EE05D
:1026A00009C064E070E08AED9EE00E94430BBE0129
:1026B0008AED9EE00E94C70ADECF65E070E08DEDF6
:1026C0009EE00E94430BBE018DED9EE0F3CF66E0DD
:1026D00070E080EE9EE00E94430BBE0180EE9EE023
:1026E000E9CF80910B0990910C09892B91F480E737
:1026F00090E00E944E54FC0131969C012B5C3F4FB0
:10270000119217AAE217F307D9F790930C09809357
:102710000B0980910B0990910C0908954F925F92DB
:102720006F927F92AF92BF92CF92DF92EF92FF9221
:102730000F931F93CF93DF93EB01D3DF8C01CAA8D4
:10274000DBA84EA45FA468A879A8AEA0BFA0EE8CB9
:10275000FF8C4AA15BA19601B701D4D8C301B20195
:102760000E948A0A9601A501B701C801CBD890E062
:1027700080E0DF91CF911F910F91FF90EF90DF905C
:10278000CF90BF90AF907F906F905F904F900895E3
:10279000CF93DF93EB01A5DF6AA98E8D0E941E0AFD
:1027A00090E080E0DF91CF910895CF93DF93EB012C
:1027B00098DF2AA93BA94AA15BA16E8D7F8DA2D883
:1027C00090E080E0DF91CF9108958091040990918D
:1027D0000509892BE1F585E390E00E944E54FC0148
:1027E00081E090E0A0E0B0E080839183A283B38396
:1027F00084839583A683B78380879187A287B387D5
:102800001586148616861786108A118A128A138AEC
:10281000148A158A168A178A108E118E138E128EBC
:1028200012A213A214A215A217A216A210A611A6F4
:1028300012A613A614A615A616A617A610AA11AAC4
:1028400012AA13AA14AAF0930509E093040980912F
:102850000409909105090895CF93DF93B6DFEC0149
:1028600085E40E94C90921E0892B09F420E02C8F1E
:10287000ACDFEC0184E40E94C90921E0892B09F452
:1028800020E02D8FA2DFEC0183E40E94C90921E042
:10289000892B09F420E02E8F98DFEC0182E40E945E
:1028A000C90921E0892B09F420E02F8F8EDFEC018C
:1028B00081E40E94C90921E0892B09F420E028A3C2
:1028C00084DFEC0180E40E94C90921E0892B09F42E
:1028D00020E029A3DF91CF91089577DFBDCF75DF89
:1028E000FC0114AA90E080E00895FC010190002012
:1028F000E9F73197AF01481B590BBC018CEA9DE009
:102900000C942E088F929F92AF92BF920F931F93B9
:10291000CF93DF93CDB7DEB7A1970FB6F894DEBFA4
:102920000FBECDBF19A2423008F44AE08E010F5D00
:102930001F4F842E912CB12CA12CA50194010E9433
:10294000255BE62FB901CA01EA30ECF4E05DD8015D
:10295000EE938D01232B242B252B79F790E080E03B
:10296000109711F0CD01C1DFA1960FB6F894DEBF2C
:102970000FBECDBFDF91CF911F910F91BF90AF9050
:102980009F908F900895E95CE2CFAFCF882319F034
:102990008CE598E0FACF85E598E0FCCFFC018081DA
:1029A0009181009711F00C94EA5408950C94EA5424
:1029B0000C94EA540C94EA540C94EA540C94EA549F
:1029C0000C94EA540C94EA540C94EA540C94EA548F
:1029D0000C94EA540C94EA540C94EA540C94EA547F
:1029E0000C94EA540C94EA540C94EA540C94EA546F
:1029F0000C94EA540C94EA540C94EA540C94EA545F
:102A00000C94EA540C94EA54CF92DF92EF92FF9226
:102A1000CF93DF9397FF18C06B017C018DE20E947A
:102A20000F09EC0166277727CB016C197D098E0908
:102A30009F094AE067DF8C0F9D1FDF91CF91FF90C8
:102A4000EF90DF90CF9008954AE0DF91CF91FF9013
:102A5000EF90DF90CF9056CFBC01990F880B990B68
:102A6000D3CFCF93DF93EC0180EB93E08EDF6AA1AD
:102A70007BA18CA19DA1C8DF86EA94E0DF91CF9174
:102A800084CF0F931F93CF93DF938C01EB0182E9E7
:102A900093E07BDF82E497E078DFF80180810E9499
:102AA0000F09CE01D9DF91DEDF91CF911F910F91F8
:102AB000D8CFEF92FF920F931F93CF93DF93182FEE
:102AC000092F7B016115710569F50E94C90931E083
:102AD00020E0019709F030E0C32FD22F82E0E81602
:102AE000F10408F045C083EB93E04FDF82E497E008
:102AF0004CDF87EB93E049DF812F902FADDF82E43D
:102B000097E043DF81E099E040DFCE01A5DF5DDEA5
:102B1000A8DF90E080E0DF91CF911F910F91FF90AF
:102B2000EF900895D0E0C0E061307105B9F6812FD3
:102B3000163310F08AEC810F20917B00982F98704B
:102B4000277F922B90937B008770806480937C001A
:102B500080917A00806480937A0080917A0086FD6B
:102B6000FCCF80917800C0917900DC2FC82FB6CFC0
:102B700081E090E0D0CF0F931F93CF93DF93FC01C0
:102B80002081318121153105C1F1EC01822F0E9494
:102B9000C90921E0892B09F420E02B876A852617D3
:102BA00001F11E821F82188619860E811F812885D9
:102BB00039858A819B81AC81BD81081719072A0755
:102BC0003B07DCF081E0682788810E94F10989DDFC
:102BD00070E060E088819981DF91CF911F910F9122
:102BE00068CF8E819F81A885B9850196A11DB11DF1
:102BF0008E839F83A887B987D8CFDF91CF911F910C
:102C00000F910895CF93DF93EB016BDD6AA97BA948
:102C10008E8D9F8D4EDF90E080E0DF91CF91089503
:102C2000CF92DF92EF92FF92CF93DF93EB01CB0134
:102C30000E949507882351F1FE01EE0FFF1FEE0F52
:102C4000FF1FE95DF54FC080D180E280F38089EB02
:102C500093E09BDE82E497E098DE87EB93E095DEDD
:102C6000CE01FADE82E497E090DE81E099E08DDE2D
:102C7000C701B601C9DEA9DDF4DE90E080E0DF9196
:102C8000CF91FF90EF90DF90CF9008958DEB93E080
:102C90007CDEF3CF0F931F93CF93DF938C01D0E0B3
:102CA000C0E0CE010E949507882319F0BE01C8013B
:102CB000B7DF2196C13ED105A1F7DF91CF911F91DA
:102CC0000F9108958FED93E060DE82E492E05DDE87
:102CD0008AE092E05ADE84EE93E057DE76DDC1DED4
:102CE00090E080E00895CF93DF93EC018FEE93E0C6
:102CF0004CDE83EF93E049DE8C8D48DE87EF93E076
:102D000044DE8D8D43DE8BEF93E03FDE8E8D3EDE25
:102D10008FEF93E03ADE8F8D39DE83E094E035DE8D
:102D200088A134DE87E094E030DE89A12FDECE0179
:102D3000DF91CF9196CE49DDD6CF8BE094E025DEB2
:102D400044DD8ADD42DDCFDFCCDC70E060E088E08E
:102D500090E0AFDEC6DC70E060E089E090E0A9DEE4
:102D6000C0DC70E060E08AE090E0A3DEBADC70E0F6
:102D700060E08DE090E09DDE90E080E008952F928D
:102D80003F924F925F926F927F928F929F92AF92FB
:102D9000BF92CF92DF92EF92FF920F931F93CF9348
:102DA000DF9300D000D01F921F92CDB7DEB71C0179
:102DB000FC01E958FF4F10823196108287589F4FCF
:102DC000FC011082D101A658BF4F1C92339610828D
:102DD00026013701441A550A660A770A49825A823F
:102DE0006B827C8277FE0CC0709460945094409407
:102DF000411C511C611C711C49825A826B827C826D
:102E00004C155D056E057F0534F568017901C41A1E
:102E1000D50AE60AF70A49805A806B807C8075944F
:102E20006794579447944D825E826F8278868101C1
:102E300004581F4F49805A806B807C804C145D047D
:102E40006E047F0488F4F10160A471A481E08C9386
:102E5000F801808327C0B901A8014C195D096E09EA
:102E60007F096A017B01D7CF4D805E806F807884B7
:102E70004C145D046E047F0408F4C6C04AA05BA035
:102E80006CA07DA04C145D046E047F040CF083C024
:102E90006E8C7F8C2FEF621A720A21E0FC01208376
:102EA000F8012083F1018481882309F45AC00E942B
:102EB000BB0AF10102811381012E000C220B330B9E
:102EC000601B710B820B930B693E7340810591056A
:102ED00008F447C00E94BB0AF1017383628382E158
:102EE00094E053DD86E194E050DD60E070E0CB01DA
:102EF0008BDD8CE194E049DDC701B60185DD82E21E
:102F000094E043DD69817A818B819C817DDD88E25B
:102F100094E03BDD4AE06D817E818F819885F2DC13
:102F20008FE294E032DD6AA17BA18CA19DA16CDDD2
:102F300085E394E02ADDC501B40166DD8BE394E00E
:102F400024DD6E8D7F8D88A199A15EDD81E494E002
:102F50001CDD82E497E019DDC3017EDD86EA94E0A2
:102F600014DDC30128960FB6F894DEBF0FBECDBFA7
:102F7000DF91CF911F910F91FF90EF90DF90CF9055
:102F8000BF90AF909F908F907F906F905F904F9089
:102F90003F902F900895C701B6010E94CD592B0193
:102FA0003C016AA17BA18CA19DA10E94CD599B01EE
:102FB000AC01C301B2010E94BB5B2B013C016E8DD1
:102FC0007F8D88A199A1681979098A099B090E94B6
:102FD000CD599B01AC01C301B2010E942C5A2B01B7
:102FE0003C01C501B4010E94CD599B01AC01C30154
:102FF000B2010E94575B0E94235C3B0181E0F1011A
:10300000E958FF4F808324CF89819A81AB81BC81AD
:103010004AA05BA06CA07DA084199509A609B709F8
:10302000C816D906EA06FB0654F46E8C7F8C22E0A3
:10303000620E711C81E0F101E758FF4FE3CF698117
:103040007A818B819C816C197D098E099F090E9470
:10305000CD592B013C016AA17BA18CA19DA10E94AD
:10306000CD599B01AC01C301B2010E94BB5B2B0196
:103070003C016E8D7F8D88A199A1681979098A0913
:103080009B090E94CD599B01AC01C301B2010E9472
:103090002C5A2B013C01C501B4010E94CD599B0162
:1030A000AC01C301B2010E94575B0E94235C3B014B
:1030B00081E0F101E858FF4FA5CF2F923F924F9248
:1030C0005F926F927F928F929F92AF92BF92CF92B8
:1030D000DF92EF92FF920F931F93CF93DF9300D075
:1030E0001F92CDB7DEB79C838B83865B9F4F9A83FD
:1030F0008983DC014D915D916D917C910B811C81E7
:10310000025B1F4FF80180819181A281B381CB8046
:10311000DC80F2E5CF0ED11CF601F0802B813C81E2
:103120002C583F4F5901EB81FC81EB58FF4F3F0179
:10313000FF2009F441C0EB81FC8120ADF501208323
:1031400021E0F30120834115510561057105A1F4CA
:103150002081EB81FC81E559FF4F7F01EB81FC81F0
:10316000222309F451C084A095A0A6A0B7A0F7011E
:1031700080829182A282B3828B809C80F6E48F0E43
:10318000911CF40120803180428053802B813C814E
:103190002D583F4F5901281639064A065B06CCF5D3
:1031A000481759076A077B07F4F1D6018C91811102
:1031B0003AC0D5011C92C9C021E0481759076A07D7
:1031C0007B070CF020E0F50120831A012B0177FF2B
:1031D00007C0222433242101241A350A460A570A3B
:1031E0004C015D01B7FF07C0882499245401881A57
:1031F000990AAA0ABB0A21E0281439044A045B048C
:103200000CF09FCF20E09DCF80A091A0A2A0B3A002
:10321000AECF82159305A405B5053CF68417950736
:10322000A607B70714F6F5018081882311F2D601AD
:103230008C9181110FC0F60180818111BACFD30129
:103240006C9181E068278B819C810E94C110811163
:10325000B0CF07C060E08B819C810E94C1108111BA
:10326000EACFD801CD90DD90ED90FC90E981FA8114
:103270000081118122813381D4014D915D916D9145
:103280007C91D301EC918B819C8185599F4F3C01AE
:10329000E11127C0AB81BC8190968D909D90AD903F
:1032A000BC9093979F96EC919F97EF939E96EC918D
:1032B0009E97EF939D96EC919D97EF939C96EC9142
:1032C0009C97EF935B96EC915B97EF935A96EC91FA
:1032D0005A97EF935996EC915997EF935896EC9132
:1032E00024C0EB81FC8184A095A0A6A0B7A0E3A98F
:1032F000EF93AB81BC81D296EC91D297EF93D196AC
:10330000EC91D197EF93D096EC91D097EF935F9695
:10331000EC915F97EF935E96EC915E97EF935D96DD
:10332000EC915D97EF935C96EC91EF938B819C8190
:1033300026DDB0E0A0E0F30180839183A283B38314
:103340000FB6F894DEBF0FBECDBF60E08B819C81CD
:103350000E94C110882331F0E981FA811082118224
:10336000128213820F900F900F900F90DF91CF91E8
:103370001F910F91FF90EF90DF90CF90BF90AF9093
:103380009F908F907F906F905F904F903F902F9085
:1033900008954F925F926F927F928F929F92AF9219
:1033A000BF92CF92DF92EF92FF920F931F93CF9332
:1033B0006B017C01742EAC019B010E94585C882338
:1033C00091F087E494E0CF911F910F91FF90EF90DF
:1033D000DF90CF90BF90AF909F908F907F906F9035
:1033E0005F904F9082CA46015701E894B7F82FEFDB
:1033F0003FEF4FE75FE7C501B4010E94585C8111C0
:103400000DC02FEF3FEF4FE75FE7C501B4010E940A
:10341000C75918161CF48BE494E0D5CF2FEF3FEF7B
:103420004FE75FE4C701B6010E94545C18161CF414
:103430008FE494E0C8CF2FEF3FEF4FE75FECC70179
:10344000B6010E94C75987FDF3CF20E030E0A90103
:10345000C701B6010E94C75910E000E087FF08C00D
:103460008DE20E940F098C01F7FAF094F7F8F094BE
:10347000C0E060E070E080E09FE37C1641F020E077
:1034800030E040E251E40E94BB5BCF5FF6CFA70182
:1034900096010E94575B2B013C010E94285C4B0166
:1034A0005C014AE02FDA7C01E00EF11ECC23A9F189
:1034B000C501B4010E94CB599B01AC01C301B2010B
:1034C0000E94565B4B015C018EE20E940F09E80EE0
:1034D000F91EC15010F120E030E040E251E4C50196
:1034E000B4010E942C5A2B013C010E94285C4B0124
:1034F000B12CA12C4AE0C501B40104DAE80EF91E92
:10350000C501B4010E94CB599B01AC01C301B201BA
:103510000E94565B4B015C01DCCFC701CF911F912C
:103520000F91FF90EF90DF90CF90BF90AF909F9062
:103530008F907F906F905F904F9008958F929F92A1
:10354000AF92BF92CF92DF92EF92FF920F931F93B1
:10355000CF93DF93EC0182E592E017DA88E694E0FE
:1035600014DA6E0186E4C81A8EEFD80AC6010E94EA
:10357000930D0E94CD594B015C01FE01ED5EFC4FA5
:1035800060817181828193810E94CD599B01AC0140
:10359000C501B4010E94BB5B42E0FBDE88E794E01A
:1035A000F4D97E01E6E1EE1AEEEFFE0AC7010E94B1
:1035B000930D0E94CD594B015C01FE01E95EFC4F69
:1035C00060817181828193810E94CD599B01AC0100
:1035D000C501B4010E94BB5B42E0DBDE88E894E0F9
:1035E000D4D98E01065E1D4FC8010E94930D0E9422
:1035F000CD594B015C01C55EDC4F688179818A81C0
:103600009B810E94CD599B01AC01C501B4010E9470
:10361000BB5B42E0BEDED9D824DA8EE492E0B5D9B5
:1036200088E694E0B2D9F601A68DB78D208931895C
:10363000428953890E941F5BE7D988E794E0A5D9A6
:10364000F701A68DB78D20893189428953890E945F
:103650001F5BDAD988E894E098D9F801A68DB78D78
:1036600020893189428953890E941F5BCDD9ADD809
:10367000DF91CF911F910F91FF90EF90DF90CF904E
:10368000BF90AF909F908F90ECC9CF92DF92EF9256
:10369000FF92CF93DF93EC0188819981AA81BB814E
:1036A000181619061A061B0644F081E090E0A0E007
:1036B000B0E088839983AA83BB838C819D81AE818E
:1036C000BF81181619061A061B0644F081E090E027
:1036D000A0E0B0E08C839D83AE83BF83888599850D
:1036E000AA85BB85181619061A061B0644F081E048
:1036F00090E0A0E0B0E088879987AA87BB8783E540
:1037000094E043D988E694E040D96E857F85888926
:1037100099890E94CD596B017C01688179818A81E8
:103720009B810E94CD599B01AC01C701B6010E944B
:10373000BB5B42E02EDE88E794E027D96A897B896B
:103740008C899D890E94CD596B017C016C817D81A2
:103750008E819F810E94CD599B01AC01C701B601AA
:103760000E94BB5B42E015DE88E894E00ED96E89CA
:103770007F89888D998D0E94CD596B017C01688568
:1037800079858A859B850E94CD599B01AC01C70133
:10379000B6010E94BB5B42E0FCDDCE01DF91CF9120
:1037A000FF90EF90DF90CF905CC90FD86EDF90E074
:1037B00080E00895CF92DF92EF92FF920F931F93D4
:1037C000CF93DF938C016A017B01EC01CC0FDD1FED
:1037D000642FCE010E94EB5A9927F7FC9A958F2D02
:1037E0007E2D6D2DCE0101960E94EB5A0D581109C8
:1037F0000330110588F4B701992777FD9095892F3B
:10380000CE0144960E94EB5A6F2D7727882799277F
:10381000CE0145960E94EB5A90E080E0DF91CF9177
:103820001F910F91FF90EF90DF90CF9008954F92EE
:103830005F926F927F928F929F92AF92BF92CF9240
:10384000DF92EF92FF920F931F93CF93DF938C0140
:10385000EC01CC0FDD1FCE010E94E35A882E912C83
:10386000B12CA12CCE0101960E94E35AC82ED12C76
:10387000F12CE12C0D5811090330110508F05AC044
:10388000CE0144960E94E35A482E512C712C612C93
:10389000CE0145960E94E35A082F10E030E020E068
:1038A0008FEF481651046104710429F50F3F11058B
:1038B0002105310501F58FEF88169104A104B104AB
:1038C000C9F58FEFC816D104E104F10499F56FEF43
:1038D0007FEFCB01DF91CF911F910F91FF90EF9080
:1038E000DF90CF90BF90AF909F908F907F906F9020
:1038F0005F904F90089500381105210531053CF780
:10390000FE2CED2CDC2CCC24C701B601680D791DF2
:103910008A1D9B1D320155244424640D751D861D8E
:10392000971D302F222711270027600F711F821F3C
:10393000931FD0CF00E010E09801412C512C3201B0
:1039400080E8C816D104E104F104D4F2C0CFEF92AC
:10395000FF920F931F93CF93DF938091090990916A
:103960000A09892B51F586E090E00E944E547C01B3
:1039700090E080E05CDF1616170654F1C7010E9444
:103980007B0DD0E0C0E0CE010E949507882369F04E
:10399000FE01EE0FFF1FEE0FFF1FE95DF54F4081A7
:1039A000518162817381CE0105DF2196C639D1052F
:1039B00051F7F0920A09E092090980910909909162
:1039C0000A09DF91CF911F910F91FF90EF90089519
:1039D00083E090E02CDF613071058105910531F5C0
:1039E00007E21AE0D0E0C0E0CE010E9495078823EC
:1039F000B1F0CE011CDFF801608371838283938371
:103A00006F3F7F4F8F4F9F4F51F4CE010E94D301E4
:103A1000F8014081518162817381CE01CBDE219614
:103A20000C5F1F4FC13ED105F9F6C3CFC7010E94FD
:103A30007B0DBFCFCF92DF92EF92FF920F931F9338
:103A4000CF93DF937C016B018A01E90180DFF601EE
:103A5000EE0FFF1FEE0FFF1FE95DF54F8081918193
:103A6000F7019183808373DF000F111F000F111F77
:103A7000F801E95DF54F81E04081518162817381F8
:103A8000413051056105710509F080E0F701828739
:103A90005EDFCC0FDD1FCC0FDD1FC95DD54F8881E8
:103AA0009981AA81BB81F70182839383A483B58323
:103AB0001682178210861186DF91CF911F910F9188
:103AC000FF90EF90DF90CF900895CF93DF93EC01BC
:103AD0002AEC30E04BEC50E069EC70E0ABDF2EEC10
:103AE00030E04FEC50E06DEC70E0CE010C96A2DFC0
:103AF00024ED30E045ED50E063ED70E0CE014896F6
:103B000099DF28ED30E049ED50E067ED70E0CE013F
:103B1000849690DF2EED30E04FED50E06DED70E0DB
:103B2000CE01C096DF91CF9185CFCF93DF93809167
:103B30000D0990910E09892BA1F48CE390E00E946D
:103B40004E54EC01198218821D861C86198E188E1F
:103B50001DA21CA219AA18AAB8DFD0930E09C093FF
:103B60000D0980910D0990910E09DF91CF91089573
:103B70002F923F924F925F926F927F928F929F927D
:103B8000AF92BF92CF92DF92EF92FF920F931F936B
:103B9000CF93DF93EC01DBDEFE01E75BFC4F80910E
:103BA000E30B9091E40B91838083D1DEFE01E55B12
:103BB000FC4F8091E70B9091E80B91838083C7DEE7
:103BC000FE01E35BFC4F8091EB0B9091EC0B91833A
:103BD0008083BDDE8E01015B1C4F60910B0C7091E8
:103BE0000C0C80910D0C90910E0C0E94CD59F80197
:103BF0006083718382839383AADE1E01FDEA2F1AFC
:103C0000FCEF3F0A60910F0C7091100C8091110C29
:103C10009091120C0E94CD59F101608371838283CF
:103C2000938395DE20E030E048EC52E4F8016081B7
:103C30007181828193810E94BB5B2B013C0120E05A
:103C400030E048EC52E4F10160817181828193811E
:103C50000E94BB5B4B015C016091130C7091140CD2
:103C60008091150C9091160C0E94CD5920E030E007
:103C700048EC52E40E94BB5B6B017C012AE037ED0B
:103C800043E25CE3C301B2010E94545C18160CF0DD
:103C90002BC120E030E046EC52E4C301B2010E94A7
:103CA000C75987FD06C0412C512C56EC652E52E4B5
:103CB000752EF80140825182628273822AE037EDCC
:103CC00043E25CE3C501B4010E94545C18160CF099
:103CD00014C120E030E046EC52E4C501B4010E947A
:103CE000C75987FD06C0812C912C36ECA32E32E4F7
:103CF000B32EF10180829182A282B3822AE037ED55
:103D000043E25CE3C701B6010E94545C18160CF054
:103D1000FDC020E030E046EC52E4C701B6010E944D
:103D2000C75987FD06C0C12CD12C96ECE92E92E430
:103D3000F92EFE01E95AFC4FC082D182E282F38261
:103D400006DE8091CB0B9091CC0BFE01E25AFC4F2A
:103D500091838083FCDD8091CF0B9091D00BFE018D
:103D6000E05AFC4F91838083F2DD8091D30B9091D8
:103D7000D40BFE01EE59FC4F91838083E8DD8091E6
:103D8000F30B9091F40BA091F50BB091F60BFE01A3
:103D9000EC59FC4F80839183A283B383D8DD80915B
:103DA000F70B9091F80BA091F90BB091FA0BFE0173
:103DB000E859FC4F80839183A283B383C8DD80914F
:103DC000FB0B9091FC0BA091FD0BB091FE0BFE0143
:103DD000E459FC4F80839183A283B383B8DD809143
:103DE0001B0C90911C0CFE01E059FC4F91838083C9
:103DF000AEDD80911F0C9091200CFE01EE58FC4F1F
:103E000091838083A4DD8091230C9091240CFE018A
:103E1000EC58FC4F918380839ADD8091330C909114
:103E2000340CFE01EA58FC4F9183808390DD809131
:103E3000370C9091380CFE01E858FC4F9183808339
:103E400086DD80913B0C90913C0CFE01E658FC4FC6
:103E5000918380837CDD8091BB0B9091BC0BA09102
:103E6000BD0BB091BE0BFE01E55AFC4F0197A105B9
:103E7000B10509F054C081E0808369DD8091BF0BFA
:103E80009091C00BA091C10BB091C20BFE01E45AFE
:103E9000FC4F0197A105B10509F043C081E0808383
:103EA00056DD8091C30B9091C40BA091C50BB091CE
:103EB000C60BC35ADC4F0197A105B105A1F581E0FE
:103EC0008883DF91CF911F910F91FF90EF90DF904A
:103ED000CF90BF90AF909F908F907F906F905F90AA
:103EE0004F903F902F9008954AE0442E47ED542E76
:103EF00043E2642E4CE3742EDCCE2AE0822E27EDC2
:103F0000922E23E2A22E2CE3B22EF3CE8AE0C82E0C
:103F100087EDD82E83E2E82E8CE3F82E0ACF1082AC
:103F2000ACCF1082BDCF1882CCCF2F923F924F9250
:103F30005F926F927F928F929F92AF92BF92CF9239
:103F4000DF92EF92FF920F931F93CF93DF93CDB742
:103F5000DEB76F970FB6F894DEBF0FBECDBF9B8F55
:103F60008A8FF5DCEA8DFB8DEB59FD4F81E04091A6
:103F7000F30A5091F40A6091F50A7091F60A452B04
:103F8000462B472B09F480E08083E1DCEA8DFB8D32
:103F9000EA59FD4F81E04091F70A5091F80A60918B
:103FA000F90A7091FA0A452B462B472B09F480E059
:103FB0008083CDDCEA8DFB8DE959FD4F81E0409196
:103FC000FB0A5091FC0A6091FD0A7091FE0A452B94
:103FD000462B472B09F480E08083B9DC8091430BAA
:103FE0009091440BA091450BB091460BEA8DFB8D4F
:103FF000E859FD4F80839183A283B383A8DC80912D
:10400000470B9091480BA091490BB0914A0BEA8D58
:10401000FB8DE459FD4F80839183A283B38397DCAA
:1040200080914B0B90914C0BA0914D0BB0914E0B8E
:10403000EA8DFB8DE059FD4F80839183A283B3838A
:1040400086DC8091430B9091440BA091450BB0917D
:10405000460BEA8DFB8DEC58FD4F80839183A28344
:10406000B38375DC8091470B9091480BA091490B6D
:10407000B0914A0BEA8DFB8DE858FD4F8083918308
:10408000A283B38364DC80914F0B9091500BA0917D
:10409000510BB091520BEA8DFB8DE458FD4F80839C
:1040A0009183A283B38353DC80911B0B90911C0BF3
:1040B000A0911D0BB0911E0BEA8DFB8DE457FD4FB7
:1040C00080839183A283B38342DC80911F0B909104
:1040D000200BA091210BB091220BEA8DFB8DE057B4
:1040E000FD4F80839183A283B38331DC8091230BC6
:1040F0009091240BA091250BB091260BEA8DFB8D9E
:10410000EC56FD4F80839183A283B38320DC8091A2
:104110001B0B90911C0BA0911D0BB0911E0BEA8DF7
:10412000FB8DE856FD4F80839183A283B3830FDC20
:1041300080911F0B9091200BA091210BB091220B2D
:10414000EA8DFB8DE456FD4F80839183A283B38378
:10415000FEDB8091270B9091280BA091290BB09149
:104160002A0BEA8DFB8DE056FD4F80839183A2835D
:10417000B383EDDB80912B0B90912C0BA0912D0B39
:10418000B0912E0BEA8DFB8DEC55FD4F8083918312
:10419000A283B383DCDB80912F0B9091300BA09135
:1041A000310BB091320BEA8DFB8DE855FD4F8083CA
:1041B0009183A283B383CBDB8091330B9091340B3B
:1041C000A091350BB091360BEA8DFB8DE455FD4F78
:1041D00080839183A283B383BADB8091CB0A9091D1
:1041E000CC0AA091CD0AB091CE0AEA8DFB8DE055A4
:1041F000FD4F80839183A283B383A9DB8091CF0A93
:104200009091D00AA091D10AB091D20AEA8DFB8D8B
:10421000EC54FD4F80839183A283B38398DB80911C
:10422000D30A9091D40AA091D50AB091D60AEA8D0A
:10423000FB8DE854FD4F80839183A283B38387DB9A
:104240008091CB0A9091CC0AA091CD0AB091CE0A70
:10425000EA8DFB8DE454FD4F80839183A283B38369
:1042600076DB8091CF0A9091D00AA091D10AB091CB
:10427000D20AEA8DFB8DE054FD4F80839183A283A7
:10428000B38365DB8091D70A9091D80AA091D90AAF
:10429000B091DA0AEA8DFB8DEC53FD4F8083918358
:1042A000A283B38354DBEA8DFB8DE853FD4F81E09D
:1042B0002091A30A3091A40A2130310509F080E051
:1042C000808345DBEA8DFB8DE753FD4F81E0209134
:1042D000A70A3091A80A2130310509F080E08083D7
:1042E00036DBEA8DFB8DE653FD4F81E02091AB0A72
:1042F0003091AC0A2130310509F080E0808327DB62
:10430000EA8DFB8DE250FD4F81E040917B0A509198
:104310007C0A60917D0A70917E0A452B462B472BC3
:1043200009F480E0808313DBEA8DFB8DE150FD4FC3
:1043300081E040917F0A5091800A6091810A7091DA
:10434000820A452B462B472B09F480E08083FFDA55
:10435000EA8DFB8DFD5F81E04091830A5091840AD4
:104360006091850A7091860A452B462B472B09F4EC
:1043700080E08083ECDAEA8DFB8DEF5FFC4F81E01B
:104380004091530B5091540B6091550B7091560B0B
:10439000452B462B472B09F480E08083D8DAEA8D41
:1043A000FB8DEE5FFC4F81E04091570B5091580B15
:1043B0006091590B70915A0B452B462B472B09F4F2
:1043C00080E08083C4DAEA8DFB8DED5FFC4F81E0F5
:1043D00040915B0B50915C0B60915D0B70915E0B9B
:1043E000452B462B472B09F480E08083B0DAEA8D19
:1043F000FB8DEC5FFC4F81E020918B0A30918C0AA1
:104400002130310509F080E08083A1DAEA8DFB8D4F
:10441000EB5FFC4F81E020918F0A3091900A2130B0
:10442000310509F080E0808392DAEA8DFB8DEA5F46
:10443000FC4F81E02091930A3091940A213031059C
:1044400009F080E0808383DA8091530A9091540AC6
:10445000A091550AB091560AEA8DFB8DE95FFC4F99
:1044600080839183A283B38372DA8091570A9091FB
:10447000580AA091590AB0915A0AEA8DFB8DE55F5E
:10448000FC4F80839183A283B38361DA80915B0ABE
:1044900090915C0AA0915D0AB0915E0AEA8DFB8D55
:1044A000E15FFC4F80839183A283B38350DAEA8D6E
:1044B000FB8DEE50FD4F81E04091630A5091640AFC
:1044C0006091650A7091660A452B462B472B09F4CB
:1044D00080E080833CDAEA8DFB8DED50FD4F81E07A
:1044E0004091670A5091680A6091690A70916A0A5E
:1044F000452B462B472B09F480E0808328DAEA8D90
:10450000FB8DEC50FD4F81E040916B0A50916C0A9D
:1045100060916D0A70916E0A452B462B472B09F46A
:1045200080E0808314DA80915B0C90915C0CA09108
:104530005D0CB0915E0CEA8DFB8DE553FD4F8083E1
:104540009183A283B38303DA80915F0C9091600C16
:10455000A091610CB091620CEA8DFB8DE153FD4F8F
:1045600080839183A283B383F2D98091630C90916D
:10457000640CA091650CB091660CEA8DFB8DED5238
:10458000FD4F80839183A283B383E1D9EA8DFB8DB4
:10459000EB50FD4F81E02091BB0A3091BC0A2130E5
:1045A000310509F080E08083EA8DFB8DEA50FD4FF4
:1045B0001082EA8DFB8DE950FD4F1082C8D9EA8D3B
:1045C000FB8DE850FD4F81E02091B70A3091B80A89
:1045D0002130310509F080E08083EA8DFB8DE750C2
:1045E000FD4F1082EA8DFB8DE650FD4F1082AFD952
:1045F000EA8DFB8DE550FD4F81E02091DB0A309183
:10460000DC0A2130310509F080E08083A0D9EA8DF1
:10461000FB8DE450FD4F81E02091DF0A3091E00AEC
:104620002130310509F080E0808391D9EA8DFB8D3E
:10463000E350FD4F81E02091E30A3091E40A2130FC
:10464000310509F080E0808382D9EA8DFB8DE95243
:10465000FD4F81E020916B0C30916C0C21303105C5
:1046600009F080E0808373D9EA8DFB8DE852FD4F1D
:1046700081E020916F0C3091700C2130310509F0F0
:1046800080E0808364D9EA8DFB8DE752FD4F81E0A5
:104690002091730C3091740C2130310509F080E0C9
:1046A000808355D98091AB0C9091AC0CA091AD0C4E
:1046B000B091AE0CEA8DFB8DE652FD4F8083918365
:1046C000A283B38344D98091AF0C9091B00CA09198
:1046D000B10CB091B20CEA8DFB8DE252FD4F80839C
:1046E0009183A283B38333D98091B30C9091B40C9E
:1046F000A091B50CB091B60CEA8DFB8DEE51FD4F3B
:1047000080839183A283B38322D98091DB0C909123
:10471000DC0CA091DD0CB091DE0CEA8DFB8DEA5132
:10472000FD4F80839183A283B38311D98091DB0CE9
:104730009091DC0CA091DD0CB091DE0CEA8DFB8D2C
:10474000E651FD4F80839183A283B38300D980918A
:10475000DB0C9091DC0CA091DD0CB091DE0CEA8DAD
:10476000FB8DE251FD4F80839183A283B383EFD809
:104770000A8D1B8D0D5E1C4F8091030B9091040BD5
:10478000A091050BB091060BF80180839183A28361
:10479000B383DDD8EA8CFB8CF9EEEF1AFCEFFF0A4D
:1047A0008091070B9091080BA091090BB0910A0B17
:1047B000F70180839183A283B383C9D880910B0BC7
:1047C00090910C0BA0910D0BB0910E0BCA8CDB8C51
:1047D000F5EECF1AFCEFDF0AF60180839183A28306
:1047E000B383F801408151816281738114161506EB
:1047F0001606170644F041E050E060E070E04083A8
:10480000518362837383F701408151816281738197
:10481000141615061606170644F041E050E060E055
:1048200070E04083518362837383181619061A0659
:104830001B064CF081E090E0A0E0B0E0F601808340
:104840009183A283B3830E94E513FC01D6018D906E
:104850009D90AD90BC90D7014D915D916D917C91F3
:10486000D8010D911D912D913C91008311832283DC
:104870003383448355836683778380869186A286BB
:10488000B386EA8DFB8D7096FA83E983EA8DFB8D02
:10489000E952FD4F80808B82EA8DFB8DE553FD4F01
:1048A0004081518162817381EA8DFB8DE550FD4F1E
:1048B00090809D82EA8DFB8DEC5FFC4FA080AC82E6
:1048C000EA8DFB8DEB50FD4FB080B986EA8DFB8DF4
:1048D000E850FD4F20812A87EA8DFB8DEF5FFC4F6A
:1048E00080818E87EA8DFB8DE250FD4F90819A8BFF
:1048F000EA8DFB8DE853FD4F2080EA8DFB8DEB594F
:10490000FD4F3080EA8DFB8DE95FFC4F0081118106
:1049100022813381EA8DFB8DE055FD4F80819181AD
:10492000A281B381EA8DFB8DEC55FD4FC080D18013
:10493000E280F380EA8DFB8DE457FD4F808091800B
:10494000A280B380EA8DFB8DE859FD4F40805180F5
:1049500062807380EA8DFB8D40A651A662A673A685
:1049600080AA91AAA2AAB3AA84AF95AFA6AFB7AF07
:1049700044A655A666A677A684AA95AAA6AAB7AA0B
:10498000E05CFF4F80839183A283B383AA8DBB8DAC
:10499000D896CD92DD92ED92FC92DB97FD01EC5B17
:1049A000FF4F008311832283338334963082319604
:1049B0002082EA899596EC939597FE859696FC93CE
:1049C00096978C8097968C9280E490E0A0E0B0E07F
:1049D000EA8DFB8DE45BFF4F80839183A283B383D9
:1049E000EA8DFB8DE65BFF4F9A849082EA8DFB8D0A
:1049F000E55BFF4FA984A082EA8DFB8DE05BFF4F52
:104A0000BD80B082EA8DFB8DEF5AFF4F408351830A
:104A100062837383EA8DFB8DEB5AFF4F2B812083DA
:104A2000AA8DBB8D55968D919C9156978633910595
:104A300009F096C287E69FE0FD01E257FF4F9183A0
:104A4000808332961182108289E69FE036969183A8
:104A50008083329611821082EA8DFB8D838D948D36
:104A60004A97D1F48BE79FE0EE56FF4F9183808306
:104A7000EA8DFB8DEC56FF4F118210828DE79FE08F
:104A8000EA8DFB8DE656FF4F91838083EA8DFB8D87
:104A9000E456FF4F118210820A8D1B8D02561F4F64
:104AA000EA8DFB8DE852FD4F80808B82EA8DFB8D75
:104AB000E153FD4F80819181A281B3818D839E83DB
:104AC000AF83B887EA8DFB8DE450FD4F90819C83C6
:104AD000EA8DFB8DEB5FFC4FA081A987EA8DFB8DF2
:104AE000EA50FD4FB081BA87EA8DFB8DE750FD4F4C
:104AF00080808E86EA8DFB8DEE5FFC4F2080EA8DF4
:104B0000FB8DE150FD4F3080EA8DFB8DE753FD4F6B
:104B10003081EA8DFB8DEA59FD4F2081EA8DFB8DB6
:104B2000E55FFC4FC080D180E280F380EA8DFB8D91
:104B3000EC54FD4F80819181A281B381EA8DFB8D80
:104B4000E855FD4F80809180A280B380EA8DFB8D77
:104B5000E057FD4F4081518162817381EA8DFB8D69
:104B6000E459FD4F4080518062807380F801408E8F
:104B7000518E628E738E40A351A362A373A384A748
:104B800095A7A6A7B7A7448E558E668E778E44A3A9
:104B900055A366A377A380AB91ABA2ABB3AB80A6C2
:104BA00091A6A2A6B3A6C4AAD5AAE6AAF7AA20AF40
:104BB00031AF358A268A8984878A80E490E0A0E034
:104BC000B0E084AF95AFA6AFB7AF8E8482AE9A84C3
:104BD00093AEEA8DFB8DE252FF4FAC80A082EA8D4E
:104BE000FB8DE152FF4F8D819E81AF81B88580831F
:104BF0009183A283B383EA8DFB8DED51FF4F9B819F
:104C00009083D80115968D919C918633910509F07A
:104C1000D9C187E69FE0EA8DFB8DE45EFE4F91836C
:104C20008083EA8DFB8DE25EFE4F1182108289E661
:104C30009FE0EA8DFB8DEC5DFE4F91838083EA8DD2
:104C4000FB8DEA5DFE4F11821082F8018385948509
:104C50004A97E1F48BE79FE0EA8DFB8DE05EFE4F23
:104C600091838083EA8DFB8DEE5DFE4F1182108271
:104C70008DE79FE0EA8DFB8DE85DFE4F9183808399
:104C8000EA8DFB8DE65DFE4F11821082EA8CFB8C73
:104C9000F4EDEF1AFEEFFF0AEA8DFB8DE752FD4FB0
:104CA00080808B82EA8DFB8DED52FD4F808191815A
:104CB000A281B3818D839E83AF83B887EA8DFB8DFC
:104CC000E350FD4F90819C83EA8DFB8DEA5FFC4FA2
:104CD0003080EA8DFB8DE950FD4FA081A987EA8DD8
:104CE000FB8DE650FD4F2080EA8DFB8DED5FFC4F84
:104CF000C080EA8DFB8DFD5FD080EA8DFB8DE65391
:104D0000FD4F3081EA8DFB8DE959FD4F2081EA8D01
:104D1000FB8DE15FFC4F80809180A280B3808A860A
:104D20009B86AC86BD86EA8DFB8DEC53FD4F808162
:104D30009181A281B3818E879F87A88BB98BEA8DE1
:104D4000FB8DE854FD4F80809180A280B3808C8ED3
:104D50009D8EAE8EBF8EEA8DFB8DE455FD4F80811A
:104D60009181A281B3818A8B9B8BAC8BBD8BEA8DA9
:104D7000FB8DE056FD4F80819181A281B381EA8D48
:104D8000FB8DEC56FD4F4080518062807380EA8D30
:104D9000FB8DE458FD4F4081518162817381EA8D22
:104DA000FB8DE059FD4F80809180A280B380F70198
:104DB000808E918EA28EB38E40A251A262A273A267
:104DC0008C8C9D8CAE8CBF8C84A695A6A6A6B7A60F
:104DD000448F558F668F778F84A395A3A6A3B7A31F
:104DE0008E849F84A888B98880AA91AAA2AAB3AA0F
:104DF0008A889B88AC88BD8880A691A6A2A6B3A607
:104E00008A849B84AC84BD8484AA95AAA6AAB7AAE6
:104E100020AF31AFD58AC68A378A80E490E0A0E01F
:104E2000B0E084AF95AFA6AFB7AF22AE898483AEB2
:104E3000EA8DFB8DE459FE4F9C809082EA8DFB8DBC
:104E4000E359FE4F8D819E81AF81B8858083918328
:104E5000A283B383EA8DFB8DEF58FE4F9B81908335
:104E6000D70115968D919C918633910509F0D2C09A
:104E700087E69FE0EA8DFB8DE655FE4F91838083A8
:104E8000EA8DFB8DE455FE4F1182108289E69FE08A
:104E9000EA8DFB8DEE54FE4F91838083EA8DFB8D6E
:104EA000EC54FE4F11821082F701838594854A9756
:104EB000E1F48BE79FE0EA8DFB8DE255FE4F918395
:104EC0008083EA8DFB8DE055FE4F118210828DE7C5
:104ED0009FE0EA8DFB8DEA54FE4F91838083EA8D3B
:104EE000FB8DE854FE4F11821082EA8DFB8DEE504F
:104EF000FD4F8081882309F4B5C089819A810E9481
:104F00002E10EA8DFB8DED50FD4F8081882309F432
:104F1000AEC0C8010E942E108A8D9B8D8C509D4F73
:104F2000DC018C91882309F4A6C0C7016F960FB6E7
:104F3000F894DEBF0FBECDBFDF91CF911F910F91CF
:104F4000FF90EF90DF90CF90BF90AF909F908F90A9
:104F50007F906F905F904F903F902F900C942E1009
:104F60008C339105D9F48BE69FE0EA8DFB8DE257F7
:104F7000FF4F91838083EA8DFB8DE057FF4F1182B5
:104F800010828DE69FE0EA8DFB8DEA56FF4F9183FC
:104F90008083EA8DFB8DE856FF4F5CCD8E9709F03C
:104FA0005BCD8FE69FE0EA8DFB8DE257FF4F91834B
:104FB0008083EA8DFB8DE057FF4F1182108285E7D9
:104FC0009FE0E1CF8C33910589F48BE69FE0EA8D79
:104FD000FB8DE45EFE4F91838083EA8DFB8DE25E64
:104FE000FE4F118210828DE69FE023CE8E9709F04E
:104FF0002CCE8FE69FE0EA8DFB8DE45EFE4F918321
:105000008083EA8DFB8DE25EFE4F1182108285E780
:105010009FE00FCE8C33910589F48BE69FE0EA8DFB
:10502000FB8DE655FE4F91838083EA8DFB8DE45521
:10503000FE4F118210828DE69FE02ACF8E9709F0F5
:1050400033CF8FE69FE0EA8DFB8DE655FE4F9183CF
:105050008083EA8DFB8DE455FE4F1182108285E737
:105060009FE016CF89819A810E94F20F4ACFC80132
:105070000E94F20F51CFC7016F960FB6F894DEBFB2
:105080000FBECDBFDF91CF911F910F91FF90EF9099
:10509000DF90CF90BF90AF909F908F907F906F9058
:1050A0005F904F903F902F900C94F20FAF92BF9271
:1050B000CF92DF92EF92FF920F931F93CF93DF93E4
:1050C000EC018AE190E09E8B8D8B8BE190E0988FD4
:1050D0008F8B89E190E09A8F898F8FE090E09C8F91
:1050E0008B8F8EE190E09E8F8D8F8EE090E098A365
:1050F0008F8F85E490E09AA389A384E490E09CA339
:105100008BA3FE01E256FF4F80E290E096838583F9
:1051100081E290E0908787838FE190E0928781879A
:105120001486138616861586108A178683E490E007
:10513000928B818B82E490E0948B838BE257FF4FBC
:1051400083E290E09683858384E290E09087878372
:1051500082E290E0928781871486138616861586F0
:10516000108A178681E490E0928B818B80E490E036
:10517000948B838BED5CFE4F1182108232961182EC
:105180001082329611821082CE010E94951FCE01AC
:105190000E94B81DCE0186549E4F41E050E0FC01B4
:1051A00057A746A7DE01A651BE4F24E030E09F96E8
:1051B0003C932E939E975E01F6EEAF1AFDEFBF0A69
:1051C00028E030E0F50137A726A720E130E0FC0118
:1051D0003183208321E130E0358324832FEF3FEFBB
:1051E0003383228337832683628560876385618763
:1051F00067E170E011967C936E9368E170E015961C
:105200007C936E93149713963C932E931297179654
:105210003C932E9316971A966C911A9718966C9346
:1052200018971B966C911B9719966C9319976DE1C3
:1052300070E0F501718360836CE170E075836483D5
:105240003383228337832683628560876385618702
:10525000BE016A587C4FFB01608171818E010C593F
:105260001C4FF801C080D180E280F3800650110904
:10527000F80100811181FC01158F048FC48AD58A41
:10528000E68AF78A6130710509F04EC0378F268FA4
:10529000CE0188589C4FFC01808191819E01285944
:1052A0003C4FF9014081518162817381285031095D
:1052B000F901208131815D963C932E935C97549641
:1052C0004D935D936D937C935797019781F58FEF85
:1052D0009FEF5F969C938E935E97DE01A658BC4F1E
:1052E0008D919C9111971E974D915D916D917C913F
:1052F000CE59DC4F28813981F501358F248F448BBD
:10530000558B668B778B0197A9F48FEF9FEF978F63
:10531000868FDF91CF911F910F91FF90EF90DF90DB
:10532000CF90BF90AF900895578F468FB1CF81E057
:1053300090E0CFCF81E090E0EACF8F929F92AF9242
:10534000BF92CF92DF92EF92FF92CF93DF937B01D8
:105350000E94A71CEC01F70182A093A0A4A0B5A015
:10536000C68CD78CE0A0F1A08A819B818F30F7E2B8
:105370009F070CF043C001969B838A838C819D819B
:105380008F3027E29207ECF596012B7F21553109EA
:105390002330310530F096012B553109233031058A
:1053A00018F401969D838C83C6010E94950788237B
:1053B00059F1F601EE0FFF1FEE0FFF1FE95DF54FEC
:1053C00080829182A282B382B501A401C6010E94AB
:1053D000DA1BB601CE010E9410160E94951D0E9494
:1053E000651D90E080E0DF91CF91FF90EF90DF901E
:1053F000CF90BF90AF909F908F9008951B821A829C
:10540000BDCF1D821C82D0CF8DEB93E00E94C514CE
:10541000E4CFCF93DF93EB010E94A71C6E8D7F8DAD
:105420000E94101690E080E0DF91CF9108950E94D5
:10543000A71C0E944A1687E594E00E94C5140E94AA
:10544000E5130E94311590E080E008950F931F93BB
:10545000CF93DF93EC0188819981009759F02A81DD
:105460003B812617370730F081E0DF91CF911F9104
:105470000F9108958B016F5F7F4F0E94A65C00978C
:1054800059F0998388831B830A832C813D81232BC8
:1054900059F7FC011082E8CF80E0E7CF0F931F930C
:1054A000CF93DF93EC018B01D1DF2881398181110A
:1054B00012C02115310519F0C9010E94EA54198260
:1054C00018821D821C821B821A82CE01DF91CF912D
:1054D0001F910F9108951D830C8368EA74E0C90140
:1054E0000E94985DF2CFCF93DF93FC01E25BFD4F0A
:1054F000408151814115510501F1EC01CE5ADD4F3A
:1055000028813981865B9D4F24173507E8F4FC011B
:10551000808191810097A1F0820F931FFC0180810F
:105520008A3031F08D3069F486EA94E00E94C51427
:1055300088819981019699838883DF91CF9108951D
:1055400080E00E940F09F4CF70E060E0A7DF1982CD
:105550001882F3CF0F931F93CF93DF93EC018C014D
:10556000025B1D4FF80180819181892B19F0CE01DA
:10557000BADFF8CFDF91CF911F910F9108952F924D
:105580003F924F925F926F927F928F929F92AF92D3
:10559000BF92CF92DF92EF92FF920F931F93CF9320
:1055A000DF93CDB7DEB7CE58D1090FB6F894DEBF82
:1055B0000FBECDBF8C01FC011082118212821382BA
:1055C000148215821682178210861186128613861F
:1055D00014861586168617864C01F0E18F0E911CF5
:1055E000C4010E94241268018EE9C80ED11CC601B4
:1055F0000E9424127801E4EDEE1AEEEFFE0AC701D4
:105600000E9424125801F6E4AF1AFEEFBF0AC5014A
:105610000E94F50D380186E1681A8EEF780AC30101
:105620000E94F50D2801E6EE4E1AEDEF5E0AC2016A
:105630000E94F50DF801E65BFD4F11821082138286
:1056400012821582148270E060E0CF0127DFF8013A
:10565000E05BFD4F118210823296118210823296E9
:10566000118210823296118210823296108211823B
:1056700012821382349610823196108231961082F3
:1056800031961182108232961182108232961182E6
:1056900010823296108231961082319610823196A5
:1056A0001082118212821382349610821182128229
:1056B00013823496108211821282138234961082E1
:1056C0001182128213823496108211821282138206
:1056D00034961082118212821382349610821182C3
:1056E00012821382349610821182128213823496AF
:1056F00010821182128213823496108211821282D9
:105700001382349610821182128213823496108290
:1057100011821282138234961082118212821382B5
:105720003496108211821282138234961082118272
:10573000128213823496108211821282138234965E
:105740001082118212821382349610821182128288
:105750001382349610821182128213823496108240
:105760001182128213823496108211821282138265
:105770003496108211821282138234961082118222
:10578000128213823496108211821282138234960E
:1057900010823196108231961082319610821182D9
:1057A00012821382349610821182128213823496EE
:1057B00010821182128213823496108231961082E6
:1057C00031961082D801A652BD4F8CE0E9E1F2E09B
:1057D00001900D928A95E1F7D801AA51BD4F8CE056
:1057E000E5E2F2E001900D928A95E1F7F801EE50C2
:1057F000FD4F1082319610823196108231961082C0
:105800003196108231961082319610823196108234
:105810003196108231961082319610823196108224
:105820003196108231961082319610823196108214
:105830003196108231961082319610823196108204
:105840003196108231961082118212821382349620
:105850001082118212821382349610821182128277
:105860001382D801AD5EBC4F8CE0E1E3F2E0019021
:105870000D928A95E1F7F801E15EFC4F10821182EA
:10588000128213823496108211821282138234960D
:105890001082118212821382349611821082329603
:1058A00011821082329611821082329610821182F9
:1058B00012821382349610821182128213823496DD
:1058C0001082118212821382349610821182128207
:1058D00013823496108211821282138234961082BF
:1058E00011821282138234961182108232961182B2
:1058F00010823296118210823296108211821282A8
:10590000138234961082118212821382349610828E
:10591000118212821382349610823196108231964F
:105920001082319611821082329611821082329644
:105930001182108232961082118212821382349662
:105940001082118212821382349610821182128286
:10595000138234961182108232961182108232960E
:105960001182108232961182108232961182108238
:1059700032961182108232961182108232961182F2
:1059800010821801F0E82F1AFCEF3F0AF101108293
:10599000319611821082329611821082CE010196C8
:1059A0000E9424128EE8FE013196D40101900D92DE
:1059B0008A95E1F7CE0101960E9424128EE8FE013D
:1059C0003196D60101900D928A95E1F7CE010196AC
:1059D0000E9424128EE8FE013196D70101900D92AB
:1059E0008A95E1F788E5F801808B89E5F6018083E7
:1059F0008AE5F7018083CE0101960E94F50D80E3D0
:105A0000FE013196D50101900D928A95E1F7CE0104
:105A100001960E94F50D80E3FE013196D3010190BD
:105A20000D928A95E1F7CE0101960E94F50D80E373
:105A3000FE013196D20101900D928A95E1F7C801DD
:105A400035DBF1011082C257DF4F0FB6F894DEBF8D
:105A50000FBECDBFDF91CF911F910F91FF90EF90BF
:105A6000DF90CF90BF90AF909F908F907F906F907E
:105A70005F904F903F902F900895CF93DF93809148
:105A8000070990910809892B51F485E893E00E9459
:105A90004E54EC0174DDD0930809C093070980913E
:105AA000070990910809DF91CF910895CF93DF9373
:105AB00080910609811121C081E080930609DDDF14
:105AC000EC0140960E94F011CE0182569F4F0E9439
:105AD000F011CE01845D9E4F0E94F011C85ADD4F37
