:100000009EC10000CDC10000CBC10000C9C10000ED
:10001000C7C10000C5C10000C3C10000C1C10000CC
:10002000BFC10000BDC10000BBC10000B9C10000DC
:10003000B7C10000B5C10000B3C10000B1C10000EC
:10004000AFC100000C948C4CABC10000A9C10000F2
:100050000C94BA4CA5C10000A3C100000C94B84B8D
:100060009FC100000C94824B0C94584B99C1000026
:1000700097C1000095C1000093C1000091C100002C
:100080000C945E4C8DC100008BC1000089C1000042
:1000900087C1000085C1000083C1000081C100004C
:1000A0007FC100007DC100000C94304C79C100007C
:1000B00077C1000075C1000073C100000C94024CB0
:1000C0006FC100006DC100006BC1000069C100007C
:1000D00067C1000065C1000063C1000061C100008C
:1000E0005FC100004E414E494E495459494E46CDDC
:1000F000CCCC3D0AD7233C17B7D13877CC2B3295DF
:1001000095E6241FB14F0A000020410000C84200BC
:10011000401C4620BCBE4CCA1B0E5AAEC59D740086
:10012000407A10F35A00A0724E18090010A5D4E8C6
:100130000000E87648170000E40B54020000CA9A59
:100140003B000000E1F505000080969800000040AB
:10015000420F000000A086010000001027000000F0
:1001600000E803000000006400000000000A000036
:100170000000000100000000002C76D888DC674FEA
:100180000823DFC1DFAE59E1B1B796E5E3E453C61A
:100190003AE651997696E8E6C28426EB898C9B6212
:1001A000ED407C6FFCEFBC9C9F40F2BAA56FA5F4BC
:1001B00090055A2AF75C936B6CF9676DC11BFCE0E4
:1001C000E40D47FEF520E6B500D0ED902E03009437
:1001D0003577050080841E080000204E0A000000CC
:1001E000C80C333333330F986E12831141EF8D21D6
:1001F00014893BE65516CFFEE6DB18D1844B381B3D
:10020000F77C1D901DA4BBE424203284725E228101
:1002100000C9F124ECA1E53D2700002100240027BE
:10022000002A002D00300033000101000004010706
:10023000010A0100002200250028002B002E0031B9
:1002400000340002010000050108010B010000203C
:10025000002300260029002C002F0032000001009E
:100260000003010601090105050505070508080841
:1002700008020202020A0A08080404040401010137
:10028000010101010103030303030303030407073F
:10029000070C0C0C0C0C0C0C0C02020202060606DD
:1002A00006060606060B0B0B0B0B0B0B0B010210C5
:1002B0002020080810204010204080020102010880
:1002C0000402010102040810204080804020100830
:1002D0000402018004020180402010080402010889
:1002E00004020101020408102040800102040810E9
:1002F00020408000000A0B02090C0D0E08070304C1
:1003000001000000000000000000000000000000EC
:1003100000000000000000000000000000000012CB
:1003200011100000000000000000000000000000AC
:1003300000000000000000000000044DF85A1124E5
:100340001FBECFEFD1E2DEBFCDBF00E00CBF19E092
:10035000A0E0B2E0EEEEFBEC00E00BBF02C00790C5
:100360000D92A235B107D9F725E1A2E5B9E001C0A8
:100370001D92A034B207E1F711E0CEE9D1E000E030
:1003800006C021970109802FFE010E94D164CD395A
:10039000D10780E00807A9F70E94F54E0C94E665A6
:1003A0002FCE8CBD9DBD08959C01803E910508F027
:1003B000B1C5FC018827E052FE4F8F4F0C94D164E9
:1003C000C002CD02D602DF02EC02F5028A078A07DC
:1003D0008A078A078A0702030F031C038A07290377
:1003E00032033B03480351035A0363036C03750351
:1003F0008A077E03870390038A078A078A0799037F
:10040000A203AB038A078A07B403C1038A078A07DA
:100410008A07CE03DB03E803F50302040B0414048C
:100420008A078A078A071D0426042F048A073C04CA
:10043000490456048A078A078A07630470047D0406
:100440008A049704A404B1048A078A078A07BE04B1
:10045000CB04D804E504F204FB0404058A078A07E8
:100460008A0791059E05AB058A07B805C505D20523
:100470008A078A078A07DF05E805F1058A078A07E0
:100480008A078A078A078A078A07FA0503060C067D
:100490008A0715061E0627068A078A078A07300676
:1004A0003D064A068A075706640671068A078A07C8
:1004B0008A077E068B0698068A07A506AE06B7064B
:1004C0008A078A078A07C006C906D2068A078A07EA
:1004D0008A078A078A078A078A078A078A078A0794
:1004E0008A070D0516051F058A078A078A078A07E6
:1004F0008A078A078A078A078A078A078A078A0774
:100500008A072805350542058A0776057F0588058F
:100510008A078A078A074F055C0569058A078A07E3
:100520008A078A078A078A078A078A078A078A0743
:100530008A078A078A078A078A078A078A078A0733
:100540008A078A078A078A078A078A078A078A0723
:100550008A07DB06E406F1068A07FE06070714078A
:100560008A078A078A0721072A0737078A07440765
:100570004D075A078A078A078A07670770077D07AA
:1005800081E090E0A0E0B0E08093770A9093780A51
:10059000A093790AB0937A0A089510927B0A109278
:1005A0007C0A10927D0A10927E0A089510927F0AAA
:1005B0001092800A1092810A1092820A089581E0B6
:1005C00090E0A0E0B0E08093830A9093840AA09327
:1005D000850AB093860A08951092870A1092880AB5
:1005E0001092890A10928A0A089583E090E0A0E0B0
:1005F000B0E080938B0A90938C0AA0938D0AB093FD
:100600008E0A089588E790E0A0E0B0E08093A30A06
:100610009093A40AA093A50AB093A60A089588E728
:1006200090E0A0E0B0E08093A70A9093A80AA0937E
:10063000A90AB093AA0A089588E790E0A0E0B0E084
:100640008093AB0A9093AC0AA093AD0AB093AE0A24
:1006500008951092B30A1092B40A1092B50A10923B
:10066000B60A08951092B70A1092B80A1092B90A01
:100670001092BA0A089581E090E0A0E0B0E0809383
:10068000BB0A9093BC0AA093BD0AB093BE0A08951A
:100690001092BF0A1092C00A1092C10A1092C20AA8
:1006A00008951092C30A1092C40A1092C50A1092BB
:1006B000C60A08951092C70A1092C80A1092C90A71
:1006C0001092CA0A08951092CB0A1092CC0A109286
:1006D000CD0A1092CE0A08951092CF0A1092D00A35
:1006E0001092D10A1092D20A08951092D30A109251
:1006F000D40A1092D50A1092D60A08951092DB0AF5
:100700001092DC0A1092DD0A1092DE0A089510920F
:10071000DF0A1092E00A1092E10A1092E20A0895AC
:100720001092E30A1092E40A1092E50A1092E60A87
:1007300008951092F30A1092F40A1092F50A10929A
:10074000F60A08951092F70A1092F80A1092F90A20
:100750001092FA0A08951092FB0A1092FC0A109265
:10076000FD0A1092FE0A089581E090E0A0E0B0E05A
:100770008093070B9093080BA093090BB0930A0B7F
:10078000089581E090E0A0E0B0E080930B0B90939F
:100790000C0BA0930D0BB0930E0B08958CE291E01F
:1007A000A0E0B0E080931B0B90931C0BA0931D0B5B
:1007B000B0931E0B08958CE291E0A0E0B0E080932E
:1007C0001F0B9093200BA093210BB093220B089545
:1007D0008CE291E0A0E0B0E08093230B9093240B97
:1007E000A093250BB093260B08958CE291E0A0E036
:1007F000B0E08093270B9093280BA093290BB09324
:100800002A0B089510922B0B10922C0B10922D0B8B
:1008100010922E0B089510922F0B1092300B109205
:10082000310B1092320B08951092330B1092340B4F
:100830001092350B1092360B08951092430B1092C4
:10084000440B1092450B1092460B08951092470BE3
:100850001092480B1092490B10924A0B089581E0B8
:1008600090E0A0E0B0E080934B0B90934C0BA093F2
:100870004D0BB0934E0B089585E090E0A0E0B0E002
:100880008093530B9093540BA093550BB093560B3E
:10089000089585E090E0A0E0B0E08093570B90933E
:1008A000580BA093590BB0935A0B089589E190E02F
:1008B000A0E0B0E080935B0B90935C0BA0935D0B8A
:1008C000B0935E0B089582E390E0A0E0B0E08093E7
:1008D0006B0B90936C0BA0936D0BB0936E0B089504
:1008E00082E390E0A0E0B0E080936F0B9093700BF8
:1008F000A093710BB093720B089582E390E0A0E097
:10090000B0E08093730B9093740BA093750BB0932E
:10091000760B089582E390E0A0E0B0E08093770B3F
:100920009093780BA093790BB0937A0B089582E3A0
:1009300090E0A0E0B0E080937B0B90937C0BA093C1
:100940007D0BB0937E0B089582E390E0A0E0B0E0D1
:1009500080937F0B9093800BA093810BB093820BBD
:10096000089582E390E0A0E0B0E08093830B909341
:10097000840BA093850BB093860B089580E991E0DA
:10098000A0E0B0E08093930B9093940BA093950B11
:10099000B093960B089580E991E0A0E0B0E08093D9
:1009A000970B9093980BA093990BB0939A0B089583
:1009B00080E991E0A0E0B0E080939B0B90939C0BCA
:1009C000A0939D0BB0939E0B089580E991E0A0E069
:1009D000B0E080939F0B9093A00BA093A10BB093DA
:1009E000A20B08951092A30B1092A40B1092A50BCA
:1009F0001092A60B08951092A70B1092A80B1092BC
:100A0000A90B1092AA0B08951092AB0B1092AC0B8D
:100A10001092AD0B1092AE0B08951092BB0C109279
:100A2000BC0C1092BD0C1092BE0C08951092BF0C1D
:100A30001092C00C1092C10C1092C20C089510922A
:100A4000C30C1092C40C1092C50C1092C60C0895E1
:100A500083E090E0A0E0B0E08093FB0C9093FC0C6E
:100A6000A093FD0CB093FE0C089583E090E0A0E00D
:100A7000B0E08093FF0C9093000DA093010DB09314
:100A8000020D089583E090E0A0E0B0E08093030DB4
:100A90009093040DA093050DB093060D08958AE080
:100AA00090E0A0E0B0E08093230D9093240DA093FC
:100AB000250DB093260D08958AE090E0A0E0B0E007
:100AC0008093270D9093280DA093290DB0932A0DA4
:100AD00008958AE090E0A0E0B0E080932B0D909321
:100AE0002C0DA0932D0DB0932E0D089510920B0D8B
:100AF00010920C0D10920D0D10920E0D0895109283
:100B00000F0D1092100D1092110D1092120D0895EC
:100B10001092130D1092140D1092150D1092160DC7
:100B2000089588E592E0A0E0B0E08093BB0B90933D
:100B3000BC0BA093BD0BB093BE0B089588E592E06B
:100B4000A0E0B0E08093BF0B9093C00BA093C10BCB
:100B5000B093C20B089588E592E0A0E0B0E08093E6
:100B6000C30B9093C40BA093C50BB093C60B089511
:100B70008EE190E0A0E0B0E08093CB0B9093CC0BA3
:100B8000A093CD0BB093CE0B08958EE190E0A0E042
:100B9000B0E08093CF0B9093D00BA093D10BB09388
:100BA000D20B08958EE190E0A0E0B0E08093D30BEB
:100BB0009093D40BA093D50BB093D60B08951092BD
:100BC000E30B1092E40B1092E50B1092E60B0895E4
:100BD0001092E70B1092E80B1092E90B1092EA0BBF
:100BE00008951092EB0B1092EC0B1092ED0B1092FB
:100BF000EE0B089510920B0C10920C0C10920D0C31
:100C000010920E0C089510920F0C1092100C10926E
:100C1000110C1092120C08951092130C1092140CD7
:100C20001092150C1092160C089510921B0C109235
:100C30001C0C10921D0C10921E0C089510921F0C8B
:100C40001092200C1092210C1092220C08951092F8
:100C5000230C1092240C1092250C1092260C08954F
:100C600085E090E0A0E0B0E08093330C9093340CEA
:100C7000A093350CB093360C089585E090E0A0E089
:100C8000B0E08093370C9093380CA093390CB0935C
:100C90003A0C089585E090E0A0E0B0E080933B0C32
:100CA00090933C0CA0933D0CB0933E0C089584EBC4
:100CB00095E1A0E0B0E08093430C9093440CA093A6
:100CC000450CB093460C089584EB95E1A0E0B0E0AC
:100CD0008093470C9093480CA093490CB0934A0C16
:100CE000089584EB95E1A0E0B0E080934B0C9093E5
:100CF0004C0CA0934D0CB0934E0C089585E090E001
:100D0000A0E0B0E080935B0C90935C0CA0935D0C32
:100D1000B0935E0C089585E090E0A0E0B0E0809391
:100D20005F0C9093600CA093610CB093620C0895DB
:100D300085E090E0A0E0B0E08093630C9093640CB9
:100D4000A093650CB093660C089510926B0C1092F2
:100D50006C0C10926D0C10926E0C089510926F0C2A
:100D60001092700C1092710C1092720C08951092E7
:100D7000730C1092740C1092750C1092760C0895EE
:100D80001092830C1092840C1092850C1092860C99
:100D900008951092870C1092880C1092890C109272
:100DA0008A0C089510928B0C10928C0C10928D0C62
:100DB00010928E0C089510929B0D10929C0D109223
:100DC0009D0D10929E0D08958CE390E0A0E0B0E0A0
:100DD00080939F0D9093A00DA093A10DB093A20DB1
:100DE000089581E090E0A0E0B0E08093A30D90939F
:100DF000A40DA093A50DB093A60D08951092AB0D70
:100E00001092AC0D1092AD0D1092AE0D08958CE3C2
:100E100090E0A0E0B0E08093AF0D9093B00DA09370
:100E2000B10DB093B20D089581E090E0A0E0B0E084
:100E30008093B30D9093B40DA093B50DB093B60D00
:100E400008951092C30D1092C40D1092C50D10920A
:100E5000C60D08958CE390E0A0E0B0E08093C70D4C
:100E60009093C80DA093C90DB093CA0D089581E069
:100E700090E0A0E0B0E08093CB0D9093CC0DA093D8
:100E8000CD0DB093CE0D08951092D30D1092D40DC8
:100E90001092D50D1092D60D08958CE390E0A0E04D
:100EA000B0E08093D70D9093D80DA093D90DB09357
:100EB000DA0D089581E090E0A0E0B0E08093DB0DD2
:100EC0009093DC0DA093DD0DB093DE0D089510928C
:100ED000EB0D1092EC0D1092ED0D1092EE0D0895A9
:100EE0008CE390E0A0E0B0E08093EF0D9093F00DE4
:100EF000A093F10DB093F20D089581E090E0A0E091
:100F0000B0E08093F30D9093F40DA093F50DB093A2
:100F1000F60D0895220F331F220F331FF901E958F0
:100F2000F54F108211821282138208958C3691053A
:100F30000CF04EC089369105CCF4863391055CF5F2
:100F4000833391059CF48C319105BCF48931910572
:100F50006CF48E30910564F48B3091053CF400976D
:100F600029F097FD08C00297049728F481E00895BE
:100F70000F970997D8F380E00895863291053CF4E5
:100F8000843291059CF74F970397A8F7EFCF899785
:100F9000079788F7EBCF8435910574F48135910577
:100FA0002CF7843491052CF48D339105FCF6C7970A
:100FB000EBCF87549109ECCF8E35910534F48B3506
:100FC0009105A4F685559109DFCF85569109DCCFAF
:100FD000843A91051CF5813A910544F680389105D3
:100FE00084F48D37910514F6863791053CF48337E8
:100FF00091050CF0BBCF8F569109C6CF8957910947
:10100000C3CF803991053CF48D3891050CF0AECFFB
:1010100083589109B9CF81599109B6CF803D910587
:101020008CF48D3C91050CF0A1CF8E3A91053CF4E7
:101030008B3A91050CF09ACF855A9109A5CF895C1E
:101040009109A2CF8A3D91053CF4873D91050CF0B2
:101050008DCF835D910998CF8D5D910995CF8CB52A
:101060008C7F8CBD8DB58E7F8DBD0895AF92BF9264
:10107000CF92DF92EF92FF920F931F93CF93DF9364
:101080006C017B018B01040F151FEB015E01AE1893
:10109000BF08C017D10759F06991D601ED91FC91B5
:1010A0000190F081E02DC6011995892B79F7C501D2
:1010B000DF91CF911F910F91FF90EF90DF90CF9034
:1010C000BF90AF900895FC01538D448D252F30E0E3
:1010D000842F90E0821B930B541710F0CF96089545
:1010E00001970895FC01918D828D981761F0A28D72
:1010F000AE0FBF2FB11D5D968C91928D9F5F9F7338
:10110000928F90E008958FEF9FEF0895FC01918DED
:10111000828D981731F0828DE80FF11D858D90E05A
:1011200008958FEF9FEF0895FC01918D228D892FF7
:1011300090E0805C9F4F821B91098F7399270895DF
:101140008CEF9DE0F1DF21E0892B09F420E0822F74
:101150000895FC01A48DA80FB92FB11DA35ABF4F4C
:101160002C91848D90E001968F739927848FA689A6
:10117000B7892C93A089B1898C91837080648C93FA
:10118000938D848D981306C00288F389E02D8081A9
:101190008F7D80830895EF92FF920F931F93CF93DB
:1011A000DF93EC0181E0888F9B8D8C8D98131AC0A2
:1011B000E889F989808185FF15C09FB7F894EE8989
:1011C000FF896083E889F9898081837080648083E6
:1011D0009FBF81E090E0DF91CF911F910F91FF9031
:1011E000EF900895F62E0B8D10E00F5F1F4F0F73D9
:1011F0001127E02E8C8D8E110BC00FB607FCFACF95
:10120000E889F989808185FFF5CFCE01A2DFF2CF91
:10121000EB8DEC0FFD2FF11DE35AFF4FF0829FB7CE
:10122000F8940B8FEA89FB8980818062D0CF682F88
:101230008CEF9DE0B0CFCF93DF93EC01888D8823B6
:10124000B1F0AA89BB89E889F9898C9185FD03C031
:10125000808186FD0CC00FB607FCF7CF8C9185FF0F
:10126000F2CF808185FFEDCFCE0173DFEACFDF9132
:10127000CF91089580E090E0892B21F061DF81110A
:101280000E94000080E090E0892B49F080E090E02F
:10129000892B29F00E94000081110E94000080E04B
:1012A00090E0892B49F080E090E0892B29F00E94A2
:1012B000000081110E94000080E090E0892B49F03D
:1012C00080E090E0892B29F00E94000081110C94AD
:1012D000000008958150823108F05AC0E82FF0E0F4
:1012E0008827EA58F64F8F4F0C94D16496099A09D3
:1012F00088098E099209C8099D09A309A709AD09A2
:10130000B109B509BB09BF09C809C309C909CD0994
:10131000809180008F778093800008958091800075
:101320008F7DF9CF80918000877FF5CF84B58F774F
:1013300084BD089584B58F7DFBCF8091B0008F77F9
:101340008093B00008958091B0008F7DF9CF809197
:1013500090008F77809390000895809190008F7D0A
:10136000F9CF80919000877FF5CF8091A0008F7793
:101370008093A00008958091A0008F7DF9CF809187
:10138000A000877FF5CF809120018F778093200187
:101390000895809120018F7DF9CF80912001877F72
:1013A000F5CFCF93DF93282F30E0F901ED50FD4FBB
:1013B0008491F901E355FD4FD491F901E959FD4FAD
:1013C000C491CC2399F0811185DFEC2FF0E0EE0F72
:1013D000FF1FE35BFD4FA591B491EC91ED2381E0FC
:1013E00090E009F480E0DF91CF91089580E090E0F3
:1013F000FACF1F93CF93DF93282F30E0F901ED5000
:10140000FD4F8491F901E355FD4FD491F901E9595C
:10141000FD4FC491CC23A1F0162F81115BDFEC2F7F
:10142000F0E0EE0FFF1FED5CFD4FA591B4918FB77B
:10143000F894EC91111108C0D095DE23DC938FBF96
:10144000DF91CF911F910895DE2BF8CFCF93DF93DB
:1014500090E0FC01E355FD4F249189599D4FFC011B
:1014600084918823C9F090E0880F991FFC01E75E02
:10147000FD4FA591B491FC01ED5CFD4FC591D49158
:1014800061110DC09FB7F8948C91209582238C93A5
:101490008881282328839FBFDF91CF9108956230F0
:1014A00051F49FB7F8943C91822F809583238C93BD
:1014B000E8812E2BEFCF8FB7F894EC912E2B2C9345
:1014C0008FBFEACF8230910538F0880F991F880FBF
:1014D000991F05970197F1F708953FB7F894809108
:1014E000690990916A09A0916B09B0916C0926B5C0
:1014F000A89B05C02F3F19F00196A11DB11D3FBF4C
:10150000BA2FA92F982F8827BC01CD01620F711D1A
:10151000811D911D42E0660F771F881F991F4A9514
:10152000D1F708958F929F92AF92BF92CF92DF92A0
:10153000EF92FF926B017C01D0DF4B015C01C11483
:10154000D104E104F104B1F0C8DF681979098A090E
:101550009B09683E73408105910588F321E0C21A1A
:10156000D108E108F10888EE880E83E0981EA11CDE
:10157000B11CE5CFFF90EF90DF90CF90BF90AF9080
:101580009F908F9008952FB7F8946091650970919E
:10159000660980916709909168092FBF0895CF92DD
:1015A000DF92EF92FF92CF93DF93EC01603282E003
:1015B0007807CCF5653B710514F064EB70E0898128
:1015C00028E830E0281B310987FD3395220F331FAF
:1015D000220F331F6901330FEE08FF088A8128E5C7
:1015E00032E0281B310987FD3395220F331F220F6C
:1015F000331F032E000C440B550B2C193D094E09CB
:101600005F09DB0177FF02C0B0E0A0E00E946663E3
:1016100024EB30E040E050E00E944063C20ED31E55
:10162000E41EF51EB601E881E03370F5298188E8F3
:1016300090E0821B910927FD9395880F991F880FD1
:10164000991F681779077CF02A8188E592E0821B50
:10165000910927FD9395880F991F880F991F681787
:1016600079070CF4CB010297880F991F4FB7F894B4
:101670002E2F30E0F901EE0FFF1FE20FF31FE756A8
:10168000F14F928381834FBFDF91CF91FF90EF9015
:10169000DF90CF9008951F93CF93DF93EC01162F27
:1016A0008881803308F04DC061E0812FCFDE8881D2
:1016B000282F30E0F901EE0FFF1FE20FF31FE7566E
:1016C000F14F1F736081607C612B608319821A82E5
:1016D0002CE0622F0E94B264829FB001112430E09E
:1016E00020E0AB01420F531FFA01EE0FFF1FE40F82
:1016F000F51FE756F14F908196FD16C02F5F3F4FC3
:101700002C30310571F7813009F51092800082E0AC
:10171000809381001092850010928400B19A80918C
:101720006F00826080936F00E8818E2F90E0FC0153
:10173000EE0FFF1FE80FF91FE756F14F808180641D
:1017400080838881DF91CF911F910895823061F469
:101750001092900080939100109295001092940046
:1017600088BB80937100E0CF833069F41092A000B1
:1017700082E08093A1001092A5001092A40089BB82
:1017800080937200D1CF8111CFCF1092200182E0DF
:101790008093210110922501109224018ABB80932D
:1017A0007300C2CFAF92BF92CF92DF92EF92FF92BF
:1017B0000F931F93CF93DF936B017A01EC01C05A13
:1017C000D64F28813CE0389F8001399F100D1124AD
:1017D000A090290FB12C27FF1FC0FB01118210829E
:1017E00088818F5F888388819801280F311D87FD4C
:1017F0003A95F6012A153B051CF488818C30BCF122
:1018000080819181049680349C4908F471C0F6016E
:101810008081918104966EC088819801280F311DC6
:1018200087FD3A952A153B05DCF68881A801480F0B
:10183000511D87FD5A95FA01EE0FFF1FE40FF51FAA
:10184000E756F14F808186FFCBCF8881F801E80F02
:10185000F11D87FDFA95CF01EE0FFF1FE80FF91F6D
:10186000E756F14F808160E08F73C3DDB9CF80818F
:1018700091812881A801420F511D27FD5A959A0197
:10188000FA01EE0FFF1FE20FF31FE756F14F218120
:101890003281820F931FF7019183808388819801A1
:1018A000280F311D87FD3A95F901EE0FFF1FE20F5A
:1018B000F31FE756F14F808186FF21C08881080F12
:1018C000111D87FD1A95F801EE0FFF1FE00FF11FA4
:1018D000E756F14F808161E08F73DF91CF911F91C7
:1018E0000F91FF90EF90DF90CF90BF90AF9081CDA0
:1018F00080E49CE9F701918380838FEF8883DF91F7
:10190000CF911F910F91FF90EF90DF90CF90BF90FC
:10191000AF900895CF93CFB7F89480915F0981116C
:1019200023C0ECE9F2E08491E2EEF2E09491E82F3A
:10193000F0E0EE0FFF1FE75EFD4FA591B491EC9133
:10194000E92319F461E085E354DD61E085E37EDDA0
:101950008CB580618CBD8CB580648CBD61E084E306
:1019600075DD61E083E372DD80915F098F5F8093B5
:101970005F09CFBFCF9108958CB58C608CBD8CB5BD
:101980008F7D8CBD6CDBC6CF0F931F93CF93DF93FE
:101990008B01EA01AB01415051094433510508F074
:1019A000E9C02230310508F0E5C048E3429FF0016C
:1019B000439FF00D1124E80FF91FE60FF71F81E098
:1019C00080836C2F232B09F4D2C061E0802F3EDD91
:1019D000209749F460E0802F0CDDCE01DF91CF919C
:1019E0001F910F910895CF3FD10511F461E0BFC061
:1019F000F801ED50FD4FE491E150E23108F0B2C042
:101A0000F0E08827E95FF24F8F4F0C94D164190DF5
:101A1000200D250D2F0D390DB20D430D4B0D530D1E
:101A20005D0D670D710D800D8A0DB20D940D9E0D2B
:101A3000A80D84B5806884BDC7BDD0E0C0E0CDCF1F
:101A400084B5806284BDC8BDF8CF80918000806875
:101A500080938000D0938900C0938800EECF80915E
:101A60008000806280938000D0938B00C0938A00B6
:101A7000E4CF80918000886080938000D0938D00B7
:101A8000C0938C00DACF8091B00080688093B00062
:101A9000C093B300D2CF8091B00080628093B00039
:101AA000C093B400CACF809190008068809390006A
:101AB000D0939900C0939800C0CF8091900080622D
:101AC00080939000D0939B00C0939A00B6CF8091F2
:101AD0009000886080939000D0939D00C0939C00FC
:101AE000ACCF8091A00080688093A0008091A0007E
:101AF0008F7B8093A000D093A900C093A8009DCFB6
:101B00008091A00080628093A000D093AB00C0932E
:101B1000AA0093CF8091A00088608093A000D0930A
:101B2000AD00C093AC0089CF809120018068809384
:101B30002001D0932901C09328017FCF80912001FB
:101B4000806280932001D0932B01C0932A0175CF2E
:101B500080912001886080932001D0932D01C09353
:101B60002C016BCF60E0C038D1050CF03FCF802F47
:101B700040DC63CFC1E0D0E030CFCF93DF93D0E043
:101B8000C0E0CE01D3D9882319F0CE010E94D40140
:101B90002196C13ED105A9F7DF91CF9108958FB766
:101BA000F8948091FB0D8FBF08954F925F926F92D2
:101BB0007F928F929F92AF92BF92CF92DF92EF92DD
:101BC000FF92CF93DF93EC016C897D898E899F8989
:101BD00088889988AA88BB88CE8CDF8C0D2C000C55
:101BE000EE08FF08603127E272078105910529F0B0
:101BF0001616170618061906ACF0A7019601C501BE
:101C0000B4010E94A364DF91CF91FF90EF90DF9029
:101C1000CF90BF90AF909F908F907F906F905F908C
:101C20004F9008950E94146220E030E44CE157E4A4
:101C30000E9402642B013C01488E598E6A8E7B8E75
:101C4000C501B4010E941462A30192010E94736253
:101C50004B015C01C701B6010E9414629B01AC01FB
:101C6000C501B4010E9473620E946A64CCCFFC017A
:101C700011821082138212821582148217821682B8
:101C80001086118612861386148615861686178688
:101C9000108A118A128A138A108E118E128E138E58
:101CA000158E148E178E168E10A211A212A213A2D8
:101CB00014A215A216A217A210A611A612A613A668
:101CC00014A615A681E090E097A786A780E197E289
:101CD000A0E0B0E0848B958BA68BB78B08958EBD6A
:101CE00000000DB407FEFDCF8EB50895DF92EF9290
:101CF000FF920F931F93CF93DF93EC01D62E122FF9
:101D0000032FF42EE52E60E0888573DB8D2D80682F
:101D1000E6DF89878E2DE3DF8F2DE1DF802FDFDF88
:101D2000812FDDDF61E0888564DB8985DF91CF91DC
:101D30001F910F91FF90EF90DF9008953F924F9287
:101D40005F926F927F928F929F92AF92BF92CF924B
:101D5000DF92EF92FF920F931F93CF93DF9300D008
:101D600000D0CDB7DEB79E838D83362E49015A0150
:101D70002701380101DE60E0ED81FE81808539DBDD
:101D8000832DADDFED81FE81818780E0A8DF80E0DB
:101D9000A6DF80E0A4DF80E0A2DF61E0ED81FE81CC
:101DA000808527DB60E0ED81FE81808522DB832D4D
:101DB00096DFED81FE81818780E091DFF82E80E063
:101DC0008EDF082F80E08BDF182F80E088DF202F48
:101DD00030E050E040E03F2969017A01FE2CED2C13
:101DE000DC2CCC24C12AFE2CED2CDC2CCC24C82AE3
:101DF00061E0ED81FE818085FCDA8C249D24AE2497
:101E0000BF24482059206A207B20A30192012C2561
:101E10003D254E255F25632D8D819E8167DFED81F8
:101E2000FE81818526960FB6F894DEBF0FBECDBF2A
:101E3000DF91CF911F910F91FF90EF90DF90CF90A6
:101E4000BF90AF909F908F907F906F905F904F90DA
:101E50003F900895EF92FF920F931F93CF93DF93DC
:101E6000EC0121E030E040E050E004C0220F331FDD
:101E7000441F551F6A95D2F779018A0160E05EDF41
:101E80008985DF91CF911F910F91FF90EF90089579
:101E9000CF93DF93EC0161E08885D8DA61E0888533
:101EA000A8DA6ADD60E08885A4DA80E018DF898737
:101EB00080E015DF80E013DF80E011DF80E00FDFDE
:101EC00061E08885DF91CF9194CA4F925F926F92C3
:101ED0007F928F929F92BF92CF92DF92EF92FF926A
:101EE0000F931F93CF93DF93EC017B014A016901AC
:101EF000B02ECEDF88E0E816F10409F48BC10CF0B7
:101F000065C182E0E816F10409F47AC184E0E816BC
:101F1000F10409F47AC1EA94EF2809F060C188E07D
:101F200090E0A0E0B0E0582F442733272227E12C8F
:101F3000F12C00E01FE06CE6CE0100DFB40190E080
:101F400080E00E94126225ED34E045E352E40E94F5
:101F5000736220E030E04AE754E40E94026428EB18
:101F60003EE145E05EE30E9473622B013C0126E600
:101F700036E646EA5EE30E94026420E030E040E894
:101F80005FE30E949D630E946F64603180F42CEED9
:101F900031E548E35EE3C301B2010E94026420E040
:101FA00030E040E85FE30E949D630E946F64862FEB
:101FB0008F71262F30E050E040E0542F432F322F16
:101FC000222722273F7144275527282B60E1CE0185
:101FD0008DDE60E0CE013EDF1FE0E12EF12C00E05F
:101FE00010E023E030E040E050E06CE6CE01A6DEF9
:101FF00010E7E12EF12C00E010E020E430E040E0BA
:1020000050E06CE6CE019ADE10E8E12EF12C00E003
:1020100010E020E830E040E050E06CE6CE018EDEDB
:10202000E12C10E8F12E01E010E020E030E041E08A
:1020300050E06CE6CE0182DEE12C10E4F12E00E0EF
:1020400010E020E030E0A9016CE6CE0177DE1FE071
:10205000E12EF12C00E010E021E030E040E050E023
:102060006CE6CE016BDEE12CF12C8701F39420E0CD
:1020700032E040E050E06CE6CE0160DEE12C10E2A0
:10208000F12E00E010E020E030E240E050E06CE6AD
:10209000CE0154DE2FEF3FEFA90163E1CE0126DE32
:1020A0002FEF3FEF4FE050E064E1CE011FDE20E173
:1020B00037E240E050E065E1CE0118DEE12CF12C82
:1020C00008E010E020E030E048E050E06CE6CE01AF
:1020D00035DEE12CF12C04E010E020E030E044E0BB
:1020E00050E06CE6CE012ADE1FE0E12EF12C00E08C
:1020F00010E028E030E040E050E06CE6CE011EDE6B
:10210000E12CF12C8701EA9424E630E040E050E035
:102110006EE6CE0113DEE12CF12C0FEF13E020E090
:1021200030E048E050E06EE6CE0108DE20E137E224
:1021300040E050E065E1CE01D9DD65E0CE018ADE08
:102140006BE0CE0187DE0D2C000CEE08FF08A60127
:1021500033272227E12CF12C01E010E06CE6CE01C0
:10216000EDDDBB20F9F062E0CE0174DEE12CF12C54
:10217000870120E030E044E050E060E7CE01DEDDA2
:1021800020E030E042E050E060E7CE01D7DDE12C16
:10219000FF24FA940FEF1FEF20E030E0A90160E781
:1021A000CE01CCDD64E670E080E090E0DF91CF917D
:1021B0001F910F91FF90EF90DF90CF90BF909F9075
:1021C0008F907F906F905F904F90ACC980E2E8163F
:1021D000F10451F144F480E1E816F10401F180E0EA
:1021E00090E0DC01A0CE80E4E816F10411F180E873
:1021F000E816F104A1F781E090E0A0E0B0E093CE12
:1022000087E090E0A0E0B0E08ECE86E090E0A0E035
:10221000B0E089CE85E090E0A0E0B0E084CE84E03C
:1022200090E0A0E0B0E07FCE83E090E0A0E0B0E0FE
:102230007ACE82E090E0A0E0B0E075CECF93DF935D
:10224000EC01188A198A1A8A1B8A83E590E00E9499
:10225000D10160E086E1CDD883E090E00197F1F70D
:102260008EA58295807F3BDD8FE090E00197F1F7AE
:1022700061E086E1DF91CF91BCC8CF92DF92EF920F
:10228000FF920F931F93CF93DF938C0183E590E030
:102290000E94D10160E086E1ACD883E090E0019734
:1022A000F1F7F80186A597A524E0880F991F2A95D4
:1022B000E1F78F6014DD8FE090E00197F1F7C4E063
:1022C000D0E0C12CD12C7601FE2CED2CDC2CCC24C2
:1022D00081E005DDC82A2197B9F761E086E189D858
:1022E000F801C08AD18AE28AF38ADF91CF911F91E7
:1022F0000F91FF90EF90DF90CF9008952F923F9233
:102300004F925F926F927F928F929F92AF92BF9205
:10231000CF92DF92EF92FF920F931F93CF93DF93B1
:1023200000D01F92CDB7DEB79C838B834B015A013F
:102330001901FA82E982FA0140805180628073803B
:1023400020E030E0A901C301B2010E949B6418168D
:1023500074F4F6012081318142815381C301B201BD
:102360000E949D63F5016083718382839383F801EA
:102370004080518062807380F401A68DB78D2089E2
:102380003189428953890E9466636B017C01EB812C
:10239000FC81E857FF4F8081882309F440C0C414B2
:1023A000D504E604F7040CF440C0F801C082D182E1
:1023B000E282F3828B819C81825A9F4F9C838B8324
:1023C000FC0180819181A281B381F101808391839D
:1023D000A283B383E981FA8180819181892B41F0C5
:1023E000C401E3DBEB81FC8160837183828393838F
:1023F0000F900F900F900F90DF91CF911F910F9141
:10240000FF90EF90DF90CF90BF90AF909F908F9014
:102410007F906F905F904F903F902F9008954C1455
:102420005D046E047F040CF0C0CFF5014080518044
:102430006280738020E030E04AEF56E4C301B201CD
:102440000E940E6287FFB1CF20E030E040E85FE3FA
:10245000C301B2010E949E63F50160837183828390
:102460009383A3CFCF93DF93EC0183B183B1E0E0FB
:10247000F1E080818081CE018A509E4FFEDE83B1E3
:1024800083B180B180B1CE018A5D9D4FF6DE83B10C
:1024900083B180B180B1CE018A5A9D4FDF91CF9137
:1024A000ECCE889A0895889808958E9A08958E980B
:1024B0000895EBE0F1E08081886080830895EBE08F
:1024C000F1E08081877F80830895149A089514989D
:1024D000089560E0FC01878D0C94F90960E0FC012F
:1024E000818D0C94F90961E0FC01878D0C94F90948
:1024F00061E0FC01818D0C94F909CF93DF93EC012D
:10250000FC01EF56FF4F1082379781E0808360E037
:10251000898D0E94F9098BA19CA1892B31F060E083
:102520008F8DDF91CF910C94F909DF91CF910895B0
:10253000CF93DF93EC018FA10E94D1092AA5281720
:10254000190621F48BA5DF91CF91089580E0FBCF90
:10255000CF93DF93EC018DA10E94D1092AA5281702
:10256000190621F48BA5DF91CF91089580E0FBCF70
:10257000CF93DF93EC018B8DFE01E35BFF4F9081E6
:1025800061E0911101C060E00E94F90989A1FE019A
:10259000E25BFF4F9081992331F0C15BDF4F98815F
:1025A00061E0911101C060E0DF91CF910C94F909D5
:1025B000CF93DF93EC018B8DFE01E35BFF4F9081A6
:1025C00060E0911101C061E00E94F90989A1FE015A
:1025D000E25BFF4F9081992331F0C15BDF4F98811F
:1025E00060E0911101C061E0DF91CF910C94F90995
:1025F000CF93DF93EC0161E08D8D0E94F909FE011C
:10260000E25BFF4F8081882321F061E08BA10E9473
:10261000F909C157DF4F1882DF91CF910895CF9309
:10262000DF93EC01FC01E454FC4F1082EE58F109F9
:102630008081811103C0CE014096DADFFE01E15DA9
:10264000FC4F8081811104C0CE018E549F4FD0DF9A
:10265000FE01E05DFC4F8081811104C0CE018C5AE7
:102660009E4FC6DF64E670E080E090E0DF91CF919E
:102670000C94920ACF93DF93EC0160E08D8D0E9461
:10268000F909FE01E25BFF4F8081882321F060E0C1
:102690008BA10E94F909C157DF4F81E08883DF9148
:1026A000CF9108958F929F92AF92BF92CF92DF9277
:1026B000EF92FF920F931F93CF93FC01E65AFF4FC7
:1026C0004083518362837383349640835183628352
:1026D000738334960083118322833383DC01AA59E8
:1026E000BF4FEC925297CC91CC2351F018974C915C
:1026F000411152C037FF56C01082118212821382DC
:10270000DC01AB5ABF4F4D915D916D917C91139758
:10271000141615061606170634F514963C91332345
:1027200011F1C080D180E280F38046015701F7FEAD
:1027300007C08824992454018C189D08AE08BF084E
:10274000481559056A057B0574F4F7FE07C07095B6
:102750006095509541955F4F6F4F7F4F40835183F8
:1027600062837383C32FFC01ED58FF4F10821182E7
:102770001282138289579F4F31E0FC0130838C2FE6
:10278000CF911F910F91FF90EF90DF90CF90BF906E
:10279000AF909F908F9008951016110612061306A1
:1027A0000CF4AACFC0E0ACCF0F931F93CF93DF936D
:1027B000EC01062F89A581110DC0CE01C9DE182FAD
:1027C000CE01B6DE0111182F812FDF91CF911F911D
:1027D0000F910895CE01ACDE182FCE01B9DEF2CFF5
:1027E000CF93DF93EC01FC01ED57FF4F8081918186
:1027F000A281B3810196A11DB11D80839183A28323
:10280000B3833E9681E08083AE01425A5F4FFA0166
:1028100080819181A281B3819E0128573F4FF901A8
:102820002081222309F440C00196A11DB11DFA01A7
:1028300080839183A283B383FE01EC56FF4F2081F6
:102840003181C901959587958C0F9D1F3297019015
:10285000F081E02D20FF08C0DC012D913C91E20FBA
:10286000F31F0190F081E02D19958BA19CA1892B7C
:10287000F9F0FE01E856FF4F20813181C90195959D
:1028800087958C0F9D1FCA56DF4FE881F98120FF85
:1028900008C0DC012D913C91E20FF31F0190F08103
:1028A000E02DDF91CF9119940197A109B109BFCF14
:1028B000DF91CF9108958F929F92AF92BF92CF9266
:1028C000DF92EF92FF920F931F93CF93DF93EC0170
:1028D000FC01ED58FF4F60817181828193810E94DC
:1028E00012626B017C01FE01E05BFF4F6081718130
:1028F000828193810E9414629B01AC0160E074E2CA
:1029000084E799E40E9402644B015C01FE01E158F6
:10291000FF4F60817181828193810E9412629B01CD
:10292000AC01C501B4010E9402644B015C018E013F
:1029300009581F4F20E030E040E05FE30E947362DF
:10294000A70196010E949E630E946F64F801608354
:10295000718382839383C558DF4FA5019401C7011A
:10296000B6010E949E630E946F64688379838A83A4
:102970009B83DF91CF911F910F91FF90EF90DF909C
:10298000CF90BF90AF909F908F9008950F931F931B
:10299000CF93DF93FC01EF56FF4F20812223B9F044
:1029A0007E97008111812281338138964081518147
:1029B00062817381041715072607370710F1EC01B0
:1029C0009CDDCE01DF91CF911F910F9174CFFC015F
:1029D000E957FF4F20812223A1F0749700811181D4
:1029E0002281338134964081518162817381041741
:1029F00015072607370728F0DF91CF911F910F9118
:102A0000EFCEDF91CF911F910F910895FC01E9570F
:102A1000FF4F2081222361F0749780819181A281F0
:102A2000B3810196A11DB11D80839183A283B383DD
:102A300008950F931F93FC01EA59FF4F2081211144
:102A400012C03897008111812281338134964081F0
:102A500051816281738104171507260737074CF4EB
:102A60001F910F91A5CDFC01E45BFF4F2081211147
:102A7000F7CF1F910F917CCDAF92BF92CF92DF9293
:102A8000EF92FF920F931F93CF93DF93EC016B01B3
:102A90005A0179019A01AB01B7018881998115DA50
:102AA0008C81883531F49501A601B7018A819B811B
:102AB0000CDADF91CF911F910F91FF90EF90DF9093
:102AC000CF90BF90AF900895CF93DF93EC018C81AE
:102AD0008835A9F588EF93E19983888388E294E1AA
:102AE0009B838A8388E792E1FE01EE56FF4F918334
:102AF000808332961182108283E792E1329691832D
:102B000080833296118210828EE692E13296918312
:102B1000808332961182108289E692E13296918307
:102B2000808332961182108288819981B1D98C81FB
:102B3000883589F48A819B81DF91CF91A9C9893534
:102B400029F488E094E199838883CCCF8A3551F6C3
:102B500088E194E1F8CFDF91CF910895CF93DF938F
:102B6000FC01DC0116968AE0ED0119928A95E9F7DD
:102B700081E0808B818B138A128A148A158A168AC7
:102B8000178A108E8CE291E0A0E0B0E084A795A7B0
:102B9000A6A7B7A780AB91ABA2ABB3AB42E350E023
:102BA00060E070E044AB55AB66AB77AB40AF51AF84
:102BB00062AF73AF44AF55AF66AF77AFEF01C05CA4
:102BC000DF4F88839983AA83BB8324968883998364
:102BD000AA83BB83DF01A85BBF4F48E750E060E0FA
:102BE00070E04D935D936D937C93139714961C92B4
:102BF00011961C9211961C9211961C92119644E605
:102C000050E060E070E04D935D936D937C9313977B
:102C100014961C9211961D921D921D921C92139750
:102C200014961C9211961D921D921D921C92139740
:102C300014961D921D921D921C92139714961D922C
:102C40001D921D921C92139714961C9211961D9220
:102C50001D921D921C92139714961D921D921D9207
:102C60001C92139714961D921D921D921C921397FD
:102C700014961D921D921D921C92139714961D92EC
:102C80001D921D921C92139714961D921D921D92D7
:102C90001C92139714961D921D921D921C921397CD
:102CA00014961D921D921D921C92139714961C92BD
:102CB00011961C9211961C9211961C9211961C92C0
:102CC00011961C9211961C9211961C9211961C92B0
:102CD00011961C9211961C92128E118E148E138EC8
:102CE000168E158E10A2178E12A211A214A213A274
:102CF00016A215A210A617A2119688E792E11196C6
:102D00009C938E93129611961C921E92129683E7B4
:102D100092E111969C938E93129611961C921E929C
:102D200012968EE692E111969C938E9312961196CE
:102D30001C921E92129689E692E18D939C93E05626
:102D4000FF4F11821082DF91CF91089508958FEF88
:102D50009FEF08950895089508950895089508959A
:102D6000089508950895089508950895089508957B
:102D700008950895089508950895089508958091F7
:102D80005D0990915E09892B41F481E090E00E94F9
:102D9000955C90935E0980935D0980915D099091A7
:102DA0005E0908950F931F93CF93DF938B01E7DFA5
:102DB000F801C2A1D3A1868D978D8530910529F1A7
:102DC0004CF40497B1F090E080E0DF91CF911F9137
:102DD0000F9108958630910511F10B97A1F76BE0E3
:102DE00070E083E39FE00E944B0BBE0183E39FE012
:102DF00009C064E070E08AE29FE00E944B0BBE01D4
:102E00008AE29FE00E94CF0ADECF65E070E08DE2AB
:102E10009FE00E944B0BBE018DE29FE0F3CF66E086
:102E200070E080E39FE00E944B0BBE0180E39FE0D7
:102E3000E9CF8091590990915A09892B91F480E743
:102E400090E00E94955CFC0131969C012B5C3F4F09
:102E5000119217AAE217F307D9F790935A098093B2
:102E600059098091590990915A0908954F925F929A
:102E70006F927F92AF92BF92CF92DF92EF92FF92CA
:102E80000F931F93CF93DF93EB01D3DF8C01CAA87D
:102E9000DBA84EA45FA468A879A8AEA0BFA0EE8C62
:102EA000FF8C4AA15BA19601B7010E94C40CC3012B
:102EB000B2010E94920A9601A501B701C8010E94C1
:102EC000C40C90E080E0DF91CF911F910F91FF90B3
:102ED000EF90DF90CF90BF90AF907F906F905F901A
:102EE0004F900895CF93DF93EB01A3DF6AA98E8DF6
:102EF0000E94260A90E080E0DF91CF910895CF9361
:102F0000DF93EB0196DF2AA93BA94AA15BA16E8D55
:102F10007F8D0E94C40C90E080E0DF91CF910895F6
:102F20008091520990915309892BE1F585E390E056
:102F30000E94955CFC0181E090E0A0E0B0E080831D
:102F40009183A283B38384839583A683B783808789
:102F50009187A287B3871586148616861786108AEE
:102F6000118A128A138A148A158A168A178A108E71
:102F7000118E138E128E12A213A214A215A217A2E2
:102F800016A210A611A612A613A614A615A616A67A
:102F900017A610AA11AA12AA13AA14AAF0935309E9
:102FA000E093520980915209909153090895CF936B
:102FB000DF93B6DFEC0185E40E94D10921E0892B83
:102FC00009F420E02C8FACDFEC0184E40E94D109ED
:102FD00021E0892B09F420E02D8FA2DFEC0183E4AE
:102FE0000E94D10921E0892B09F420E02E8F98DF7F
:102FF000EC0182E40E94D10921E0892B09F420E050
:103000002F8F8EDFEC0181E40E94D10921E0892B12
:1030100009F420E028A384DFEC0180E40E94D109B8
:1030200021E0892B09F420E029A3DF91CF910895B5
:1030300077DFBDCF75DFFC0114AA90E080E0089532
:10304000FC0101900020E9F73197AF01481B590BB3
:10305000BC018CEF9DE00C9436088F929F92AF924A
:10306000BF920F931F93CF93DF93CDB7DEB7A19796
:103070000FB6F894DEBF0FBECDBF19A2423008F4E0
:103080004AE08E010F5D1F4F842E912CB12CA12C94
:10309000A50194010E946C63E62FB901CA01EA30D0
:1030A000ECF4E05DD801EE938D01232B242B252B2E
:1030B00079F790E080E0109711F0CD01C1DFA19683
:1030C0000FB6F894DEBF0FBECDBFDF91CF911F9139
:1030D0000F91BF90AF909F908F900895E95CE2CFE1
:1030E000CF92DF92EF92FF92CF93DF9397FF18C0BA
:1030F0006B017C018DE20E941709EC01662777279E
:10310000CB016C197D098E099F094AE0A6DF8C0F5F
:103110009D1FDF91CF91FF90EF90DF90CF900895AA
:103120004AE0DF91CF91FF90EF90DF90CF9095CF65
:10313000BC01990F880B990BD3CF82CF882319F04C
:103140008AEA98E0FACF83EA98E0FCCF2F923F9288
:103150004F925F926F927F928F929F92AF92BF92A7
:10316000CF92DF92EF92FF920F931F93CF93DF9353
:1031700000D000D01F921F92CDB7DEB71C01FC011A
:10318000E557FF4F10823196108283579F4FFC0105
:103190001082D101A257BF4F1C9233961082260194
:1031A0003701441A550A660A770A49825A826B82A5
:1031B0007C8277FE0CC07094609450944094411CC3
:1031C000511C611C711C49825A826B827C824C1595
:1031D0005D056E057F0534F568017901C41AD50ACD
:1031E000E60AF70A49805A806B807C807594679460
:1031F000579447944D825E826F8278868101005792
:103200001F4F49805A806B807C804C145D046E0493
:103210007F0488F4F10164AC75AC81E08C93F80113
:10322000808327C0B901A8014C195D096E097F0987
:103230006A017B01D7CF4D805E806F8078844C140B
:103240005D046E047F0408F4C6C04AA05BA06CA0B5
:103250007DA04C145D046E047F040CF083C06E8C62
:103260007F8C2FEF621A720A21E0FC012083F801A3
:103270002083F1018489882309F45AC00E94C30A7B
:10328000F10102891389012E000C220B330B601B04
:10329000710B820B930B693E73408105910508F415
:1032A00047C00E94C30AF101738B628B80EB93E0ED
:1032B00044DF84EB93E041DF60E070E0CB0110DF9E
:1032C0008AEB93E03ADFC701B6010ADF80EC93E0B6
:1032D00034DF69817A818B819C8102DF86EC93E007
:1032E0002CDF4AE06D817E818F819885B6DE8DEC82
:1032F00093E023DF6AA17BA18CA19DA1F1DE83ED88
:1033000093E01BDFC501B401EBDE89ED93E015DF2F
:103310006E8D7F8D88A199A1E3DE8FED93E00DDFA7
:1033200082E497E00ADFC30103DF86EA94E005DF69
:10333000C30128960FB6F894DEBF0FBECDBFDF9154
:10334000CF911F910F91FF90EF90DF90CF90BF90A2
:10335000AF909F908F907F906F905F904F903F9035
:103360002F900895C701B6010E9414622B013C0101
:103370006AA17BA18CA19DA10E9414629B01AC015A
:10338000C301B2010E9402642B013C016E8D7F8D4E
:1033900088A199A1681979098A099B090E94146278
:1033A0009B01AC01C301B2010E9473622B013C017D
:1033B000C501B4010E9414629B01AC01C301B201BA
:1033C0000E949E630E946A643B0181E0F101E5571F
:1033D000FF4F808324CF89819A81AB81BC814AA031
:1033E0005BA06CA07DA084199509A609B709C81631
:1033F000D906EA06FB0654F46E8C7F8C22E0620E3E
:10340000711C81E0F101E357FF4FE3CF69817A81BD
:103410008B819C816C197D098E099F090E94146221
:103420002B013C016AA17BA18CA19DA10E94146289
:103430009B01AC01C301B2010E9402642B013C015B
:103440006E8D7F8D88A199A1681979098A099B09D8
:103450000E9414629B01AC01C301B2010E9473621D
:103460002B013C01C501B4010E9414629B01AC0117
:10347000C301B2010E949E630E946A643B0181E025
:10348000F101E457FF4FA5CF2F923F924F925F92E9
:103490006F927F928F929F92AF92BF92CF92DF9264
:1034A000EF92FF920F931F93CF93DF93EC013C01B8
:1034B0002EE5620E711CD3014D915D916D917C9151
:1034C0008C010E591F4FF80180819181A281B38137
:1034D0002E01F6E64F0E511CF201F0809E01285796
:1034E0003F4F5901B3961F01FF20D1F12C533109F1
:1034F000F9012081F501208321E0F10120834115AC
:1035000051056105710579F42081FE01E158FF4FF5
:10351000222309F44DC088AC99ACAAACBBAC808224
:103520009182A282B3825E01FAE5AF0EB11CF50171
:10353000C080D180E280F380C816D906EA06FB0677
:10354000E4F5481759076A077B070CF441C0D2011C
:103550008C9181113DC0FE01E957FF4F1082BFC021
:1035600021E0481759076A077B070CF020E0F501B6
:1035700020836A017B0177FF07C0CC24DD2476011C
:10358000C41AD50AE60AF70A4C015D01B7FF07C065
:10359000882499245401881A990AAA0ABB0A21E0AE
:1035A000C814D904EA04FB040CF0A7CF20E0A5CF8F
:1035B0008CA89DA8AEA8BFA8B2CF8C159D05AE055E
:1035C000BF052CF684179507A607B7070CF0BFCFE9
:1035D000FE01E957FF4F8081882309F4BCCFF20137
:1035E000808181110DC0D2018C918111B4CFD101A4
:1035F0006C9181E06827CE01D7D88111ACCF05C08E
:1036000060E0CE01D1D88111EECFF801C080D18029
:10361000E280F380D3010D911D912D913C91F50134
:103620004081518162817381D101EC91CE01815839
:103630009F4F2C01E1112AC08CA89DA8AEA8BFA85D
:10364000FE01E05CFF4F83818F9382818F938181A4
:103650008F93E081EF93EFA5EF93EEA5EF93EDA5A8
:10366000EF93ECA5EF93CE0171DDB0E0A0E0F201A5
:1036700080839183A283B3832DB73EB7285F3F4FEA
:103680000FB6F8943EBF0FBE2DBF29C088AC99ACD1
:10369000AAACBBACFE01EC5BFF4F83818F938281B0
:1036A0008F9381818F93E081EF93EBA9EF93EAA948
:1036B000EF93E9A9EF93E8A9EF93CE0147DDB0E0DE
:1036C000A0E0F20180839183A283B3832DB73EB73C
:1036D000285F3F4F0FB6F8943EBF0FBE2DBF60E08E
:1036E000CE0162D8882331F0D3011D921D921D9224
:1036F0001C921397DF91CF911F910F91FF90EF9044
:10370000DF90CF90BF90AF909F908F907F906F9001
:103710005F904F903F902F900895CF93DF93EC01EF
:1037200085EE93E00ADD6AA17BA18CA19DA1D8DC86
:1037300086EA94E0DF91CF9100CD0F931F93CF9352
:10374000DF938C01EB0182E993E0F7DC82E497E000
:10375000F4DCF80184810E941709CE01E9DCE0DB8A
:10376000DF91CF911F910F91D8CFEF92FF920F93DE
:103770001F93CF93DF93182F092F7B0161157105DC
:1037800069F50E94D10931E020E0019709F030E0AD
:10379000C32FD22F82E0E816F10408F045C088EE6E
:1037A00093E0CBDC82E497E0C8DC8CEE93E0C5DCF0
:1037B000812F902FBDDC82E497E0BFDC8FE499E09D
:1037C000BCDCCE01B5DCACDBA8DF90E080E0DF91B3
:1037D000CF911F910F91FF90EF900895D0E0C0E03E
:1037E00061307105B9F6812F163310F08AEC810F24
:1037F00020917B00982F9870277F922B90937B00CD
:103800008770806480937C0080917A0080648093CC
:103810007A0080917A0086FDFCCF80917800C0917B
:103820007900DC2FC82FB6CF81E090E0D0CF0F9386
:103830001F93CF93DF93FC01208131812115310546
:10384000C1F1EC01822F0E94D10921E0892B09F4FA
:1038500020E02B876A85261701F11E821F821886B9
:1038600019860E811F81288539858A819B81AC81CB
:10387000BD81081719072A073B07DCF081E068279C
:1038800088810E94F909D5DA70E060E08881998129
:10389000DF91CF911F910F9168CF8E819F81A88575
:1038A000B9850196A11DB11D8E839F83A887B98715
:1038B000D8CFDF91CF911F910F910895CF93DF93D0
:1038C000EB01B7DA6AA97BA98E8D9F8D4EDF90E060
:1038D00080E0DF91CF910895CF92DF92EF92FF9237
:1038E000CF93DF93EB01CB010E949607882351F120
:1038F000FE01EE0FFF1FEE0FFF1FE958F54FC080CE
:10390000D180E280F3808EEE93E017DC82E497E0D2
:1039100014DC8CEE93E011DCCE010ADC82E497E04B
:103920000CDC8FE499E009DCC701B601D9DBF8DAD9
:10393000F4DE90E080E0DF91CF91FF90EF90DF9098
:10394000CF90089582EF93E0F8DBF3CF0F931F93AE
:10395000CF93DF938C01D0E0C0E0CE010E949607A8
:10396000882319F0BE01C801B7DF2196C13ED105F9
:10397000A1F7DF91CF911F910F91089584E194E019
:10398000DCDB82E492E0D9DB8AE092E0D6DB89E1FD
:1039900094E0D3DBC5DAC1DE90E080E00895CF93F8
:1039A000DF93EC0184E294E0C8DB88E294E0C5DBBD
:1039B0008C8DC4DB8CE294E0C0DB8D8DBFDB80E3BB
:1039C00094E0BBDB8E8DBADB84E394E0B6DB8F8DB5
:1039D000B5DB88E394E0B1DB88A1B0DB8CE394E055
:1039E000ACDB89A1ABDBCE01DF91CF9196CE98DA2B
:1039F000D6CF80E494E0A1DB93DAD9DA91DACFDF95
:103A000018DA70E060E088E090E0AFDE12DA70E093
:103A100060E089E090E0A9DE0CDA70E060E08AE026
:103A200090E0A3DE06DA70E060E08DE090E09DDEDD
:103A300090E080E008954F925F926F927F928F9214
:103A40009F92AF92BF92CF92DF92EF92FF920F932D
:103A50001F93CF936B017C01742EAC019B010E94DC
:103A60009F64882391F087E494E0CF911F910F9198
:103A7000FF90EF90DF90CF90BF90AF909F908F908E
:103A80007F906F905F904F90DBCA46015701E8949A
:103A9000B7F82FEF3FEF4FE75FE7C501B4010E9492
:103AA0009F6481110DC02FEF3FEF4FE75FE7C50126
:103AB000B4010E940E6218161CF48BE494E0D5CF7A
:103AC0002FEF3FEF4FE75FE4C701B6010E949B6411
:103AD00018161CF48FE494E0C8CF2FEF3FEF4FE7A8
:103AE0005FECC701B6010E940E6287FDF3CF20E0B4
:103AF00030E0A901C701B6010E940E6210E000E0AB
:103B000087FF08C08DE20E9417098C01F7FAF09434
:103B1000F7F8F094C0E060E070E080E09FE37C168E
:103B200041F020E030E040E251E40E940264CF5FC7
:103B3000F6CFA70196010E949E632B013C010E94D3
:103B40006F644B015C014AE088DA7C01E00EF11EF3
:103B5000CC23A9F1C501B4010E9412629B01AC0102
:103B6000C301B2010E949D634B015C018EE20E9481
:103B70001709E80EF91EC15010F120E030E040E2D4
:103B800051E4C501B4010E9473622B013C010E9403
:103B90006F644B01B12CA12C4AE0C501B4015DDA80
:103BA000E80EF91EC501B4010E9412629B01AC012E
:103BB000C301B2010E949D634B015C01DCCFC701D0
:103BC000CF911F910F91FF90EF90DF90CF90BF901A
:103BD000AF909F908F907F906F905F904F900895DF
:103BE0008F929F92AF92BF92CF92DF92EF92FF920D
:103BF0000F931F93CF93DF93EC0182E592E09DDA60
:103C000088E694E09ADA6E018AE0C81A8EEFD80A44
:103C1000C6010E94D50D0E9414624B015C01FE0199
:103C2000E15BFC4F60817181828193810E9414620B
:103C30009B01AC01C501B4010E94026442E0FBDEBD
:103C400088E794E07ADA7E01EAEDEE1AEDEFFE0AFB
:103C5000C7010E94D50D0E9414624B015C01FE0158
:103C6000ED5AFC4F60817181828193810E941462C0
:103C70009B01AC01C501B4010E94026442E0DBDE9D
:103C800088E894E05ADA8E010A5A1D4FC8010E9452
:103C9000D50D0E9414624B015C01C95ADC4F68814A
:103CA00079818A819B810E9414629B01AC01C501CC
:103CB000B4010E94026442E0BEDE32D92EDD8EE401
:103CC00092E03BDA88E694E038DAF601A68DB78D0B
:103CD00020893189428953890E94666301DA88E725
:103CE00094E02BDAF701A68DB78D208931894289BE
:103CF00053890E946663F4D988E894E01EDAF801DB
:103D0000A68DB78D20893189428953890E946663C7
:103D1000E7D906D9DF91CF911F910F91FF90EF90D6
:103D2000DF90CF90BF90AF909F908F90F6CCCF92C6
:103D3000DF92EF92FF92CF93DF93EC01888199811C
:103D4000AA81BB81181619061A061B0644F081E0E9
:103D500090E0A0E0B0E088839983AA83BB838C8144
:103D60009D81AE81BF81181619061A061B0644F004
:103D700081E090E0A0E0B0E08C839D83AE83BF83C0
:103D800088859985AA85BB85181619061A061B060B
:103D900044F081E090E0A0E0B0E088879987AA87AE
:103DA000BB8783E594E0C9D988E694E0C6D96E85DF
:103DB0007F85888999890E9414626B017C016881E2
:103DC00079818A819B810E9414629B01AC01C701A9
:103DD000B6010E94026442E02EDE88E794E0ADD98D
:103DE0006A897B898C899D890E9414626B017C01A0
:103DF0006C817D818E819F810E9414629B01AC0148
:103E0000C701B6010E94026442E015DE88E894E032
:103E100094D96E897F89888D998D0E9414626B0177
:103E20007C01688579858A859B850E9414629B0147
:103E3000AC01C701B6010E94026442E0FCDDCE0184
:103E4000DF91CF91FF90EF90DF90CF9066CC68D854
:103E50006EDF90E080E00895FC0180819181009701
:103E600011F00C94315D08950C94315D0C94315D2A
:103E70000C94315D0C94315D0C94315D0C94315D8A
:103E80000C94315D0C94315D0C94315D0C94315D7A
:103E90000C94315D0C94315D0C94315D0C94315D6A
:103EA0000C94315D0C94315D0C94315D0C94315D5A
:103EB0000C94315D0C94315D0C94315D0C94315D4A
:103EC0000C94315DCF92DF92EF92FF920F931F938C
:103ED000CF93DF938C016A017B01EC01CC0FDD1FD6
:103EE000642FCE010E9432639927F7FC9A958F2D9B
:103EF0007E2D6D2DCE0101960E9432630D58110961
:103F00000330110588F4B701992777FD9095892F23
:103F1000CE0144960E9432636F2D77278827992718
:103F2000CE0145960E94326390E080E0DF91CF9110
:103F30001F910F91FF90EF90DF90CF9008954F92D7
:103F40005F926F927F928F929F92AF92BF92CF9229
:103F5000DF92EF92FF920F931F93CF93DF938C0129
:103F6000EC01CC0FDD1FCE010E942A63882E912C1C
:103F7000B12CA12CCE0101960E942A63C82ED12C0F
:103F8000F12CE12C0D5811090330110508F05AC02D
:103F9000CE0144960E942A63482E512C712C612C2C
:103FA000CE0145960E942A63082F10E030E020E001
:103FB0008FEF481651046104710429F50F3F110574
:103FC0002105310501F58FEF88169104A104B10494
:103FD000C9F58FEFC816D104E104F10499F56FEF2C
:103FE0007FEFCB01DF91CF911F910F91FF90EF9069
:103FF000DF90CF90BF90AF909F908F907F906F9009
:104000005F904F90089500381105210531053CF768
:10401000FE2CED2CDC2CCC24C701B601680D791DDB
:104020008A1D9B1D320155244424640D751D861D77
:10403000971D302F222711270027600F711F821F25
:10404000931FD0CF00E010E09801412C512C320199
:1040500080E8C816D104E104F104D4F2C0CFEF9295
:10406000FF920F931F93CF93DF9380915709909105
:104070005809892B51F586E090E00E94955C7C01FF
:1040800090E080E05CDF1616170654F1C7010E942D
:10409000BD0DD0E0C0E0CE010E949607882369F0F4
:1040A000FE01EE0FFF1FEE0FFF1FE958F54F408195
:1040B000518162817381CE0105DF2196C639D10518
:1040C00051F7F0925809E092570980915709909161
:1040D0005809DF91CF911F910F91FF90EF900895B4
:1040E00083E090E02CDF613071058105910531F5A9
:1040F00007E71AE0D0E0C0E0CE010E9496078823CF
:10410000B1F0CE011CDFF801608371838283938359
:104110006F3F7F4F8F4F9F4F51F4CE010E94D401CC
:10412000F8014081518162817381CE01CBDE2196FD
:104130000C5F1F4FC13ED105F9F6C3CFC7010E94E6
:10414000BD0DBFCFCF92DF92EF92FF920F931F93DF
:10415000CF93DF937C016B018A01E90180DFF601D7
:10416000EE0FFF1FEE0FFF1FE958F54F8081918181
:10417000F7019183808373DF000F111F000F111F60
:10418000F801E958F54F81E04081518162817381E6
:10419000413051056105710509F080E0F701828722
:1041A0005EDFCC0FDD1FCC0FDD1FC958D54F8881D6
:1041B0009981AA81BB81F70182839383A483B5830C
:1041C0001682178210861186DF91CF911F910F9171
:1041D000FF90EF90DF90CF900895CF93DF93EC01A5
:1041E0002AEC30E04BEC50E069EC70E0ABDF2EECF9
:1041F00030E04FEC50E06DEC70E0CE010C96A2DFA9
:1042000024ED30E045ED50E063ED70E0CE014896DE
:1042100099DF28ED30E049ED50E067ED70E0CE0128
:10422000849690DF2EED30E04FED50E06DED70E0C4
:10423000CE01C096DF91CF9185CFCF93DF93809150
:104240005B0990915C09892BA1F48CE390E00E94BA
:10425000955CEC01198218821D861C86198E188EB9
:104260001DA21CA219AA18AAB8DFD0935C09C0939A
:104270005B0980915B0990915C09DF91CF91089572
:104280002F923F924F925F926F927F928F929F9266
:10429000AF92BF92CF92DF92EF92FF920F931F9354
:1042A000CF93DF93EC01DBDEFE01EB57FC4F8091F7
:1042B000330C9091340C91838083D1DEFE01E95759
:1042C000FC4F8091370C9091380C91838083C7DE2E
:1042D000FE01E757FC4F80913B0C90913C0C918381
:1042E0008083BDDE8E0105571C4F60915B0C709181
:1042F0005C0C80915D0C90915E0C0E941462F80140
:104300006083718382839383AADE1E01F1E72F1AF3
:10431000FCEF3F0A60915F0C7091600C8091610C22
:104320009091620C0E941462F10160837183828318
:10433000938395DE20E030E048EC52E4F8016081A0
:104340007181828193810E9402642B013C0120E0F3
:1043500030E048EC52E4F101608171818281938107
:104360000E9402644B015C016091630C7091640CCB
:104370008091650C9091660C0E94146220E030E000
:1043800048EC52E40E9402646B017C012AE037EDA4
:1043900043E25CE3C301B2010E949B6418160CF077
:1043A0002BC120E030E046EC52E4C301B2010E9490
:1043B0000E6287FD06C0412C512C56EC652E52E44E
:1043C000752EF80140825182628273822AE037EDB5
:1043D00043E25CE3C501B4010E949B6418160CF033
:1043E00014C120E030E046EC52E4C501B4010E9463
:1043F0000E6287FD06C0812C912C36ECA32E32E490
:10440000B32EF10180829182A282B3822AE037ED3D
:1044100043E25CE3C701B6010E949B6418160CF0EE
:10442000FDC020E030E046EC52E4C701B6010E9436
:104430000E6287FD06C0C12CD12C96ECE92E92E4C9
:10444000F92EFE01ED56FC4FC082D182E282F3824A
:1044500006DE80911B0C90911C0CFE01E656FC4F71
:1044600091838083FCDD80911F0C9091200CFE01D4
:10447000E456FC4F91838083F2DD8091230C909170
:10448000240CFE01E256FC4F91838083E8DD80918D
:10449000430C9091440CA091450CB091460CFE0148
:1044A000E056FC4F80839183A283B383D8DD809153
:1044B000470C9091480CA091490CB0914A0CFE0118
:1044C000EC55FC4F80839183A283B383C8DD809138
:1044D0004B0C90914C0CA0914D0CB0914E0CFE01E8
:1044E000E855FC4F80839183A283B383B8DD80912C
:1044F0006B0C90916C0CFE01E455FC4F9183808312
:10450000AEDD80916F0C9091700CFE01E255FC4F76
:1045100091838083A4DD8091730C9091740CFE01D3
:10452000E055FC4F918380839ADD8091830C9091BC
:10453000840CFE01EE54FC4F9183808390DD8091CA
:10454000870C9091880CFE01EC54FC4F9183808382
:1045500086DD80918B0C90918C0CFE01EA54FC4F0F
:10456000918380837CDD80910B0C90910C0CA09149
:104570000D0CB0910E0CFE01E956FC4F0197A10500
:10458000B10509F054C081E0808369DD80910F0C92
:104590009091100CA091110CB091120CFE01E856F4
:1045A000FC4F0197A105B10509F043C081E080836C
:1045B00056DD8091130C9091140CA091150CB091C4
:1045C000160CC756DC4F0197A105B105A1F581E096
:1045D0008883DF91CF911F910F91FF90EF90DF9033
:1045E000CF90BF90AF909F908F907F906F905F9093
:1045F0004F903F902F9008954AE0442E47ED542E5F
:1046000043E2642E4CE3742EDCCE2AE0822E27EDAA
:10461000922E23E2A22E2CE3B22EF3CE8AE0C82EF5
:1046200087EDD82E83E2E82E8CE3F82E0ACF108295
:10463000ACCF1082BDCF1882CCCF2F923F924F9239
:104640005F926F927F928F929F92AF92BF92CF9222
:10465000DF92EF92FF920F931F93CF93DF93CDB72B
:10466000DEB76F970FB6F894DEBF0FBECDBF9B8F3E
:104670008A8FF5DCEA8DFB8DEF55FD4F81E040918F
:10468000430B5091440B6091450B7091460B452BA9
:10469000462B472B09F480E08083E1DCEA8DFB8D1B
:1046A000EE55FD4F81E04091470B5091480B6091D2
:1046B000490B70914A0B452B462B472B09F480E0A0
:1046C0008083CDDCEA8DFB8DED55FD4F81E040917F
:1046D0004B0B50914C0B60914D0B70914E0B452B39
:1046E000462B472B09F480E08083B9DC8091930B43
:1046F0009091940BA091950BB091960BEA8DFB8D48
:10470000EC55FD4F80839183A283B383A8DC809115
:10471000970B9091980BA091990BB0919A0BEA8D01
:10472000FB8DE855FD4F80839183A283B38397DC93
:1047300080919B0B90919C0BA0919D0BB0919E0B37
:10474000EA8DFB8DE455FD4F80839183A283B38373
:1047500086DC8091930B9091940BA091950BB09176
:10476000960BEA8DFB8DE055FD4F80839183A283EC
:10477000B38375DC8091970B9091980BA091990B66
:10478000B0919A0BEA8DFB8DEC54FD4F80839183A1
:10479000A283B38364DC80919F0B9091A00BA091C6
:1047A000A10BB091A20BEA8DFB8DE854FD4F8083E5
:1047B0009183A283B38353DC80916B0B90916C0B3C
:1047C000A0916D0BB0916E0BEA8DFB8DE853FD4F00
:1047D00080839183A283B38342DC80916F0B90919D
:1047E000700BA091710BB091720BEA8DFB8DE453AD
:1047F000FD4F80839183A283B38331DC8091730B5F
:104800009091740BA091750BB091760BEA8DFB8D96
:10481000E053FD4F80839183A283B38320DC80919A
:104820006B0B90916C0BA0916D0BB0916E0BEA8DA0
:10483000FB8DEC52FD4F80839183A283B3830FDC09
:1048400080916F0B9091700BA091710BB091720BD6
:10485000EA8DFB8DE852FD4F80839183A283B38361
:10486000FEDB8091770B9091780BA091790BB09142
:104870007A0BEA8DFB8DE452FD4F80839183A283F6
:10488000B383EDDB80917B0B90917C0BA0917D0B32
:10489000B0917E0BEA8DFB8DE052FD4F80839183BA
:1048A000A283B383DCDB80917F0B9091800BA0917E
:1048B000810BB091820BEA8DFB8DEC51FD4F808313
:1048C0009183A283B383CBDB8091830B9091840B84
:1048D000A091850BB091860BEA8DFB8DE851FD4FC1
:1048E00080839183A283B383BADB80911B0B909169
:1048F0001C0BA0911D0BB0911E0BEA8DFB8DE4519A
:10490000FD4F80839183A283B383A9DB80911F0B2A
:104910009091200BA091210BB091220BEA8DFB8D81
:10492000E051FD4F80839183A283B38398DB809114
:10493000230B9091240BA091250BB091260BEA8DAF
:10494000FB8DEC50FD4F80839183A283B38387DB83
:1049500080911B0B90911C0BA0911D0BB0911E0B15
:10496000EA8DFB8DE850FD4F80839183A283B38352
:1049700076DB80911F0B9091200BA091210BB091C1
:10498000220BEA8DFB8DE450FD4F80839183A2833F
:10499000B38365DB8091270B9091280BA091290BA5
:1049A000B0912A0BEA8DFB8DFD5F80839183A283FA
:1049B000B38355DBEA8DFB8DEC5FFC4F81E02091EA
:1049C000F30A3091F40A2130310509F080E0808348
:1049D00046DBEA8DFB8DEB5FFC4F81E02091F70A0F
:1049E0003091F80A2130310509F080E0808337DB0F
:1049F000EA8DFB8DEA5FFC4F81E02091FB0A30914C
:104A0000FC0A2130310509F080E0808328DBEA8D43
:104A1000FB8DE65CFC4F81E04091CB0A5091CC0AC3
:104A20006091CD0A7091CE0A452B462B472B09F495
:104A300080E0808314DBEA8DFB8DE55CFC4F81E038
:104A40004091CF0A5091D00A6091D10A7091D20A58
:104A5000452B462B472B09F480E0808300DBEA8D51
:104A6000FB8DE45CFC4F81E04091D30A5091D40A65
:104A70006091D50A7091D60A452B462B472B09F435
:104A800080E08083ECDAEA8DFB8DE35CFC4F81E013
:104A90004091A30B5091A40B6091A50B7091A60BB4
:104AA000452B462B472B09F480E08083D8DAEA8D2A
:104AB000FB8DE25CFC4F81E04091A70B5091A80B6D
:104AC0006091A90B7091AA0B452B462B472B09F43B
:104AD00080E08083C4DAEA8DFB8DE15CFC4F81E0ED
:104AE0004091AB0B5091AC0B6091AD0B7091AE0B44
:104AF000452B462B472B09F480E08083B0DAEA8D02
:104B0000FB8DE05CFC4F81E02091DB0A3091DC0AF8
:104B10002130310509F080E08083A1DAEA8DFB8D38
:104B2000EF5BFC4F81E02091DF0A3091E00A2130F9
:104B3000310509F080E0808392DAEA8DFB8DEE5B2F
:104B4000FC4F81E02091E30A3091E40A21303105E5
:104B500009F080E0808383DA8091A30A9091A40A0F
:104B6000A091A50AB091A60AEA8DFB8DED5BFC4FE2
:104B700080839183A283B38372DA8091A70A909194
:104B8000A80AA091A90AB091AA0AEA8DFB8DE95B57
:104B9000FC4F80839183A283B38361DA8091AB0A57
:104BA0009091AC0AA091AD0AB091AE0AEA8DFB8D4E
:104BB000E55BFC4F80839183A283B38350DAEA8D57
:104BC000FB8DE25DFC4F81E04091B30A5091B40A45
:104BD0006091B50A7091B60A452B462B472B09F414
:104BE00080E080833CDAEA8DFB8DE15DFC4F81E063
:104BF0004091B70A5091B80A6091B90A7091BA0A07
:104C0000452B462B472B09F480E0808328DAEA8D78
:104C1000FB8DE05DFC4F81E04091BB0A5091BC0AE6
:104C20006091BD0A7091BE0A452B462B472B09F4B3
:104C300080E0808314DA8091AB0C9091AC0CA09151
:104C4000AD0CB091AE0CEA8DFB8DE95FFC4F80831B
:104C50009183A283B38303DA8091AF0C9091B00C5F
:104C6000A091B10CB091B20CEA8DFB8DE55FFC4FC9
:104C700080839183A283B383F2D98091B30C909106
:104C8000B40CA091B50CB091B60CEA8DFB8DE15F30
:104C9000FC4F80839183A283B383E1D9EA8DFB8D9E
:104CA000EF5CFC4F81E020910B0B30910C0B21301D
:104CB000310509F080E08083EA8DFB8DEE5CFC4FCE
:104CC0001082EA8DFB8DED5CFC4F1082C8D9EA8D15
:104CD000FB8DEC5CFC4F81E02091070B3091080BC1
:104CE0002130310509F080E08083EA8DFB8DEB5C9B
:104CF000FC4F1082EA8DFB8DEA5CFC4F1082AFD92D
:104D0000EA8DFB8DE95CFC4F81E020912B0B30910B
:104D10002C0B2130310509F080E08083A0D9EA8D89
:104D2000FB8DE85CFC4F81E020912F0B3091300B24
:104D30002130310509F080E0808391D9EA8DFB8D27
:104D4000E75CFC4F81E02091330B3091340B213034
:104D5000310509F080E0808382D9EA8DFB8DED5E1C
:104D6000FC4F81E02091BB0C3091BC0C213031050F
:104D700009F080E0808373D9EA8DFB8DEC5EFC4FF7
:104D800081E02091BF0C3091C00C2130310509F039
:104D900080E0808364D9EA8DFB8DEB5EFC4F81E07F
:104DA0002091C30C3091C40C2130310509F080E012
:104DB000808355D98091FB0C9091FC0CA091FD0C47
:104DC000B091FE0CEA8DFB8DEA5EFC4F80839183EF
:104DD000A283B38344D98091FF0C9091000DA091E0
:104DE000010DB091020DEA8DFB8DE65EFC4F8083D4
:104DF0009183A283B38333D98091030D9091040DE5
:104E0000A091050DB091060DEA8DFB8DE25EFC4F81
:104E100080839183A283B38322D980912B0D9091BB
:104E20002C0DA0912D0DB0912E0DEA8DFB8DEE5D18
:104E3000FC4F80839183A283B38311D980912B0D82
:104E400090912C0DA0912D0DB0912E0DEA8DFB8D22
:104E5000EA5DFC4F80839183A283B38300D9809164
:104E60002B0D90912C0DA0912D0DB0912E0DEA8D52
:104E7000FB8DE65DFC4F80839183A283B383EFD8E3
:104E80000A8D1B8D015B1C4F8091530B9091540B2D
:104E9000A091550BB091560BF80180839183A283AA
:104EA000B383DDD8EA8CFB8CFDEAEF1AFCEFFF0A36
:104EB0008091570B9091580BA091590BB0915A0BC0
:104EC000F70180839183A283B383C9D880915B0B60
:104ED00090915C0BA0915D0BB0915E0BCA8CDB8C4A
:104EE000F9EACF1AFCEFDF0AF60180839183A283EF
:104EF000B383F801408151816281738114161506D4
:104F00001606170644F041E050E060E070E0408390
:104F1000518362837383F701408151816281738180
:104F2000141615061606170644F041E050E060E03E
:104F300070E04083518362837383181619061A0642
:104F40001B064CF081E090E0A0E0B0E0F601808329
:104F50009183A283B3830E949017FC01D6018D90A8
:104F60009D90AD90BC90D7014D915D916D917C91DC
:104F7000D8010D911D912D913C91008311832283C5
:104F80003383448355836683778380869186A286A4
:104F9000B386EA8DFB8D7096FA83E983EA8DFB8DEB
:104FA000ED5EFC4F80808B82EA8DFB8DE95FFC4FCC
:104FB0004080518062807380EA8DFB8DE95CFC4FFC
:104FC00090809A86EA8DFB8DE05CFC4FA080AC82DD
:104FD000EA8DFB8DEF5CFC4FB080BD82EA8DFB8DCE
:104FE000EC5CFC4F20812E83EA8DFB8DE35CFC4F53
:104FF00080818E87EA8DFB8DE65CFC4F90819A8BD9
:10500000EA8DFB8DEC5FFC4F2080EA8DFB8DEF5528
:10501000FD4F3080EA8DFB8DED5BFC4F80809180F1
:10502000A280B380EA8DFB8DE451FD4F8081918198
:10503000A281B381EA8DFB8DE052FD4FC080D1800B
:10504000E280F380EA8DFB8DE853FD4F4081518172
:1050500062817381EA8DFB8DEC55FD4F00811181DA
:1050600022813381EA8DFB8D04AF15AF26AF37AFB8
:10507000EC5BFF4F4083518362837383EA8DFB8D2A
:10508000E05BFF4F80839183A283B383EA8DFB8D26
:10509000E05CFF4F0083118322833383EA8DFB8D15
:1050A000E85BFF4F4083518362837383EA8DFB8DFE
:1050B000EC5AFF4F80839183A283B383EA8DFB8DEB
:1050C000E45BFF4FC082D182E282F382EA8DFB8DE6
:1050D000E85AFF4F80829182A282B382EA8DFB8DD3
:1050E000E45AFF4F3082EA8DFB8DE35AFF4F208256
:1050F000EA89AA8DBB8DD996EC93D997FE85DA966D
:10510000FC93DA978C80DB968C9280E490E0A0E0B0
:10511000B0E0EA8DFB8DE05AFF4F80839183A2833C
:10512000B383EA8DFB8DE25AFF4F9E809082EA8D19
:10513000FB8DE15AFF4FAD80A082EA8DFB8DEC59CB
:10514000FF4FBA84B082EA8DFB8DEB59FF4F40824E
:10515000518262827382EA8DFB8DE759FF4F2B816A
:105160002083AA8DBB8D99968D919C919A978633B9
:10517000910509F0E6C281E592E1FD01EE55FF4F90
:105180009183808332961182108283E592E1369674
:1051900091838083329611821082EA8DFB8D87A5E0
:1051A00090A94A97D1F485E692E1EA55FF4F9183A1
:1051B0008083EA8DFB8DE855FF4F1182108287E6D0
:1051C00092E1EA8DFB8DE255FF4F91838083EA8D5A
:1051D000FB8DE055FF4F118210820A8D1B8D0E54FE
:1051E0001F4FEA8DFB8DEC5EFC4F80808B82EA8D39
:1051F000FB8DE55FFC4F80819181A281B3818A871D
:105200009B87AC87BD87EA8DFB8DE85CFC4F908166
:105210009C83EA8DFB8DEF5BFC4FA081AD83EA8D13
:10522000FB8DEE5CFC4FB081BE83EA8DFB8DEB5CA9
:10523000FC4F80808E86EA8DFB8DE25CFC4F2080E7
:10524000EA8DFB8DE55CFC4F3080EA8DFB8DEB5FDA
:10525000FC4F3081EA8DFB8DEE55FD4F2081EA8DAC
:10526000FB8DE95BFC4F4081518162817381EA8D46
:10527000FB8DE051FD4F80819181A281B381EA8D48
:10528000FB8DEC51FD4FC080D180E280F380EA8D30
:10529000FB8DE453FD4F80809180A280B380EA8D26
:1052A000FB8DE855FD4F4080518062807380F8018E
:1052B00044A655A666A677A684AA95AAA6AAB7AAC2
:1052C000EA8DFB8DEE50FF4F80839183A283B383E1
:1052D000F80140AA51AA62AA73AA80AE91AEA2AE0A
:1052E000B3AEEA8DFB8DEA50FF4F80839183A2839A
:1052F000B383D801DC96CD92DD92ED92FC92DF97DC
:10530000EA8DFB8DE650FF4F4083518362837383A8
:10531000EA8DFB8DE250FF4F2083EA8DFB8DE1503B
:10532000FF4F308399963C9299979A962C929A9730
:10533000ED819B96EC9380E490E0A0E0B0E0EA8DF4
:10534000FB8DEE5FFE4F80839183A283B383EA8D52
:10535000FB8DF3958E848082EA8DFB8DEF5FFE4F8F
:105360009E809082EA8DFB8DEA5FFE4FAC80A0822A
:10537000EA8DFB8DE95FFE4F8A859B85AC85BD85F7
:1053800080839183A283B383EA8DFB8DE55FFE4F1B
:105390009B819083D80159968D919C91863391057C
:1053A00009F001C281E592E1EA8DFB8DEC5BFE4FD5
:1053B00091838083EA8DFB8DEA5BFE4F1182108220
:1053C00083E592E1EA8DFB8DE45BFE4F9183808360
:1053D000EA8DFB8DE25BFE4F11821082F801878D12
:1053E00090A14A97E1F485E692E1EA8DFB8DE85BB6
:1053F000FE4F91838083EA8DFB8DE65BFE4F118229
:10540000108287E692E1EA8DFB8DE05BFE4F91838F
:105410008083EA8DFB8DEE5AFE4F11821082EA8C5A
:10542000FB8CFCEAEF1AFEEFFF0AEA8DFB8DEB5EC8
:10543000FC4F80808B82EA8DFB8DE15FFC4F808189
:105440009181A281B3818A879B87AC87BD87EA8DD2
:10545000FB8DE75CFC4F90819C83EA8DFB8DEE5BBE
:10546000FC4F3080EA8DFB8DED5CFC4FA081AD835D
:10547000EA8DFB8DEA5CFC4F2080EA8DFB8DE15CC0
:10548000FC4FC080EA8DFB8DE45CFC4FD080EA8D40
:10549000FB8DEA5FFC4F3081EA8DFB8DED55FD4FB2
:1054A0002081EA8DFB8DE55BFC4F80809180A2809E
:1054B000B3808E829F82A886B986EA8DFB8DFD5FC0
:1054C00080819181A281B3818E879F87A88BB98BC0
:1054D000EA8DFB8DEC50FD4F80809180A280B380DF
:1054E0008C8E9D8EAE8EBF8EEA8DFB8DE851FD4F6A
:1054F00080819181A281B3818A8B9B8BAC8BBD8B88
:10550000EA8DFB8DE452FD4F80819181A281B381B0
:10551000EA8DFB8DE053FD4F4080518062807380A7
:10552000EA8DFB8DE854FD4F40815181628173818A
:10553000EA8DFB8DE455FD4F80809180A280B38081
:10554000F70184A695A6A6A6B7A644AA55AA66AA58
:1055500077AAEA8DFB8DEC56FE4F8C8C9D8CAE8C21
:10556000BF8C80829182A282B382F70140AB51ABA3
:1055700062AB73AB80AF91AFA2AFB3AFEA8DFB8DDF
:10558000E856FE4F8E849F84A888B98880829182D5
:10559000A282B3828A899B89AC89BD89F70184AFD5
:1055A00095AFA6AFB7AFEA8DFB8DE456FE4F8E8068
:1055B0009F80A884B98480829182A282B382EA8D7E
:1055C000FB8DE056FE4F2083EA8DFB8DEF55FE4F9D
:1055D0003083D7019996DC9299979A96CC929A97B4
:1055E0009B963C9280E490E0A0E0B0E0EA8DFB8DD9
:1055F000EC55FE4F80839183A283B383EA8DFB8DAC
:10560000EE55FE4F2082EA8DFB8DED55FE4FBD819C
:10561000B083EA8DFB8DE855FE4F8C808082EA8D49
:10562000FB8DE755FE4F8A859B85AC85BD858083C4
:105630009183A283B383EA8DFB8DE355FE4F9B815B
:105640009083D70159968D919C918633910509F0ED
:10565000D2C081E592E1EA8DFB8DEA51FE4F918344
:105660008083EA8DFB8DE851FE4F1182108283E525
:1056700092E1EA8DFB8DE251FE4F91838083EA8DAA
:10568000FB8DE051FE4F11821082F701878D90A1B2
:105690004A97E1F485E692E1EA8DFB8DE651FE4FF3
:1056A00091838083EA8DFB8DE451FE4F118210823D
:1056B00087E692E1EA8DFB8DEE50FE4F9183808369
:1056C000EA8DFB8DEC50FE4F11821082EA8DFB8D2E
:1056D000E25DFC4F8081882309F4B5C089819A81FD
:1056E0000E943A13EA8DFB8DE15DFC4F8081882397
:1056F00009F4AEC0C8010E943A138A8D9B8D805D6B
:105700009C4FDC018C91882309F4A6C0C7016F96D9
:105710000FB6F894DEBF0FBECDBFDF91CF911F91C2
:105720000F91FF90EF90DF90CF90BF90AF909F9040
:105730008F907F906F905F904F903F902F900C9440
:105740003A138C339105D9F485E592E1EA8DFB8D0E
:10575000EE55FF4F91838083EA8DFB8DEC55FF4F13
:105760001182108287E592E1EA8DFB8DE655FF4FAD
:1057700091838083EA8DFB8DE455FF4F0CCD8E978E
:1057800009F00BCD89E592E1EA8DFB8DEE55FF4FD7
:1057900091838083EA8DFB8DEC55FF4F118210823F
:1057A0008FE592E1E1CF8C33910589F485E592E1B3
:1057B000EA8DFB8DEC5BFE4F91838083EA8DFB8D40
:1057C000EA5BFE4F1182108287E592E1FBCD8E9756
:1057D00009F004CE89E592E1EA8DFB8DEC5BFE4F8A
:1057E00091838083EA8DFB8DEA5BFE4F11821082EC
:1057F0008FE592E1E7CD8C33910589F485E592E15F
:10580000EA8DFB8DEA51FE4F91838083EA8DFB8DFB
:10581000E851FE4F1182108287E592E12ACF8E97E0
:1058200009F033CF89E592E1EA8DFB8DEA51FE4F15
:1058300091838083EA8DFB8DE851FE4F11821082A7
:105840008FE592E116CF89819A810E94F8124ACFA2
:10585000C8010E94F81251CFC7016F960FB6F89495
:10586000DEBF0FBECDBFDF91CF911F910F91FF9093
:10587000EF90DF90CF90BF90AF909F908F907F90F0
:105880006F905F904F903F902F900C94F812AF92D2
:10589000BF92CF92DF92EF92FF920F931F93CF931D
:1058A000DF93EC018AE190E09AA789A78BE190E071
:1058B0009CA78BA789E190E09EA78DA78FE090E041
:1058C00098AB8FA78EE190E09AAB89AB8EE090E029
:1058D0009CAB8BAB85E490E09EAB8DAB84E490E019
:1058E00098AF8FABFE01EE54FF4F80E290E0928FB5
:1058F000818F81E290E0948F838F8FE190E0968F8B
:10590000858F10A2178E12A211A214A213A283E4F3
:1059100090E096A385A382E490E090A787A3EE553C
:10592000FF4F83E290E0928F818F84E290E0948F2A
:10593000838F82E290E0968F858F10A2178E12A23D
:1059400011A214A213A281E490E096A385A380E49F
:1059500090E090A787A3E95BFE4F118210823296F8
:1059600011821082329611821082CE010E941D2374
:10597000CE010E944021CE018A509E4F41E050E06E
:10598000FC0157A746A7DE01AA5DBD4F24E030E029
:105990009F963C932E939E975E01FAEAAF1AFDEF15
:1059A000BF0A28E030E0F50137A726A720E130E064
:1059B000FC013183208321E130E0358324832FEF04
:1059C0003FEF338322833783268362856087638535
:1059D000618767E170E011967C936E9368E170E0F7
:1059E00015967C936E93149713963C932E9312976F
:1059F00017963C932E9316971A966C911A971896B1
:105A00006C9318971B966C911B9719966C9319972A
:105A10006DE170E0F501718360836CE170E0758386
:105A2000648333832283378326836285608763851B
:105A30006187BE016E547C4FFB01608171818E01D4
:105A400000561C4FF801C080D180E280F3800650E0
:105A50001109F80100811181FC01158F048FC48A9E
:105A6000D58AE68AF78A6130710509F04EC0378F12
:105A7000268FCE018C549C4FFC01808191819E0128
:105A80002C553C4FF901408151816281738128502E
:105A90003109F901208131815D963C932E935C9709
:105AA00054964D935D936D937C935797019781F531
:105AB0008FEF9FEF5F969C938E935E97DE01AA54C3
:105AC000BC4F8D919C9111971E974D915D916D9159
:105AD0007C91C256DC4F28813981F501358F248FA6
